:100000000C9496110C94C7110C94C7110C94C71141
:100010000C94C7110C94C7110C94C7110C94C71100
:100020000C94C7110C94C7110C94C7110C94C711F0
:100030000C94C7110C94C7110C94C7110C94C711E0
:100040000C94C7110C94F1550C94C7110C94C71162
:100050000C94C7110C94C7110C94F6A50C94BA3BE0
:100060000C94C7110C9438390C94C7110C94C71117
:100070000C94C7110C94C7110C94C7110C94C711A0
:100080000C94C7110C94C7110C94C7110C94C71190
:100090000C94C7110C94C7110C94C7110C94C71180
:1000A0000C94C7110C94C7110C94C7110C94C71170
:1000B0000C94C7110C94C7110C94C7110C94C71160
:1000C0000C94C7110C94C7110C94C7110C94C71150
:1000D0000C94C7110C94C7110C94C7110C94C71140
:1000E0000C94C711A739AA3999399D39A339E13937
:1000F000AE39B239B839BC39C039C639CA39CE3946
:10010000E139D439D839DC39D63ADB3AE03AEA3A3F
:10011000F43A6D3BFE3A063B0E3B183B223B2C3B30
:100120003B3B453B6D3B4F3B593B633B084AD73B11
:100130003BCE016E84BCBFFDC12F3D6C74319ABDB6
:1001400056833DDA3D00C77F11BED9E4BB4C3E91DA
:100150006BAAAABE000000803F05A84CCDB2D44EC9
:10016000B93836A9020C50B9918688083CA6AAAACB
:100170002ABE000000803F004E414E494E4954596E
:10018000494E46CDCCCC3D0AD7233C17B7D1387762
:10019000CC2B329595E6241FB14F0A000020410078
:1001A00000C84200401C4620BCBE4CCA1B0E5AAEC2
:1001B000C59D74434F4D4D554E49434154494F4E93
:1001C0000044525952554E004552524F5253004925
:1001D0004E464F004543484F0020746F6F206C6FB0
:1001E0006E6720657874727573696F6E20707265C2
:1001F00076656E7465640A0047322F47332062616A
:100200006420706172616D65746572730A00536C6D
:100210006565702E2E2E00526573756D696E6720B0
:100220007072696E74004131304D2072656164797D
:100230002E00436C69636B20746F20726573756D5B
:10024000652E2E2E004E6F206D6F76652E00456E4A
:10025000642066696C65206C6973740A0042656786
:10026000696E2066696C65206C6973740A00466962
:100270006C652064656C657465643A0044656C6502
:1002800074696F6E206661696C65642C2046696CC8
:10029000653A20006F70656E206661696C65642C3C
:1002A0002046696C653A20002569730025696D2038
:1002B000256973002569682025696D20256973000B
:1002C000256964202569682025696D2025697300EA
:1002D00025697920256964202569682025696D20B4
:1002E000256973005072696E742074696D653A20D7
:1002F00000000125272318FF1F211D1CFF19171BB4
:100300001EFFFF0C0409FFFFFF2E2C0CFFFF312FF7
:100310003004400AFF41FFFFFFFFFFFF50726F7480
:1003200065637465642050696E0A0045256920255F
:1003300073004131304D2072656164792E00D40123
:10034000CF01C801C101B3016F6666004445425543
:10035000473A004B494C4C45442E20004D31313337
:100360002053006F6B0048656174696E6720646F8D
:100370006E652E0020573A004525692025730041FF
:1003800031304D2072656164792E004265642064CD
:100390006F6E652E0020573A004265642048656103
:1003A00074696E672E004131304D204F66662E0015
:1003B000454D455247454E43595F50415253455272
:1003C00000434153455F4C494748545F42524947B7
:1003D00048544E45535300544F47474C455F4C4992
:1003E0004748545300534F4654574152455F504F6E
:1003F000574552004255494C445F50455243454E83
:1004000054004C4556454C494E475F4441544100C9
:100410005A5F50524F4245004155544F4C45564546
:100420004C005052494E545F4A4F420050524F4781
:1004300052455353004155544F5245504F52545F0B
:1004400054454D5000564F4C554D4554524943006C
:10045000454550524F4D0053455249414C5F584F0E
:100460004E5F584F4646004649524D574152455FF0
:100470004E414D453A4D61726C696E20312E312EE0
:100480003820284769746875622920534F555243B4
:10049000455F434F44455F55524C3A6874747073DE
:1004A0003A2F2F6769746875622E636F6D2F4D61E7
:1004B000726C696E4669726D776172652F4D6172FB
:1004C0006C696E2050524F544F434F4C5F5645520B
:1004D00053494F4E3A312E30204D414348494E4505
:1004E0005F545950453A4131304D2045585452558A
:1004F0004445525F434F554E543A31205555494477
:100500003A63656465326132662D343161322D346F
:100510003734382D396231322D63353563363266E2
:1005200033363766660A002F2F20007A5F6D696EBA
:100530003A2000795F6D696E3A2000785F6D696ED0
:100540003A20005265706F7274696E6720656E6440
:1005500073746F70207374617475730A004D313455
:100560003520533C696E6465783E206F7574206F4A
:10057000662072616E67652028302D31290A005788
:1005800061726E696E673A204D69782066616374A6
:100590006F7273206D7573742061646420757020B0
:1005A000746F20312E302E205363616C696E672E7C
:1005B0000A0053657474696E672054726176656CC5
:1005C00020416363656C65726174696F6E3A2000E7
:1005D00053657474696E6720526574726163742028
:1005E000416363656C65726174696F6E3A20005394
:1005F000657474696E67205072696E74204163631C
:10060000656C65726174696F6E3A2000536574742D
:10061000696E67205072696E7420616E6420547236
:100620006176656C20416363656C65726174696FA6
:100630006E3A2000205A00205900580020204D61B9
:10064000783A2000205A00205900580020204D6997
:100650006E3A20004F6E20004F666600536F66743E
:1006600020656E6473746F70733A20004B642000D1
:1006700023646566696E65202044454641554C54A7
:100680005F004B69200023646566696E6520204425
:10069000454641554C545F004B702000236465660D
:1006A000696E65202044454641554C545F005049D1
:1006B00044204175746F74756E652066696E697348
:1006C000686564212050757420746865206C6173BE
:1006D00074204B702C204B6920616E64204B642089
:1006E000636F6E7374616E74732066726F6D2062D7
:1006F000656C6F7720696E746F20436F6E666967F3
:1007000075726174696F6E2E680A00504944204109
:1007100075746F74756E65206661696C65642120FF
:1007200074696D656F75740A005049442041757491
:100730006F74756E65206661696C6564212054650F
:100740006D706572617475726520746F6F20686971
:1007500067680A00204B643A2000204B693A200069
:10076000204B703A20000A20436C61737369632048
:10077000504944200A002054753A2000204B753A15
:100780002000206D61783A2000206D696E3A2000CB
:1007900020643A200020626961733A20004361734B
:1007A00065206C696768743A2000556E6B6E6F77D0
:1007B0006E20636F6D6D616E643A2022004C696E2D
:1007C00065204E756D626572206973206E6F7420AE
:1007D0004C617374204C696E65204E756D62657254
:1007E0002B312C204C617374204C696E653A2000CB
:1007F0004B494C4C45442E200053544F50504544D7
:100800002E20005072696E7465722073746F707060
:1008100065642064756520746F206572726F7273F1
:100820002E2046697820746865206572726F722088
:10083000616E6420757365204D39393920746F20DD
:10084000726573746172742E202854656D706572C0
:1008500061747572652069732072657365742E20EA
:1008600053657420697420616674657220726573C3
:1008700074617274696E67290A004E6F204368655F
:10088000636B73756D2077697468206C696E652081
:100890006E756D6265722C204C617374204C696EAC
:1008A000653A2000636865636B73756D206D6973CD
:1008B0006D617463682C204C617374204C696E65A3
:1008C0003A20004D313130004D333100473238206D
:1008D00058590053442072656164206572726F72CA
:1008E0000A00446F6E65207072696E74696E6720CD
:1008F00066696C650A0020496E76616C69642065E2
:10090000787472756465722000205A3A0020593A52
:100910000020436F756E7420583A0020453A00203D
:100920005A3A0020593A00583A003A004361703A66
:100930000020643A0020693A0020703A0020643AAE
:100940000020693A0020703A004B494C4C45442E37
:100950002000202D20496E76616C696420657874D2
:100960007275646572206E756D62657220210A0071
:100970002D2D2D2D2D2D007C4D61726C696E7C000E
:100980002D2D2D2D2D2D00687474703A2F2F6D6133
:10099000726C696E66772E6F726700687474703A55
:1009A0002F2F6D61726C696E66772E6F72670020F3
:1009B000312E312E38007265636F76657279256449
:1009C000002020506C616E6E6572427566666572BD
:1009D00042797465733A20002046726565204D6542
:1009E0006D6F72793A2000436F6D70696C65643A7F
:1009F0002041756720323120323031380A00207CA6
:100A000020417574686F723A20286E6F6E652C20D5
:100A100064656661756C7420636F6E666967290A28
:100A200000323031372D31322D32352031323A30EB
:100A30003000204C61737420557064617465643AB1
:100A40002000312E312E380A004D61726C696E0023
:100A500020536F6674776172652052657365740AFE
:100A600000205761746368646F6720526573657412
:100A70000A002042726F776E206F75742052657382
:100A800065740A002045787465726E616C20526549
:100A90007365740A00506F77657255700A0073743D
:100AA0006172740A006572726F722077726974697C
:100AB0006E6720746F2066696C650A00456E64730A
:100AC000746F7073202563202563202563202563C0
:100AD00000205A3A0020593A0020583A00656E64C6
:100AE00073746F7073206869743A2000473238203D
:100AF000580047636F203A2000473238205900479A
:100B000032382058004D313039205430205325756B
:100B1000004D3139302053257500446F6E652073C8
:100B20006176696E672066696C652E0A004D323900
:100B300000436172642072656D6F76656400436185
:100B4000726420696E736572746564000000210030
:100B5000240027002A002D0030003300010100008E
:100B6000040107010A0100002200250028002B00D3
:100B70002E003100340002010000050108010B01C4
:100B8000000020002300260029002C002F00320046
:100B9000000100000301060109010505050507051F
:100BA00008080808020202020A0A080804040404E9
:100BB0000101010101010101030303030303030315
:100BC000040707070C0C0C0C0C0C0C0C02020202A4
:100BD00006060606060606060B0B0B0B0B0B0B0B8D
:100BE000010210202008081020401020408002013F
:100BF0000201080402010102040810204080804024
:100C00002010080402018004020180402010080422
:100C100002010804020101020408102040800102C0
:100C200004081020408000000A0B02090C0D0E0879
:100C300007030401000000000000000000000000A5
:100C400000000000000000000000000000000000A4
:100C50000000121110000000000000000000000061
:100C60000000000000000000000000004572726FEC
:100C7000722077726974696E6720746F20454550E1
:100C8000524F4D210A00290A002062797465733B96
:100C900020637263200053657474696E6773205318
:100CA000746F7265642028007772697465206669C4
:100CB0006C65206E616D653A2000290A002062791A
:100CC0007465733B206372632000706F7765726F89
:100CD00066662053746F72656420280056652D6A1D
:100CE00065726B0056652D6A65726B0056652D6ADC
:100CF00065726B00567A2D6A65726B00567A2D6AA2
:100D000065726B0056792D6A65726B0056792D6A93
:100D100065726B0056792D6A65726B0056782D6A84
:100D200065726B0056782D6A65726B0056782D6A75
:100D300065726B004D6F74696F6E004573746570FA
:100D4000732F6D6D004573746570732F6D6D005A50
:100D500073746570732F6D6D005A73746570732FA3
:100D60006D6D005973746570732F6D6D00597374D8
:100D70006570732F6D6D005873746570732F6D6D92
:100D8000005873746570732F6D6D004D6F74696FCB
:100D90006E0053746570732F6D6D004A65726B0041
:100DA000416363656C65726174696F6E0056656C52
:100DB0006F6369747900436F6E74726F6C0046697B
:100DC0006C616D656E74204F66660046696C616D7E
:100DD000656E74204F6E200046696C616D656E749F
:100DE000204F66660046696C616D656E74204F6EBB
:100DF000200046696C2E204469612E0046696C2EE5
:100E0000204469612E004F6666004F6E2000452029
:100E1000696E206D6D3300436F6E74726F6C0043AA
:100E2000616E6E6F7420656E746572207375626496
:100E300069723A2000052E2E004D61696E0024F47F
:100E4000D43050C38E20C2A24017828B7011127A08
:100E5000910D816CD90AA861E108C75866076151F4
:100E600043061E4B5D05C145A7041A411104093D07
:100E70009803713931034036DB0265339102D43077
:100E80005402802E1D02632CEE01752AC501B02884
:100E9000A001102781018F2564012B244B01E02242
:100EA0003401AC211F018D200D01801FFC00841E28
:100EB000ED00971DDF00B81CD200E61BC600201B0A
:100EC000BC00641AB200B219A8000A19A0006A187E
:100ED0009900D117910040178B00B5168400311688
:100EE0007E00B31579003A157300C7146F005814CB
:100EF0006A00EE1366008813630025135E00C712B4
:100F00005B006C12570015125400C1115100701192
:100F10004F0021114B00D61049008D10470046109C
:100F2000440002104200C00F4000800F3E00420FFC
:100F30003C00060F3B00CB0E3800930E37005C0ED2
:100F40003500270E3400F30D3200C10D3100900D35
:100F50003000600D2E00320D2D00050D2C00D90C37
:100F60002B00AE0C2900850C29005C0C2700350CE9
:100F700027000E0C2600E80B2400C40B2400A00B55
:100F800023007D0B23005A0B2100390B2100180B85
:100F90002000F80A1F00D90A1E00BB0A1E009D0A85
:100FA0001D00800A1D00630A1C00470A1B002C0A52
:100FB0001B00110A1A00F7091A00DD091900C409FB
:100FC0001900AB091900920917007B091800630981
:100FD00017004C09160036091600200916000A09E8
:100FE0001500F5081500E0081400CC081400B80836
:100FF0001400A4081400900813007D0812006B0868
:101000001300580812004608120034081100230883
:1010100011001208110001081100F0071000E0078C
:101020001000D0071000C0071000B0070F00A10784
:10103000100091070E0083070F0074070F0065076B
:101040000E0057070E0049070E003B070D002E0744
:101050000E0020070D0013070D0006070D00F9060E
:101060000C00ED060D00E0060C00D4060C00C806CE
:101070000C00BC060C00B0060C00A4060B00990680
:101080000C008D060B0082060B0077060B006C0629
:101090000B0061060A0057060B004C060A004206C8
:1010A0000A0038060A002E060A0024060A001A065C
:1010B0000A001006090007060A00FD050900F405EC
:1010C0000900EB050900E2050900D9050900D00572
:1010D0000900C7050900BE050900B5050800AD05F2
:1010E0000800A50509009C050800940508008C056A
:1010F0000800840508007C050800740508006C05DC
:101100000700650508005D050700560508004E0547
:1011100007004705070040050800380507003105AE
:1011200007002A050700230507001C050600160511
:1011300007000F0507000805060002050700FB046D
:101140000600F5040700EE040600E8040600E204C9
:101150000700DB040600D5040600CF040600C9041E
:101160000600C3040600BD040600B7040600B1046F
:101170000500AC040600A6040600A00405009B04BC
:10118000060095040500900406008A040500850405
:101190000500800406007A0405007504050070044B
:1011A00005006B04050066040500610405005C048D
:1011B000050057040500520405004D0405004804CD
:1011C0000500430405003E0404003A04050035040C
:1011D0000500300404002C04050027040400230447
:1011E00005001E0404001A0404001604050011047E
:1011F00004000D04040009040500040404000004B4
:101200000400FC030400F8030400F4030400F003EA
:101210000400EC030400E8030400E4030400E0031A
:101220000400DC030400D8030400D4030400D0034A
:101230000400CC030400C8030300C503030024F426
:1012400004D9201BC40C5C0E9804C4095F02650716
:101250007101F405F900FB04B30048048700C103E1
:1012600069005803550003034500BE023A0084029A
:10127000310053022A002902250004022000E40163
:101280001C00C8011900AF01170098011400840167
:101290001300710110006101100051010E004301A3
:1012A0000D0036010B002B010B0020010B00150176
:1012B00009000C01090003010800FB000800F3000D
:1012C0000800EB000700E4000600DE000600D8007E
:1012D0000600D2000600CC000500C7000500C200D1
:1012E0000500BD000400B9000400B5000400B10011
:1012F0000400AD000400A9000400A5000300A20042
:1013000003009F0004009B00030098000300950069
:10131000020093000300900003008D0002008B0088
:1013200003008800020086000200840003008100A0
:1013300002007F0002007D0002007B0002007900B5
:1013400002007700010076000200740002007200C3
:101350000100710002006F0002006D0001006C00CE
:1013600002006A00010069000200670001006600D7
:1013700001006500010064000200620001006100DC
:101380000100600001005F0002005D0001005C00E0
:1013900001005B0001005A000100590001005800E3
:1013A00001005700010056000100550001005400E3
:1013B00001005300000053000100520001005100E1
:1013C0000100500001004F0001004E0000004E00DF
:1013D00001004D0001004C0001004B0000004B00DB
:1013E00001004A00010049000100480000004800D7
:1013F00001004700010046000000460001004500D2
:1014000000004500010044000100430000004300CB
:1014100001004200000042000100410000004100C4
:101420000100400001003F0000003F0001003E00BD
:1014300000003E0001003D0000003D0001003C00B6
:1014400000003C0000003C0001003B0000003B00AD
:1014500001003A0000003A000100390000003900A4
:10146000010038000000380000003800010037009B
:101470000000370001003600000036000000360092
:101480000100350000003500000035000100340087
:10149000000034000000340001003300000033007D
:1014A0000000330001003200000032000000320072
:1014B0000100310000003100000031000100300067
:1014C000000030000000300001002F0000002F005D
:1014D00000002F0000002F0001002E0000002E0051
:1014E00000002E0001002D0000002D0000002D0046
:1014F00000002D0001002C0000002C0000002C003A
:1015000000002C0001002B0000002B0000002B002D
:1015100000002B0001002A0000002A0000002A0021
:1015200000002A0001002900000029000000290015
:101530000000290000002900010028000000280008
:1015400000002800000028000000280001002700FB
:1015500000002700000027000000270000002700EF
:1015600001002600000026000000260000002600E2
:1015700000002600010025000000250000002500D5
:1015800000002500000025000000250001002400C7
:1015900000002400000024000000240000002400BB
:1015A00001002300000023000000230000002300AE
:1015B000000023000000230000002300010022009F
:1015C0000000220000002200000022000000220093
:1015D0000000220001002100000021000000210085
:1015E0000000210000002100000021000000210077
:1015F000010020000000200000002000000020006A
:10160000000020000000200000002000000020005A
:1016100001001F0000001F0000001F0000001F004D
:1016200000001F0000001F0000001F0001001E003E
:1016300000001E0000001E0000001E0000004D38CB
:101640003420582059205A20450025732C005A2553
:10165000752C45256C752C50256C752C5425752CD6
:101660004225752C004131304D2072656164792E20
:10167000004572723A4E6F2046696C616D656E74FA
:101680000020746F6F206C6F6E67206578747275C0
:1016900073696F6E2070726576656E7465640A009A
:1016A000496E697469616C697A6520454550524F8D
:1016B0004D00436F6E74726F6C00526573746F727D
:1016C00065206661696C73616665004C6F616420BA
:1016D00073657474696E677300496E697469616CCF
:1016E000697A6520454550524F4D0053746F7265BD
:1016F0002073657474696E67730046696C616D650B
:101700006E74004D6F74696F6E0054656D70657214
:101710006174757265004D61696E0050726568652F
:1017200061742041425320636F6E66005072656899
:1017300065617420504C4120636F6E6600504944CF
:101740002D44005049442D44005049442D49005037
:1017500049442D49005049442D50005049442D50D2
:1017600000200220466163740020022046616374F9
:10177000002002204D6178002002204D6178002079
:1017800002204D6178002002204D696E0020022069
:101790004D696E002002204D696E004F6666004F55
:1017A0006E20004175746F74656D700046616E2027
:1017B00073706565640046616E20737065656400D2
:1017C00042656400426564004E6F7A7A6C65004E33
:1017D0006F7A7A6C6500436F6E74726F6C0053742D
:1017E0006F72652073657474696E67730042656417
:1017F00000426564004E6F7A7A6C65004E6F7A7AAB
:101800006C650046616E2073706565640046616EAC
:101810002073706565640054656D706572617475E0
:101820007265004D31303420532575004739322020
:1018300045257500473932205A25752E2575004DEE
:10184000353030004E4F2020005965732020005263
:101850006573756D65207072696E74203F00257523
:101860003A2530327500253032753A253032750010
:101870002D2D2D005344005A00200D0A6279746505
:10188000733B20637263206572726F722000200DBB
:101890000A62797465733B20637263206572726FAC
:1018A000722000726561642066696C65206E616DEE
:1018B000653A2000726561642066696C6520646920
:1018C000723A2000290A002062797465733B206314
:1018D00072632000706F7765726F66662073746F35
:1018E0007265642073657474696E677320726574C1
:1018F000726965766564202800202863616C6375D1
:101900006C6174656429210A0020213D2000454551
:1019100050524F4D20435243206D69736D61746383
:1019200068202D202873746F726564292000290AAD
:10193000002062797465733B20637263200020731A
:10194000746F7265642073657474696E6773207256
:101950006574726965766564202800204D61726C3B
:10196000696E3D563437290A0028454550524F4D7F
:101970003D00454550524F4D2076657273696F6E3C
:10198000206D69736D6174636820004861726463DF
:101990006F6465642044656661756C74205365747A
:1019A00074696E6773204C6F616465640A00881304
:1019B00000008813000032000000881300000000BF
:1019C000C8430000C8430000C843000034429A994D
:1019D000A0429A99A1420000C8430000AA43466C65
:1019E0006F7700466C6F770046616E207370656597
:1019F000640046616E207370656564004265640032
:101A0000426564004E6F7A7A6C65004E6F7A7A6C2C
:101A100065005370656564005370656564004D61D1
:101A2000696E005072656865617420504C412045B4
:101A30006E64005072656865617420504C412042AC
:101A40006564005072656865617420504C410050B7
:101A500072657061726500507265686561742041DD
:101A6000425320456E640050726568656174204180
:101A7000425320426564005072656865617420417C
:101A800042530050726570617265004261636B0081
:101A90004E65787420636F726E657200507265686F
:101AA00065617420504C4100436F6F6C646F776EBA
:101AB0000050726568656174204142530044697347
:101AC00061626C65207374657070657273004D3867
:101AD00034004C6576656C20636F726E65727300BE
:101AE0004175746F20686F6D6500473238004D6F27
:101AF00076652061786973004D61696E004D61788B
:101B00002054656D703A20313530004D696E205497
:101B1000656D703A203500544265643A4550434F34
:101B200053203130304B004D61782054656D703A50
:101B300020323735004D696E2054656D703A20357E
:101B40000054303A204550434F53203130304B0041
:101B50005053553A2047656E657269630050726F45
:101B6000746F636F6C3A20312E3000426175643AB5
:101B70002032353030303000475432353630205640
:101B8000332E30004578747275646572733A203173
:101B900000687474703A2F2F6D61726C696E66778D
:101BA0002E6F7267004131304D00323031372D31A8
:101BB000322D32352031323A303000312E312E384C
:101BC000004D61726C696E00546865726D69737462
:101BD0006F727300426F61726420496E666F0050CD
:101BE00072696E74657220496E666F004D61696E30
:101BF000007C3C3E5E2B3D3F2F5B5D3B2C2A225CF4
:101C0000006265640A002C2073797374656D20731B
:101C1000746F7070656421204865617465725F49F6
:101C2000443A200070012C0190012701B0012201EB
:101C3000C0011D01F00118011002130130020E0154
:101C40006002090190020401C002FF000003FA00D3
:101C50004003F5008003F000D003EB002004E60011
:101C60007004E100E004DC004005D700C005D200AC
:101C70004006CD00D006C8008007C3003008BE0073
:101C8000F008B900C009B400B00AAF00B00BAA0058
:101C9000D00CA500000EA000500F9B00C0109600B5
:101CA0005012910000148C00C0158700B0178200FC
:101CB000B0197D00D01B7800001E730040206E001C
:101CC00090226900F024640040275F0090295A00A8
:101CD000E02B5500102E500020304B0010324600F3
:101CE000E033410090353C00103737007038320047
:101CF000A0392D00B03A2800A03B2300603C1E0014
:101D0000103D1900903D1400103E0F00703E0A0077
:101D1000C03E0500003F0000403FFBFF803FF6FF54
:101D2000C03FF1FF4572723A204D494E54454D5027
:101D300020424544004572723A204D494E54454D6B
:101D400050004D494E54454D502074726967676587
:101D5000726564004572723A204D415854454D50A9
:101D600020424544004572723A204D415854454D39
:101D700050004D415854454D502074726967676555
:101D800072656400202F002042403A0020403A0053
:101D900000000000010204040000001C1C0C0404EC
:101DA0000402010000000000040810000000000010
:101DB000001C1F11111F00000006191803130C004E
:101DC000040E1F041C000000000E1315110E00006D
:101DD0001C10181705060500040A0A0A0A11110E3C
:101DE0000C12120C00000000001F1511151F00003E
:101DF0005344207072696E74696E672062797465ED
:101E000020004E6F74205344207072696E74696EA6
:101E1000670A0053442063617264206F6B0A006F8D
:101E200070656E526F6F74206661696C65640A003C
:101E3000766F6C756D652E696E6974206661696C6C
:101E400065640A00534420696E6974206661696C98
:101E50000A006175746F25692E670000006D69784E
:101E60002070657263656E74006D697820706572AC
:101E700063656E7400000074656D706C617465005C
:101E800074656D706C6174650066696C616D656E1A
:101E9000744C0066696C616D656E7452004D6978B2
:101EA0006572005072696E742070617573656400AC
:101EB000005072696E742061626F72746564004EC6
:101EC0006F2053442063617264005072696E742005
:101ED00066726F6D2053440053746F702070726986
:101EE0006E7400526573756D65207072696E740052
:101EF00041626F7574205072696E74657200506132
:101F0000757365207072696E74004D697865720032
:101F1000436F6E74726F6C00507265706172650011
:101F200054756E6500496E666F2073637265656EE9
:101F3000004D3234004D32332025730057726974DE
:101F4000696E6720746F2066696C653A20006F7057
:101F5000656E206661696C65642C2046696C653A23
:101F600020006F70656E206661696C65642C204688
:101F7000696C653A200046696C652073656C656321
:101F80007465640A002053697A653A200046696CDA
:101F900065206F70656E65643A20006F70656E2015
:101FA0006661696C65642C2046696C653A20002086
:101FB00066696C653A2000646F696E6700667265D9
:101FC0007368004E6F772000454E442053554252AF
:101FD0004F5554494E450A002220706F730022204D
:101FE000706172656E743A2200535542524F5554D7
:101FF000494E452043414C4C207461726765743AE8
:1020000022004B494C4C45442E2000747279696E75
:102010006720746F2063616C6C207375622D676339
:102020006F64652066696C657320776974682074D5
:102030006F6F206D616E79206C6576656C732E20F4
:102040004D4158206C6576656C2069733A00457285
:10205000726F723A0043616E6E6F74206F70656EBE
:10206000207375626469722000656E7175657565AF
:10207000696E672022006563686F3A005265736578
:102080006E643A20006F6B00627573793A2070615C
:102090007573656420666F7220696E7075740A00CE
:1020A000627573793A2070617573656420666F722A
:1020B00020757365720A00627573793A2070726FC9
:1020C00063657373696E670A004B494C4C45442E37
:1020D00020004B494C4C2063617573656420627924
:1020E00020746F6F206D75636820696E6163746919
:1020F00076652074696D65202D2063757272656E3A
:102100007420636F6D6D616E643A2000506C656180
:102110007365207265736574005052494E54455280
:102120002048414C544544005072696E74657220D9
:1021300068616C7465642E206B696C6C282920635F
:10214000616C6C6564210A00000000000000000062
:1021500000000000000048420000484200008040AB
:10216000000000005761726E696E673A20486F6D1B
:10217000696E672042756D702044697669736F726D
:10218000203C20310A000202040000A0400000A010
:10219000400000004000005C4300005C43000082FF
:1021A00043FFFFFF5654726176206D696E005654EE
:1021B000726176206D696E005654726176206D6989
:1021C0006E00566D696E00566D696E00566D696ED3
:1021D00000566D6178204500566D617820450056A7
:1021E0006D6178204500566D6178205A00566D610A
:1021F00078205A00566D6178205A00566D6178201B
:102200005900566D6178205900566D61782059004B
:10221000566D6178205800566D6178205800566DD3
:1022200061782058004D6F74696F6E00416D617860
:10223000204500416D6178204500416D6178205A4C
:1022400000416D6178205A00416D6178205900414C
:102250006D6178205900416D6178205800416D61B1
:1022600078205800412D74726176656C00412D74A0
:10227000726176656C00412D7265747261637400E1
:10228000412D7265747261637400416363656C0013
:10229000416363656C004D6F74696F6E004D6F76BE
:1022A000652058004D6F76652059004D6F7665208A
:1022B0005A004578747275646572004D6F766520BA
:1022C000302E316D6D004D6F766520316D6D004D96
:1022D0006F76652031306D6D004D6F7665206178C9
:1022E0006973004578747275646572004D6F766528
:1022F000205A004D6F76652059004D6F7665205845
:10230000004578747275646572004D6F7665205A69
:10231000004D6F76652059004D6F7665205800504E
:10232000726570617265000014D419D511241FBE46
:10233000CFEFD1E2DEBFCDBF00E00CBF14E0A0E0E4
:10234000B2E0E4EEF4EC01E00BBF02C007900D92A6
:10235000AE3DB107D9F725E1AEEDB4E001C01D9265
:10236000AA32B207E1F711E1C5E9D1E100E006C008
:1023700021970109802FFE010E94A1E1C439D107F4
:1023800080E00807A9F70E9452C90C9461E20C94FE
:1023900000002F923F924F925F926F927F928F92A6
:1023A0009F92AF92BF92CF92DF92EF92FF920F93E4
:1023B0001F93CF93DF93CDB7DEB7CA58D1090FB6BD
:1023C000F894DEBF0FBECDBF81E090E090939B14E8
:1023D00080939A14809123158D3409F473C7843542
:1023E00011F40C940C2A873411F00C945A2A809121
:1023F0002115909122158430910509F48EC554F46D
:1024000097FF02C00C94742A209125028230910516
:102410003CF521C08A35910509F4D1C62CF44C97BE
:1024200009F4C1C50C94742A8B35910509F4CBC607
:102430008C35910511F00C94742A0E949955F1E79E
:102440002F2EF2E03F2EAEEEEA2EA5E0FA2E00E0AF
:10245000D12C10E0E2C621110C947B2A0C94742A32
:10246000222311F40C94742A11E0029709F010E071
:102470000E94723282E50E941132882309F452C10F
:102480000E94AF316B017C014090EE055090EF054A
:102490006090F0057090F1052091F2053091F30500
:1024A0004091F4055091F5052BAF3CAF4DAF5EAFB9
:1024B0008091AB149091AC14A091AD14B091AE1476
:1024C00023968CAF9DAFAEAFBFAF23972091AF14D3
:1024D0003091B0144091B1145091B21427962CAFA2
:1024E0003DAF4EAF5FAF279720E030E0A901C701B5
:1024F000B6010E9483DA882309F4F5C4A30192018E
:1025000023966CAD7DAD8EAD9FAD23970E9483DA8F
:1025100081110FC02BAD3CAD4DAD5EAD27966CADBE
:102520007DAD8EAD9FAD27970E9483DA882309F495
:10253000DAC420E030E0A901C701B6010E9483DAC5
:10254000881F8827881F18130BC080E090E0A0E840
:10255000BFE367968CAF9DAFAEAFBFAF67970AC0C2
:1025600020E030E040E85FEB67962CAF3DAF4EAF28
:102570005FAF6797A301920123966CAD7DAD8EADE1
:102580009FAD23970E9499DE2F966CAF7DAF8EAFE3
:102590009FAF2F972BAD3CAD4DAD5EAD27966CAD8B
:1025A0007DAD8EAD9FAD27970E9499DE63966CAF8F
:1025B0007DAF8EAF9FAF63972F962CAD3DAD4EADE7
:1025C0005FAD2F97CA01B9010E94E8DA4B015C01A7
:1025D00063962CAD3DAD4EAD5FAD6397CA01B901B9
:1025E0000E94E8DA9B01AC01C501B4010E949ADEA9
:1025F0000E9405E12B966CAF7DAF8EAF9FAF2B97FE
:1026000020E030E040E05FE30E94E8DA4B015C014B
:10261000A7019601C701B6010E94E8DA6B017C01AF
:10262000A5019401C501B4010E94E8DA9B01AC0147
:10263000C701B6010E9499DE0E9405E19B01AC0131
:1026400067966CAD7DAD8EAD9FAD67970E94E8DA61
:102650004B015C0123962CAD3DAD4EAD5FAD239794
:10266000C301B2010E949ADE20E030E040E05FE367
:102670000E94E8DA6B017C0163966CAD7DAD8EAD96
:102680009FAD639790582B962CAD3DAD4EAD5FAD91
:102690002B970E9476DF9B01AC01C501B4010E941B
:1026A000E8DA9B01AC01C701B6010E949ADEA301E2
:1026B00092010E9499DE6B017C0127962CAD3DAD05
:1026C0004EAD5FAD27976BAD7CAD8DAD9EAD0E94DD
:1026D0009ADE20E030E040E05FE30E94E8DA2B0180
:1026E0003C012B962CAD3DAD4EAD5FAD2B972F969B
:1026F0006CAD7DAD8EAD9FAD2F970E9476DF9B01B7
:10270000AC01C501B4010E94E8DA9B01AC01C30130
:10271000B2010E949ADE2BAD3CAD4DAD5EAD0E9484
:1027200099DE14C089E40E941132882329F00E94A6
:10273000AF316B017C0103C0C12CD12C76018AE43E
:102740000E9411328823F9F00E94AF3127966CAFB6
:102750007DAF8EAF9FAF279720E030E0A901C70182
:10276000B6010E9483DA81111EC020E030E0A90189
:1027700027966CAD7DAD8EAD9FAD27970E9483DA15
:10278000811111C0B0C320E030E0A901C701B6013A
:102790000E9483DA882309F4A6C327961CAE1DAED7
:1027A0001EAE1FAE2797D701C601B0588BAF9CAFA6
:1027B000ADAFBEAF27962CAD3DAD4EAD5FAD27970B
:1027C000505823962CAF3DAF4EAF5FAF23979C017F
:1027D000AD01BC01CD010E94E8DA4B015C012396FA
:1027E0002CAD3DAD4EAD5FAD2397CA01B9010E943E
:1027F000E8DA9B01AC01C501B4010E949ADE0E9497
:1028000005E1A7966CAF7DAF8EAF9FAFA797809184
:10281000EE059091EF05A091F005B091F1052B9692
:102820008CAF9DAFAEAFBFAF2B97A7019601BC0198
:10283000CD010E949ADE67966CAF7DAF8EAF9FAFE1
:1028400067972091F2053091F3054091F40550917E
:10285000F50563962CAF3DAF4EAF5FAF63972796FC
:102860002CAD3DAD4EAD5FAD279763966CAD7DADA4
:102870008EAD9FAD63970E949ADE6B966CAF7DAF75
:102880008EAF9FAF6B978091AB149091AC14A091D9
:10289000AD14B091AE146F968CAF9DAFAEAFBFAF1D
:1028A0006F9767962CAD3DAD4EAD5FAD6797BC01A0
:1028B000CD010E9499DE6B017C012091AF14309113
:1028C000B0144091B1145091B214A3962CAF3DAF07
:1028D0004EAF5FAFA3976B962CAD3DAD4EAD5FADE8
:1028E0006B97A3966CAD7DAD8EAD9FADA3970E9407
:1028F00099DE4B015C018091F6059091F705A0915E
:10290000F805B091F905AF968CAF9DAFAEAFBFAFF4
:10291000AF979C01AD016091B3147091B414809194
:10292000B5149091B6140E9499DE2F966CAF7DAFCE
:102930008EAF9FAF2F972091B7143091B81440916C
:10294000B9145091BA14AB962CAF3DAF4EAF5FAFF8
:10295000AB978091FA059091FB05A091FC05B09191
:10296000FD05E3968CAF9DAFAEAFBFAFE397A70178
:1029700096016BAD7CAD8DAD9EAD0E94E8DA2B016A
:102980003C01A501940123966CAD7DAD8EAD9FAD4C
:1029900023970E94E8DA9B01AC01C301B2010E94B7
:1029A0009ADE2B013C01A50194016BAD7CAD8DAD90
:1029B0009EAD0E94E8DA4B015C01A70196012396C7
:1029C0006CAD7DAD8EAD9FAD23970E94E8DA9B0183
:1029D000AC01C501B4010E9499DEA30192010E94DD
:1029E0000DDF6B017C0120E030E0A9010E9483DA59
:1029F00087FF0AC02BED3FE049EC50E4C701B60168
:102A00000E949ADE6B017C01112351F02BED3FE017
:102A100049EC50E4C701B6010E9499DE6B017C01CC
:102A200020E030E0A901C701B6010E9483DA8111DC
:102A300028C06F962CAD3DAD4EAD5FAD6F972B9618
:102A40006CAD7DAD8EAD9FAD2B970E9483DA811169
:102A500018C0A3962CAD3DAD4EAD5FADA397639668
:102A60006CAD7DAD8EAD9FAD63970E9483DA811111
:102A700008C01BEDC12E1FE0D12E19ECE12E10E491
:102A8000F12EA7962CAD3DAD4EAD5FADA797C7011A
:102A9000B6010E94E8DA9B01AC010E94E8DA4B0122
:102AA0005C012F962CAD3DAD4EAD5FAD2F97CA01A9
:102AB000B9010E94E8DA9B01AC01C501B4010E9492
:102AC0009ADE0E9405E14B015C012FE632E143E80A
:102AD0005AE30E9483DA87FD02C2C501B4010E9455
:102AE0000FE00E94E3DF1B01672B19F422242394DB
:102AF000312CB10180E090E00E9487DA4B015C014B
:102B00009B01AC01C701B6010E9476DF2B966CAF2A
:102B10007DAF8EAF9FAF2B97A50194012F966CAD23
:102B20007DAD8EAD9FAD2F970E9476DFA7966CAFDF
:102B30007DAF8EAF9FAFA797E3962CAD3DAD4EAD69
:102B40005FADE397AB966CAD7DAD8EAD9FADAB97B2
:102B50000E9499DEA50194010E9476DFAB966CAFCE
:102B60007DAF8EAF9FAFAB972B962CAD3DAD4EADED
:102B70005FAD2B97CA01B9010E94E8DA20E030E08E
:102B800040E05FE30E94E8DA9B01AC0160E070E0A6
:102B900080E89FE30E9499DE6F966CAF7DAF8EAFA9
:102BA0009FAF6F97AF962CAD3DAD4EAD5FADAF977C
:102BB00029873A874B875C87E3968CAD9DADAEAD98
:102BC000BFADE3978D879E87AF87B88B6091230257
:102BD00070912402072E000C880B990B0E9489DA51
:102BE00020910002309101024091020250910302B3
:102BF0000E94E8DA2AE037ED43E25CE30E94E8DA7B
:102C000068A379A38AA39BA30E94AE3B9B01AC015E
:102C100028533F4F4F4F5F4FA3962CAF3DAF4EAF62
:102C20005FAFA3974BAC5CAC6DAC7EAC41E050E0C9
:102C300061965FAF4EAF619759E12C965FAF2C97CD
:102C40006196AEADBFAD6197A215B30509F437C16A
:102C50000E941EA80E94AE3BDC01CB01A3962CADC6
:102C60003DAD4EAD5FADA397821B930BA40BB50B8F
:102C7000B7FD10C00E94AE3B9B01AC0128533F4FF3
:102C80004F4F5F4FA3962CAF3DAF4EAF5FAFA397B3
:102C90000E944CBC2C963FAD2C9731502C963FAFE8
:102CA0002C97332309F44BC06F962CAD3DAD4EAD40
:102CB0005FAD6F9723966CAD7DAD8EAD9FAD2397C5
:102CC0000E94E8DA6B017C012B962CAD3DAD4EAD38
:102CD0005FAD2B97B201C3010E94E8DAA70196010C
:102CE0000E949ADE6B017C016F962CAD3DAD4EAD1E
:102CF0005FAD6F97B201C3010E94E8DA4B015C013E
:102D00002B962CAD3DAD4EAD5FAD2B9723966CADA4
:102D10007DAD8EAD9FAD23970E94E8DA9B01AC019B
:102D2000C501B4010E9499DE2B013C01C601D70107
:102D300023968CAF9DAFAEAFBFAF23975DC06196BA
:102D40004EAD5FAD6197BA0180E090E00E9487DAF6
:102D50002B962CAD3DAD4EAD5FAD2B970E94E8DAC2
:102D60004B015C010E9473DF6B017C01C501B40162
:102D70000E94FBE04B015C01A70196016BAD7CADAD
:102D80008DAD9EAD0E94E8DA2B013C01A5019401B6
:102D900027966CAD7DAD8EAD9FAD27970E94E8DA8A
:102DA0009B01AC01C301B2010E949ADE2B013C01E0
:102DB000A50194016BAD7CAD8DAD9EAD0E94E8DAAE
:102DC0004B015C01A701960127966CAD7DAD8EADE0
:102DD0009FAD27970E94E8DA9B01AC01C501B401C1
:102DE0000E9499DE23966CAF7DAF8EAF9FAF239785
:102DF00059E12C965FAF2C979201A30167966CADB9
:102E00007DAD8EAD9FAD67970E949ADE69837A8310
:102E10008B839C8323962CAD3DAD4EAD5FAD239748
:102E20006B966CAD7DAD8EAD9FAD6B970E949ADEBB
:102E30006D837E838F839887A7962CAD3DAD4EAD75
:102E40005FADA79769857A858B859C850E949ADE00
:102E500069877A878B879C87AB962CAD3DAD4EAD4D
:102E60005FADAB976D857E858F8598890E949ADED0
:102E70006D877E878F87988B80917002882321F0E1
:102E8000CE0101960E94A7BAE12C8E01005E1F4F71
:102E90009E01235F3F4FAE01475F5F4FBE016B5FF7
:102EA0007F4FCE0101960E94636E61968EAD9FADFD
:102EB0006197019661969FAF8EAF6197C1CEE12C6D
:102EC0008E01005E1F4F27EB34E143EB54E16FEAC4
:102ED00074E18BEA94E10E94636E0E944C330E947D
:102EE00056330C94742AEEE4F0E284918F010F5F64
:102EF0001F4F882321F00E946133F801F6CFE8EFDD
:102F0000F1E084918F010F5F1F4F882311F40C941F
:102F1000742A0E946133F801F4CF80E50E941132D7
:102F2000882329F00E946F316B017C0103C0C12C02
:102F3000D12C760183E50E941132882361F00E9432
:102F4000AF3120E030E04AE754E40E94E8DA0E9422
:102F5000E3DF6B017C010E94995580912E02811163
:102F600005C060E08EE092E00E942D400E94563342
:102F70008091A3149091A414A091A514B091A614CB
:102F8000C80ED91EEA1EFB1E0E94AE3BDC01CB011F
:102F90008C199D09AE09BF09B7FD02C00C94742AB3
:102FA0000E944CBCF1CF0E949955809100029091F3
:102FB0000102A0910202B09103028093E504909374
:102FC000E604A093E704B093E80480912302909173
:102FD00024029093E4048093E30484E690E09093C9
:102FE0002402809323020E94563381E080935E1175
:102FF00088E50E94E231E82E89E50E94E231082F3F
:103000008AE50E94E231F82EE11005C0011105C0E9
:1030100011E0182705C0011102C010E001C0182FEF
:1030200080E1EEEEF5E0ABEAB4E101900D928A9515
:10303000E1F7111105C0E11003C0002309F492C0AB
:103040001092B3141092B4141092B5141092B614D6
:1030500020E030E0A9016091F6057091F7058091BC
:10306000F8059091F9050E9483DA87FF68C02091E6
:1030700000023091010240910202509103022BAFF5
:103080003CAF4DAF5EAFECE5F1E2459055906590F9
:10309000749040920002509201026092020270927B
:1030A00003021092F6051092F7051092F80510929F
:1030B000F9050E946F3085E595E5A5E0B3E48093BE
:1030C000000290930102A0930202B09303020E94B7
:1030D0006F308090B3149090B414A090B514B09059
:1030E000B614A50194016091F6057091F7058091E1
:1030F000F8059091F9050E94C0E0181694F44092EA
:1031000000025092010260920202709203028092C9
:10311000F6059092F705A092F805B092F9050E9485
:103120006F300E9499558BAD9CADADADBEAD809317
:10313000000290930102A0930202B09303021111C6
:1031400005C0E11003C0011107C00CC080E090E091
:103150000E9416BB1123B9F381E090E00E9416BBD8
:10316000111102C0FF2021F082E090E00E9416BB06
:103170000E94FB3080915D1180935E118091E50487
:103180009091E604A091E704B091E80480930002D6
:1031900090930102A0930202B09303028091E30492
:1031A0009091E40490932402809323020E9456336A
:1031B00083E080932C020E9479380C94742A109238
:1031C000E2040C94742A81E08093E2040C94742A43
:1031D0000E94AF312B013C01F701208131814281F6
:1031E00053810E9499DE4B015C012DEB37E346E8E9
:1031F00055EB0E94C0E087FD18C02DEB37E346E891
:1032000055E3C501B4010E9483DA181674F01F5FFC
:10321000B4E0EB0EF11C1430A9F0D1018D911D0129
:103220000E941132882399F3D3CF133019F0DD2493
:10323000D39401C001E0D7014D925D926D927C92D2
:103240001397E5CFDD2019F00E94FB3037C0002333
:10325000A9F1C090FA05D090FB05E090FC05F09034
:10326000FD05209137083091380840913908509178
:103270003A08C701B6010E94E8DA0E94CBE06093E9
:103280005711709358118093591190935A11C70197
:10329000B6010E94DEDF2FB7F8946093A70D7093FC
:1032A000A80D8093A90D9093AA0D2FBF10924711DE
:1032B000109248111092491110924A110E947938C7
:1032C0000C94742A809121159091221581379105D3
:1032D00009F4F7C50CF0D5C08B34910509F409C584
:1032E0000CF066C08831910509F492C2ECF5823188
:1032F000910509F4ECC6FCF497FF02C00C94742A03
:10330000823091050CF49CC1419711F00C94742A01
:1033100060E085E492E00E942D404298179815984D
:103320002E989FB7F89480910B018D7F80930B01AD
:103330009FBF0C94742A8531910509F44EC23CF468
:10334000449711F00C94742AEDE5F2E003C2863143
:10335000910509F446C2479711F00C94742AE09144
:103360001F15F091201547C28C31910509F46DC2EB
:1033700064F48A31910509F456C20CF062C21092CD
:103380008D110E94B5AC0C94742A8F31910509F40B
:10339000CAC32CF44E9709F462C20C94742A80328A
:1033A000910509F474C38A9709F463C40C94742AD0
:1033B0008836910509F4A9C40CF044C08235910502
:1033C00009F47CC634F58D34910509F49AC40CF4E3
:1033D00094C48135910511F00C94742A0E946FA554
:1033E0000E9499550E94F6BB1092D60E1092D50EEF
:1033F00068EE73E080E090E00E948A3F0E94995559
:103400000E94833060E086EA93E00E942D400C9495
:10341000742A8435910509F45AC60CF453C68535CF
:10342000910509F48BC68C35910511F00C94742A22
:1034300091E7C92E92E0D92E2BE2E22E28E0F22E5F
:1034400010E097C68C36910509F437C53CF48A36EE
:10345000910509F4FCC50CF47CC51EC68E36910599
:1034600009F4A7C40CF4B9C58F36910509F4B4C4A6
:103470008037910511F00C94742A83E593E00E9443
:10348000FFBB8D3C910511F40C94D3240CF05CC06F
:103490008139910509F4F7C74CF58637910509F490
:1034A00042C7A4F48337910509F4E9C60CF4E1C6D8
:1034B0008537910511F00C94742A60E080911F15F6
:1034C000909120150E944B400C94742A88379105E6
:1034D00009F4CCC70CF466C78937910509F4CDC748
:1034E0008C38910509F419C50C94742A8E3B91050A
:1034F00009F491C584F4833A910511F40C94BB222C
:10350000843A910511F40C9406238B39910511F03E
:103510000C94742A3BC5893C910511F40C942B241E
:103520003CF4883C910511F40C94E5230C94742A26
:103530008B3C910511F40C944C248C3C910511F4B6
:103540000C9469240C94742A8336E1E09E0711F4EC
:103550000C94BC29B4F5823E910511F40C940D260F
:103560009CF48C3D910511F40C94B9258D3D910589
:1035700011F40C94C625833D910511F00C94742A26
:10358000E6E7F0E20C943E258D3221E0920711F43B
:103590000C9439263CF48C32914011F40C94102692
:1035A0000C94742A8F3251E0950711F40C943C2648
:1035B0008033914011F00C94742A0E9468330C946B
:1035C000742A843FB1E09B0711F40C94B329DCF416
:1035D0008839F1E09F0781F14CF48039914011F076
:1035E0000C94742A0E9499550C94742A893941E0EC
:1035F0009407F1F08A39914011F00C94742A0E94DA
:10360000F0320C94742A863FA1E09A0711F40C94CE
:10361000B92914F40C94B629803AE3E09E0709F422
:1036200075C2873E934011F40C94F9290C94742AC6
:1036300006EF12E00C94A52907E113E00C949629FB
:10364000A0901F15B090201580E50E9411328823AC
:1036500059F00E946F316B017C0111E0672B682BE0
:10366000692B31F410E004C010E0C12CD12C76019C
:1036700083E50E9411328823F1F00E94AF3120E0EF
:1036800030E04AE754E40E94E8DA0E94E3DF6B018D
:103690007C01111112C0672B682B692B71F4A114E6
:1036A000B10459F0D5018C91882339F061E0C5014E
:1036B0000E944B4007C0112391F360E082E392E047
:1036C0000E942D4083E090E090939B1480939A1485
:1036D00081E08093FF070E9499550E945633C114E0
:1036E000D104E104F104E9F08091A3149091A414B1
:1036F000A091A514B091A614C80ED91EEA1EFB1EF7
:103700000E94AE3BDC01CB018C199D09AE09BF09BB
:10371000B7FF1CC08091FF078823C1F00E944CBCFA
:10372000EFCF8091FF07882319F00E944CBCF9CF9E
:1037300080917D1190917E1160E0029719F486E2EC
:1037400092E002C087E192E00E942D401092FF07B4
:103750000C94742A84918F010F5F1F4F882321F0EE
:103760000E946133F801F6CF1092131410921214D4
:1037700040E050E0BA0186EC91E10E948A998BE129
:10378000E6ECF1E1DE01159601900D928A95E1F7E4
:103790008091C4119091C5119C838B838FEC92E032
:1037A0009A83898340E050E0BE016F5F7F4F83E6DC
:1037B00094E00E94D1B3CE0101960E94E4BBEEE4F6
:1037C000F2E084918F010F5F1F4F882311F40C9456
:1037D000742A0E946133F801F4CF0E94A0AA0C94CD
:1037E000742A10928D1110928E110C94742A8032CA
:1037F00009F41082319680818111F9CF40E061E0B7
:1038000080911F15909120150E940DB60C94742A7A
:1038100080918E11882319F081E080938D110E9490
:1038200075AC0C94742A80918E11882311F40C9439
:10383000742A83E50E94113281110C940B2B0C9495
:10384000742A0E94CFAC0C94742A40E060E080910E
:103850001F15909120150E940DB60C94742A80912A
:103860008E11882311F40C94742A80E693E10E944F
:10387000A14B80E693E10E94C39A10928C111092A2
:103880008B11E0901F15F090201580918E118823E8
:1038900011F40C94742A0E9475B91D8218861C823A
:1038A0001B828FEC92E09A83898382EC91E1909362
:1038B000E2118093E111F70180818F3209F068C035
:1038C0006FE270E0C7010E94EFE18C010F5F1F4FB4
:1038D0009E012F5F3F4F49010115110509F45EC09C
:1038E0006FE270E0C8010E94EFE16C01009709F4FB
:1038F00056C00817190708F052C05C01A01AB10A97
:10390000A501B801CE0180960E9418E2E0E2F0E045
:10391000EC0FFD1FEA0DFB1D10828E01005E1F4F94
:10392000D8018D918D01882319F00E946133F8CF61
:103930008AE00E9461336091E1117091E21161159A
:10394000710511F06C5F7F4F21E0AE01405E5F4F6B
:10395000CE0105960E9433A0811112C0BE01605EA7
:103960007F4F84E992E00E94E46C8EE20E94613312
:103970008AE00E946133C4010E94E4BB0C94742A63
:103980009092E2118092E11186010F5F1F4FA4CF48
:1039900083EE91E19093E2118093E11187016091B0
:1039A000E1117091E2116115710511F06C5F7F4FAB
:1039B00018A21BA222E0A801CE0180960E9433A08B
:1039C000811102C0F12C1EC0CE0180960E94E3B886
:1039D0008823C1F36CA57DA58EA59FA541E00E941B
:1039E0009049882379F3E8A9B0E2EB9FF001112414
:1039F000E651F14F309731F385EE80831BA20E9490
:103A00005049F82ECE0180960E94E132FF2009F144
:103A1000EEE6F2E084917F012FEFE21AF20A8823AA
:103A200021F00E946133F701F5CFD8018D918D010E
:103A3000882319F00E946133F8CF8AE00E94613335
:103A40001092BE111092BF111092C0111092C111AC
:103A500018C0ECE7F2E084917F01BFEFEB1AFB0A9C
:103A6000882321F00E946133F701F5CFF80181919D
:103A70008F01882319F00E946133F8CF8EE20E94F3
:103A80006133CE0101960E94E4BB0C94742A8091AC
:103A90008D1181110E94995580918E11882311F406
:103AA0000C94742A80E50E941132882319F00E9438
:103AB000A03103C080E50E94E231182F482F61E059
:103AC00080911F15909120150E940DB683E50E94EC
:103AD0001132882381F00E947F31AB01BC014093F9
:103AE000BE115093BF116093C0117093C11180E655
:103AF00093E10E948A9980918E11882319F081E0C8
:103B000080938D1111110C94742A89CE80911F1508
:103B10009091201521E020938C1140E060E00E94FC
:103B20000DB60C94742A0E946ABAECE3CE2ED12C06
:103B3000E12CF12CA70196010E945EDE762E672E05
:103B4000CA01B901A70196010E945EDE6B017C01EA
:103B5000CA01B90128E130E040E050E00E945EDE99
:103B60004B015C01C9016DE671E00E945EE18E01CE
:103B70000F5F1F4F6115710599F06F927F92DF9271
:103B8000CF929F928F929F938F937F936F9380EDAD
:103B900092E09F938F931F930F930E941CDA12C0A1
:103BA0000097B1F06F927F92DF92CF929F928F92A7
:103BB0009F938F9380EC92E09F938F931F930F932B
:103BC0000E941CDA0FB6F894DEBF0FBECDBF36C020
:103BD00081149104A104B10479F06F927F92DF9275
:103BE000CF929F928F9284EB92E09F938F931F933B
:103BF0000F930E941CDAE6CFC114D104E104F10452
:103C000069F06F927F92DF92CF928CEA92E09F935D
:103C10008F931F930F930E941CDAD4CF6F927F92E1
:103C200088EA92E09F938F931F930F930E941CDA70
:103C30000F900F900F900F900F900F9060E0C801C1
:103C40000E944B40E6E7F0E284917F01BFEFEB1A60
:103C5000FB0A882321F00E946133F701F5CFB801F8
:103C600084EE92E00E94E46C8AE00E9461330C943E
:103C7000742A83E50E941132882311F40C94742A6B
:103C80000E948F31E82E80E50E941132882341F096
:103C90000E947F318B0177FF02C00C94742A02C00E
:103CA00006E010E0902FE1EFF2E08BE28E0F24911E
:103CB000921729F031968E13FACF0C941B2BEEE459
:103CC000F0E284918F010F5F1F4F882321F00E9443
:103CD0006133F801F6CFECE1F3E084918F010F5FDF
:103CE0001F4F882311F40C94742A0E946133F80149
:103CF000F4CF0E9475AC0C94742A0E94B5AC0C945D
:103D0000742A0E9480B90C94742A88E690E00E947C
:103D1000753781110C94742A8091DE0D83FF02C0E7
:103D20000C94742A83E50E941132882309F43DC063
:103D30000E94AF310E94DEDF7093DA0E6093D90EDD
:103D40000E94AF3120E030E04AEA52E40E9483DA78
:103D500018163CF00E9480B960E082E393E00E9474
:103D60002D400E94AF312091230E3091240E4091BE
:103D7000250E5091260E0E94C0E01816B4F487E379
:103D800093E09F938F9380917A0E90E001969F939A
:103D90008F938BE293E09F938F931F920E945AAC74
:103DA0000FB6F894DEBF0FBECDBF0E941BD00C949F
:103DB000742A8EE40E941132882311F40C94742A20
:103DC0000E947F316093E60E7093E70E8093E80EB9
:103DD0009093E90E0C94742A83E50E94E2318823C3
:103DE00059F083E50E941132882319F00E948F3127
:103DF00001C080E08093DE0DE6E7F0E284918F0160
:103E00000F5F1F4F882321F00E946133F801F6CF26
:103E1000ECE4F3E084918F010F5F1F4F882321F0C2
:103E20000E946133F801F6CF8091DE0D8823A1F165
:103E30005EE3C52E53E0D52EE12CF12C20E08091DD
:103E4000DE0D90E00E2C02C0959587950A94E2F75E
:103E500080FF17C0BB24B394B20E222319F08CE26A
:103E60000E946133F60125913491F9018491890111
:103E70000F5F1F4F882321F00E9461339801F5CF17
:103E80002B2DFFEFEF1AFF0A32E0C30ED11C45E0E5
:103E9000E416F104A1F60CC0E8E4F3E084918F018C
:103EA0000F5F1F4F882321F00E946133F801F6CF86
:103EB0008AE00E9461330C94742A10922D020C94B3
:103EC000742A83E50E941132882369F00E948F31A1
:103ED0008D3320F480936B020C94742A8CE38093CE
:103EE0006B020C94742AE6E7F0E284918F010F5F75
:103EF0001F4F882321F00E946133F801F6CF4091D3
:103F00006B0250E060E070E08CE593E00E94F75EA9
:103F10008AE00E9461330C94742A8091DE0D83FF45
:103F200002C00C94742A83E50E941132882311F494
:103F30000C94742A0E94AF310E94DEDF673971054C
:103F400014F066E970E07093D80E6093D70E0C946D
:103F5000742A89E690E00E947537811111C0E3E66A
:103F6000F3E084918F010F5F1F4F882321F00E949F
:103F70006133F801F6CF0E94E3A48AE00E94613326
:103F800010929B1410929A140C94CA2F83E50E94ED
:103F90001132882311F40C94742A0E948F31182F47
:103FA0008D3308F01CE31093A0140E94AE3B6B010C
:103FB0007C01212F30E0A8EEB3E00E948ADEC60E1D
:103FC000D71EE81EF91EC0929C14D0929D14E09258
:103FD0009E14F0929F140C94742A8DE690E00E9437
:103FE000753781110C94742A8091DE0D83FF02C015
:103FF0000C94742A83E50E94113224968FAF249783
:1040000081110C94312B82E50E94113281110C94A4
:10401000312B0C94742A8091DE0D83FF02C00C9426
:10402000742A60E089E993E00E942D4083E50E94B4
:10403000113224968FAF249781110C94B92C82E50C
:104040000E94113281110C94B92C0C94742A80E5D1
:104050000E941132811108C083E50E941132811142
:1040600009C03FEF20E00AC00E948F3181110C94FB
:10407000742AF2CF0E947F31362F272F832F922F61
:104080008F3F910519F010F08FEF90E09093D60ECE
:104090008093D50E0C94742A80E50E941132811110
:1040A00006C01092D60E1092D50E0C94742A0E945F
:1040B0007F31672B11F00C94742AF3CF1092E10436
:1040C0000C94742A81E08093E1040C94742A83E5B3
:1040D0000E9411328823A1F00E94AF3120E030E02D
:1040E0004AE754E40E94E8DA0E94E3DF60936C023E
:1040F00070936D0280936E0290936F020C94742AF9
:1041000088E50E94E23181110C94152E89E50E9408
:10411000E23181110C94152E8AE50E94E231811161
:104120000C94152E85E40E94E23181110C94152E19
:104130000E9499550E94F6BB0C94742A83E50E9454
:10414000E231882311F40C94742A0E94AF3120E0EC
:1041500030E04AE754E40E94E8DA0E94E3DF60932B
:10416000A7147093A8148093A9149093AA140C9484
:10417000742AD6018D916D010E94E231882309F4E1
:104180006DC0133009F063C00E94AF314B015C0178
:1041900020E030E040EA51E40E9483DA87FF4EC01D
:1041A000A501940160913708709138088091390811
:1041B00090913A080E9476DF2B013C019B01AC01F3
:1041C00060912708709128088091290890912A0809
:1041D0000E94E8DA609327087093280880932908E2
:1041E00090932A08A30192016091D7147091D8147A
:1041F0008091D9149091DA140E94E8DA6093D71470
:104200007093D8148093D9149093DA146091EB0DC5
:104210007091EC0D8091ED0D9091EE0D0E9487DA7A
:10422000A30192010E94E8DA0E94E3DF6093EB0DA4
:104230007093EC0D8093ED0D9093EE0D8092370806
:1042400090923808A0923908B0923A0807C00E94AC
:10425000AF31F70160837183828393831F5FF4E042
:10426000EF0EF11C143009F084CF0E94396E0C94CB
:10427000742A0E9499550E9479380C94742AE7E6B2
:10428000F4E084918F010F5F1F4F882321F00E947B
:104290006133F801F6CF60E087E594E00E94C9370A
:1042A00061E080E594E00E94C93761E085E494E034
:1042B0000E94C93761E085E394E00E94C93760E05D
:1042C0008CE294E00E94C93761E082E294E00E94AF
:1042D000C93760E088E194E00E94C93760E080E17E
:1042E00094E00E94C93760E082E094E00E94C93700
:1042F00060E084EF93E00E94C93760E085EE93E0D0
:104300000E94C93761E087ED93E00E94C93761E000
:1043100081EC93E00E94C93760E080EB93E00E945B
:10432000C9370C94742A85E40E941132882319F04D
:104330000E94A03103C085E40E94E231882361F02D
:10434000E6E7F0E284918F010F5F1F4F882321F091
:104350000E946133F801F6CF81E40E941132882374
:1043600019F00E94A03103C081E40E94E231882349
:1043700061F0E7E2F5E084918F010F5F1F4F882322
:1043800021F00E946133F801F6CF00911F151091C2
:104390002015D8018D918D01882309F489CD0E94C3
:1043A0006133F7CFE3E4F5E084918F010F5F1F4F96
:1043B000882321F00E946133F801F6CFEBE3F5E0AA
:1043C00084918F010F5F1F4F882321F00E9461337A
:1043D000F801F6CF029B03C003EE12E002C008EE24
:1043E00012E0F80181918F01882319F00E94613356
:1043F000F8CF8AE00E946133E3E3F5E084918F0116
:104400000F5F1F4F882321F00E946133F801F6CF20
:10441000069B03C003EE12E002C008EE12E0D801D2
:104420008D918D01882319F00E946133F8CF8AE0C5
:104430000E946133EBE2F5E084918F010F5F1F4F23
:10444000882321F00E946133F801F6CF379B03C027
:1044500003EE12E002C008EE12E0F80181918F0134
:10446000882309F425CD0E946133F7CF81E0809342
:104470005E1180935D110C94742A10925E1110925B
:104480005D110C94742A83E50E941132882319F07F
:104490000E947F3102C060E070E08B011127023082
:1044A0001105D4F0EEE4F0E284918F010F5F1F4F0D
:1044B000882321F00E946133F801F6CFEDE5F5E0A5
:1044C00084918F010F5F1F4F882311F40C94742A7D
:1044D0000E946133F801F4CF88E40E9411328823EE
:1044E000A9F00E947F316A3A71053CF06530F1E035
:1044F0007F072CF064E071E002C06AEA70E0F80126
:10450000EE0FFF1FE75FF14F7183608386E40E9427
:1045100011328823A9F00E947F31F801EE0FFF1FAE
:10452000E35FF14F718360836F3F710519F014F001
:104530006FEF70E077FF02C060E070E0718360832E
:1045400082E40E941132882309F4CEC70E947F3191
:104550006530710534F0683871052CF067E870E05B
:1045600002C065E070E0000F111FF801EB5FF14F32
:1045700071836083B9C783E50E941132882341F0BB
:104580000E947F318B01623071050CF0ADC702C013
:1045900000E010E080E50E941132882359F00E946B
:1045A000AF316B017C0120E030E0A9010E9483DA89
:1045B00087FF04C060E070E0CB011CC02DEB37E347
:1045C00046E855EBC701B6010E94C0E087FD0AC06E
:1045D0002DEB37E346E855E3C701B6010E9483DAC5
:1045E000181644F7A701960160E070E080E89FE3A9
:1045F0000E9476DF000F111F000F111FF801EC5908
:10460000FA4F60837183828393836EC783E50E9430
:104610001132882341F00E947F318B016031710596
:104620000CF062C702C000E010E0C0906405D090BA
:104630006505E0906605F09067052DEB37E346E8E9
:1046400055EBC701B6010E94C0E087FF09C0A70172
:10465000960160E070E080E89FE30E9476DF0DC085
:104660002DEB37E346E855E3C701B6010E9483DA34
:1046700018166CF360E070E0CB0120E030E0A90197
:104680000E949ADE4B015C01C0906805D0906905DC
:10469000E0906A05F0906B052DEB37E346E855EBAB
:1046A000C701B6010E94C0E087FF0BC0A7019601B9
:1046B00060E070E080E89FE30E9476DF9B01AC0140
:1046C0000DC02DEB37E346E855E3C701B6010E9464
:1046D00083DA18165CF320E030E0A901C501B401CB
:1046E0000E949ADE4B015C0120E030E040E85FE38D
:1046F0000E9499DE6B017C012DEB37E346E855EB18
:104700000E94C0E087FF03C0EFE7F5E00EC02DEB8D
:1047100037E346E855E3C701B6010E9483DA18166D
:104720009CF332C00E946133F70184917F012FEF27
:10473000E21AF20A8111F6CFA50194016091640595
:104740007091650580916605909167050E94E8DA91
:104750006093640570936505809366059093670583
:10476000A5019401609168057091690580916A05C1
:1047700090916B050E94E8DA609368057093690573
:1047800080936A0590936B05E3E0000F111FEA9593
:10479000E1F7F801E459FA4F8091640590916505BD
:1047A000A0916605B091670580839183A283B3834E
:1047B0008091680590916905A0916A05B0916B059B
:1047C00084839583A683B7838FC688EC90E00E948C
:1047D0007537811189C684E40E94E2318823C1F1D2
:1047E0000E94AF3111E020E030E0A9010E9483DA9D
:1047F000811101C010E010934008112349F10E947B
:10480000AF31E0917A0E34E0E39FF0011124E45CD3
:10481000F74F608371838283938320E030E0A901A6
:1048200060913C0870913D0880913E0890913F084E
:104830000E9483DA81110CC080E090E0A0EEBFE31B
:1048400080933C0890933D08A0933E08B0933F08A6
:104850000E94858049C66BEDE62E64E1F62E01E7E5
:1048600012E074E0D72ED00ED8018D918D010E94F8
:10487000E231882349F00E94AF310E94E3DFF70163
:104880006083718382839383F4E0EF0EF11CD01276
:10489000EBCF0E940C6D28C64BECE42E44E1F42EC5
:1048A00001E712E054E0D52ED00ED8018D918D0194
:1048B0000E94E231882339F00E94AF31F701608312
:1048C000718382839383F4E0EF0EF11CD012EDCF5D
:1048D0000BC683E50E94E2318823D9F00E94AF31F4
:1048E000AB01BC014093F3145093F4146093F5149E
:1048F0007093F6144093EB145093EC146093ED1402
:104900007093EE148CE096E00E94AE6C8AE00E94F8
:10491000613380E50E94E231882399F00E94AF3133
:10492000AB01BC014093F3145093F4146093F5145D
:104930007093F6148FEE95E00E94AE6C8AE00E94B0
:10494000613382E50E94E231882399F00E94AF3101
:10495000AB01BC014093EF145093F0146093F11439
:104960007093F21480ED95E00E94AE6C8AE00E9494
:10497000613384E50E94E231882309F4B5C50E94C1
:10498000AF31AB01BC014093EB145093EC14609336
:10499000ED147093EE1482EB95E00E94AE6C8AE009
:1049A0000E946133A1C583E50E94E231882351F062
:1049B0000E94AF316093C7147093C8148093C914D8
:1049C0009093CA1484E50E94E231882351F00E943A
:1049D000AF316093C3147093C4148093C514909343
:1049E000C61482E40E94E231882351F00E946F31A4
:1049F0006093DA0D7093DB0D8093DC0D9093DD0DE9
:104A000088E50E94E231882351F00E94AF31609323
:104A10001B0870931C0880931D0890931E0889E55D
:104A20000E94E231882351F00E94AF3160931F0849
:104A30007093200880932108909322088AE50E94B1
:104A4000E231882351F00E94AF31609323087093C4
:104A50002408809325089093260885E40E94E2317B
:104A6000882309F441C50E94AF31609327087093F1
:104A700028088093290890932A0836C584918F01CD
:104A80000F5F1F4F882321F00E946133F801F6CF9A
:104A900083E50E94E231882321F00E94A0318093B7
:104AA0007002ECE5F6E084918F010F5F1F4F8823C1
:104AB00021F00E946133F801F6CF809170028111DC
:104AC00003C0E8E5F6E002C0E4E5F6E084918F017A
:104AD0000F5F1F4F882321F00E946133F801F6CF4A
:104AE000ECE4F6E084918F010F5F1F4F882321F0E3
:104AF0000E946133F801F6CF40E050E0BA018AE449
:104B000096E00E94AE6C40E050E0BA0187E496E087
:104B10000E94AE6C40E050E0BA0184E496E00E944E
:104B2000AE6CECE3F6E084918F010F5F1F4F88239A
:104B300021F00E946133F801F6CF40E050E06CE5CF
:104B400073E48AE396E00E94AE6C40E050E06CE5CE
:104B500073E487E396E00E94AE6C40E050E062E8C8
:104B600073E484E396E00E94AE6C8AE00E946133B5
:104B7000BBC483E50E941132882309F4B5C40E94A6
:104B80007F317093240260932302AEC48DED90E0D8
:104B90000E9475378111A8C483E50E9411328823D1
:104BA00009F4A2C400917A0E10E00E947F31000F38
:104BB000111FF801EF5DFD4F7183608380917A0EC4
:104BC00090E08C01000F111F000F111F9801235E50
:104BD0003D4F7901880F991FFC01EF5DFD4F60810A
:104BE0007181072E000C880B990B0E9489DA2AE04C
:104BF00037ED43E25CE30E94E8DAF801E65AF14F50
:104C000020813181428153810E94E8DAD7016D937E
:104C10007D938D939C93139767C40E941D3264C447
:104C200083E50E941132882319F00E947F3102C06F
:104C300064E071E079A368A380E50E9411328823C3
:104C400039F00E947F316938B3E17B0730F402C04C
:104C500068EE73E07A83698304C088E893E19A83FD
:104C60008983BE01605E7F4FCE0101960E9427AC12
:104C70003BC40E94DF3338C485E40E94113288238C
:104C800021F00E947F317B0102C0E12CF12C83E4F2
:104C90000E941132882331F00E947F31EA966FAF73
:104CA000EA9704C025E0EA962FAFEA9785E50E94CF
:104CB0001132882319F00E94A03103C085E50E94BB
:104CC000E231CC57DF4F8883C458D040F7FC07C08F
:104CD000812C912C06E1A02E03E4B02E06C0812C7D
:104CE000912C1CE8A12E12E4B12E83E50E94113212
:104CF000882321F00E94AF314B015C01E114F104E3
:104D000011F410927A0E0E94AE3B2B013C0181E01F
:104D10008E0D823018F402E413E00BC005E513E0B9
:104D2000D8018D918D01882309F4C2C80E94613396
:104D3000F7CFF80181918F01882319F00E94613328
:104D4000F8CFEBAE8AE00E9461330E946FA5FBAD05
:104D5000F7FF04C08FE78093790E07C0EE2DEE0CAD
:104D6000FF0BE858F14F8FE78083C501B4010E9423
:104D7000DEDF072E000C880B990B0E9489DA6496FF
:104D80006FAF649768967FAF68976C968FAF6C979C
:104D9000A0969FAFA09781E080932D02C458DF4F6B
:104DA000488259826A827B82CC57D040CB57DF4FF2
:104DB000488259826A827B82C558D040AC961FAE29
:104DC000AC9720E4E0962FAFE0973CE1A4963FAF8C
:104DD000A49746E4A8964FAFA897E4961FAEE49731
:104DE000E5961FAEE597E6961FAEE697E7961FAEEF
:104DF000E79763961CAE1DAE1EAE1FAE63972F964F
:104E00001CAE1DAE1EAE1FAE2F97C12CD12C76014D
:104E1000AFE78A2E912CA12CB12C8FE790E0A0E077
:104E2000B0E027968CAF9DAFAEAFBFAF2797C0580D
:104E3000DF4F188219821A821B82C058D04091E03D
:104E4000EC969FAFEC9729961FAE1EAE299710E007
:104E5000212C312C00E0ABAD8A2FAA0F990BFC015D
:104E6000E858F14FC757DF4FF983E883C958D0405E
:104E7000880F991F880F991F9C012D5D314FE9966E
:104E80003FAF2EAFE997EA964FADEA97042E000C9C
:104E9000550BEB965FAF4EAFEB9780912D028823B9
:104EA00009F424C10E94AE3B23966CAF7DAF8EAF58
:104EB0009FAF23978091760E882309F4F3C00E9458
:104EC000FCA75BAD57FF09C01091270E2090280E5C
:104ED0003090290E00912A0E0DC0E996AEADBFADFF
:104EE000E9971C9111962C90119712963C9012976D
:104EF00013960C91212F322D432D502FE4966FAD38
:104F0000E497E5967FADE597E6968FADE697E79651
:104F10009FADE7970E9483DA87FF0CC0E4961FAF2E
:104F2000E497E5962FAEE597E6963FAEE697E796CF
:104F30000FAFE797212F322D432D502FAC966FAD39
:104F4000AC97E0967FADE097A4968FADA497A89616
:104F50009FADA8970E94C0E0181664F4AC961FAFEE
:104F6000AC97E0962FAEE097A4963FAEA497A89694
:104F70000FAFA897EC96BFADEC9764962FAD6497F2
:104F800068963FAD68976C964FAD6C97A0965FADF5
:104F9000A097612F722D832D902FBB2309F464C03D
:104FA0000E94C0E018160CF07DC023964CAD5DAD9C
:104FB0006EAD7FAD23974419550966097709DB016A
:104FC000CA0188589341A109B109B7FD6BC0279662
:104FD0008CAD9DADAEADBFAD279788199909AA09D3
:104FE000BB09EBADB595A79597958795E7FF03C0EE
:104FF0008093790E07C0C757DF4FE881F981C95800
:10500000D0408083C058DF4F488359836A837B83B5
:10501000C058D0406496FFAD6497E496FFAFE49724
:1050200068962FAD6897E5962FAFE5976C963FADE4
:105030006C97E6963FAFE697A0964FADA097E796A0
:105040004FAFE79723968CAD9DADAEADBFAD239727
:10505000C458DF4F88839983AA83BB83CC57D04041
:10506000EC961FAEEC971EC00E9483DA87FF1AC031
:1050700023968CAD9DADAEADBFAD2397C458DF4F29
:10508000288139814A815B81CC57D040821B930BA8
:10509000A40BB50BAC01BD0148585341610971091E
:1050A00077FFE2C520E030E040EA51E464966FAD5E
:1050B000649768967FAD68976C968FAD6C97A09655
:1050C0009FADA0970E949ADE9B01AC01612F722DCB
:1050D000832D902F0E94C0E018167CF4E9E2F7E0DF
:1050E00084918F010F5F1F4F811103C00E946FA534
:1050F000FBC10E946133F801F3CF23968CAD9DADC7
:10510000AEADBFAD2397CB57DF4F288139814A81A0
:105110005B81C558D040821B930BA40BB50BB7FD28
:1051200017C00E94E3A48AE00E94613323968CADED
:105130009DADAEADBFAD23978053984FAF4FBF4FDE
:10514000CB57DF4F88839983AA83BB83C558D04050
:1051500023968CAD9DADAEADBFAD2397880F991F43
:10516000AA1FBB1FC458DF4F288139814A815B8148
:10517000CC57D040821B930BA40BB50B8419950917
:10518000A609B70981389F44A241B10568F0EBE058
:10519000F7E084918F010F5F1F4F882309F4A6CF9A
:1051A0000E946133F801F5CF29964EAD5FAD299786
:1051B000EB968EAD9FADEB97841795070CF0B3C0BF
:1051C000EEEAF6E084918F010F5F1F4F882321F0F4
:1051D0000E946133F801F6CF9BAD97FD03C003E653
:1051E00014E002C002EF12E0B8018CE996E00E94E0
:1051F000E46CB701A60188E996E00E94AE6C8AE0F3
:105200000E946133B80186E896E00E94E46C2F9614
:105210004CAD5DAD6EAD7FAD2F9782E896E00E94FC
:10522000AE6C8AE00E946133B80180E796E00E948C
:10523000E46C63964CAD5DAD6EAD7FAD63978CE66F
:1052400096E00E94AE6C8AE00E946133CC57DF4F3B
:10525000A881C458D040AA2309F446C1BBADB7FF0A
:1052600031C0C092720ED092730EE092740EF09222
:10527000750E2CEA35EC47E25EE32F966CAD7DAD02
:105280008EAD9FAD2F970E94E8DA60936E0E7093FB
:105290006F0E8093700E9093710E2CEA35EC47E2FE
:1052A0005EE363966CAD7DAD8EAD9FAD63970E945E
:1052B00076DF60936A0E70936B0E80936C0E909302
:1052C0006D0E12C1C092F80DD092F90DE092FA0D58
:1052D000F092FB0D2CEA35EC47E25EE32F966CADC5
:1052E0007DAD8EAD9FAD2F970E94E8DA6093000EE2
:1052F0007093010E8093020E9093030E2CEA35EC0E
:1053000047E25EE363966CAD7DAD8EAD9FAD639776
:105310000E9476DF6093FC0D7093FD0D8093FE0D6F
:105320009093FF0DE1C00E945B40B7CDF8018191E1
:105330008F01882319F00E946133F8CF8AE00E9420
:10534000613381E080933B08CFC0D8018D918D01FE
:10535000882319F00E946133F8CF8AE00E946133FC
:1053600010923B08C1C00E94F643BEC00E94008557
:10537000BBC00E94D283B8C080E50E94113288234E
:1053800029F0CDD78093EC0511E001C010E083E552
:105390000E941132882321F0D3D78093ED0501C0FC
:1053A00011118CD6E6E7F0E284918F010F5F1F4F59
:1053B000882321F00E946133F801F6CF8091ED053A
:1053C00081110CC00EE713E0F80181918F01882351
:1053D00011F40C94581F0E946133F6CF6091EC05D4
:1053E00070E08DE997E00E94CB6C8AE00E94613307
:1053F0007BC081E0809325021092E30E83E50E943A
:105400001132882311F09CD702C083E5DBD78111CC
:105410006BC00E94D1BE68C0E0912115F0912215A9
:10542000FE2E2FE02E1708F1FF2783E0EE0FFF1F5F
:105430008A95E1F7E459FA4F80819181A281B38185
:105440008093640590936505A0936605B093670506
:1054500084819581A681B7818093680590936905C1
:10546000A0936A05B0936B053FC0E6E7F0E2849134
:105470008F010F5F1F4F882321F00E946133F801D5
:10548000F6CF84E50E9461336F2D70E080E090E0FC
:105490004AE00E940F3780E20E9461330EE813E079
:1054A000D8018D918D01882311F40C94581F0E940E
:1054B0006133F6CFE6E7F0E284918F010F5F1F4F73
:1054C000882321F00E946133F801F6CF6091A11486
:1054D0007091A2148AEA97E00E94E46C82E20E9432
:1054E00061338AE00E94613310929B1410929A14E7
:1054F0000E94B2BE4FC5F6D780917002882321F07A
:105500008BEA94E10E94A7BA0E9456338091DE0D87
:1055100083FD52C0C090B714D090B814E090B91475
:10552000F090BA148090FA059090FB05A090FC05CD
:10553000B090FD05A5019401C701B6010E9483DA70
:10554000882309F439C0A5019401C701B6010E945E
:1055500099DE9F7720911D0230911E0240911F021B
:10556000509120020E94E8DA20E030E048E453E461
:105570000E94C0E0181604F5C092FA05D092FB050F
:10558000E092FC05F092FD05E6E7F0E284918F01E0
:105590000F5F1F4F882321F00E946133F801F6CF7F
:1055A000E9EDF1E084918F010F5F1F4F882321F017
:1055B0000E946133F801F6CF6091230270912402BA
:1055C000072E000C880B990B0E9489DA20910002AB
:1055D0003091010240910202509103020E94E8DAE8
:1055E0002AE037ED43E25CE30E94E8DA69837A83DC
:1055F0008B839C83E12C8E010F5F1F4F27EB34E1DF
:1056000043EB54E16FEA74E18BEA94E10E94636E2C
:105610000E944C3369CF73D6AB01BC014093BE11DD
:105620005093BF116093C0117093C11180E693E154
:105630000E948A9959CF61E0802F0E94733A6E2DA3
:10564000802F0E94313AF12CB701802F0E94AF3A8F
:105650000930110509F048CFF092D60EE092D50E30
:1056600043CF7DD60E94DEDF7093DA0E6093D90EB1
:1056700076D620E030E04AEA52E40E9483DA181637
:1056800044F00E9480B960E08FE793E00E942D40D3
:1056900002C00E9475AC6091D90E7091DA0E072E8F
:1056A000000C880B990B0E9489DA2091230E30910F
:1056B000240E4091250E5091260E0E94C0E018162F
:1056C000B4F487E393E09F938F9380917A0E90E0F8
:1056D00001969F938F9388E793E09F938F931F92F8
:1056E0000E945AAC0FB6F894DEBF0FBECDBF0E9429
:1056F0001BD081E080932D0223961CAE1DAE1EAE02
:105700001FAE23972B961CAE1DAE1EAE1FAE2B9761
:105710001BAE2C961FAE2C979CE360969FAF6097B4
:10572000ACE16496AFAF6497B6E46896BFAF689794
:10573000E12CF12C00E81FEB812C912C540160919D
:10574000D90E7091DA0E072E000C880B990B0E946F
:1057500089DA762E672E582E492E262F372F482F7E
:10576000592FB701C8010E9483DA882321F12091C3
:10577000230E3091240E4091250E5091260E672D58
:10578000762D852D942D0E9483DA881F8827881F07
:105790008BAF2496EFAD2497EE2389F0882379F020
:1057A00080912D02882309F49FCE60E086E693E085
:1057B0000E942D4099CE7E2C6F2C502E412E0E949F
:1057C000AE3B6B017C01DC01CB012B962CAD3DADDA
:1057D0004EAD5FAD2B97821B930BA40BB50BB7FDA2
:1057E00039C0D701C60188519C4FAF4FBF4F2B9690
:1057F0008CAF9DAFAEAFBFAF2B970E94E3A4E4E7A1
:10580000F3E084918F010F5F1F4F882319F059D760
:10581000F801F7CF81149104A104B104B9F0D501C6
:10582000C401805F984DAF4FBF4FBC01CD016C19D3
:105830007D098E099F0928EE33E040E050E00E9488
:105840005EDECA01B9010E94AF3702C08FE339D7CB
:105850008AE037D70E944CBC29D72090230E309085
:10586000240E0091250E1091260E9101A801672D9E
:10587000762D852D942D0E9499DE9F7781149104B9
:10588000A104B10449F420E030E040E85FE30E9465
:1058900083DA87FF0BC008C020E030E040E450E42A
:1058A0000E94C0E0181614F4460157019BAD9923DD
:1058B00009F443C023962CAD3DAD4EAD5FAD2397AB
:1058C000211531054105510541F0D701C601821B63
:1058D000930BA40BB50BB7FD30C09101A8012C961A
:1058E0006FAD2C9760967FAD609764968FAD64978F
:1058F00068969FAD68970E9499DE20E030E040EC0A
:105900005FE30E9483DA87FD4BCFD701C601805A3F
:105910009541AF4FBF4F23968CAF9DAFAEAFBFAF9A
:1059200023972C962FAE2C9760963FAE6097649687
:105930000FAF649768961FAF689780912D028823F8
:1059400009F42ECF81149104A104B10429F4E72CA9
:10595000F62C052D142DF3CE90E1C91A97E2D90A41
:10596000E108F108C818D908EA08FB08F7FE18CFC3
:10597000EECFF5D40E94DEDF6739710514F066E9D9
:1059800070E07093D80E6093D70EE9D420E030E039
:1059900040EA50E40E94C0E0181614F40E9475AC6E
:1059A00081E080932D0210927A0E23961CAE1DAEDC
:1059B0001EAE1FAE23972B961CAE1DAE1EAE1FAEA5
:1059C0002B971BAE2C961FAE2C97ACE36096AFAF17
:1059D0006097BCE16496BFAF6497E6E46896EFAF6A
:1059E0006897C12CD12C30E8E32E4FEBF42E812C9C
:1059F000912C54016091D70E7091D80E072E000C97
:105A0000880B990B0E9489DA162F072F782E692EA2
:105A1000262F372F482F592FB601C7010E9483DA4E
:105A2000882321F12091270E3091280E4091290ED4
:105A300050912A0E612F702F872D962D0E9483DAA8
:105A4000881F8827881F8BAF2496FFAD2497FF23DC
:105A500089F0882379F080912D02882309F444CDC0
:105A600060E08BE893E00E942D403ECD1C2D0D2D73
:105A70007E2C6F2C0E94AE3B6B017C01DC01CB01C4
:105A80002B962CAD3DAD4EAD5FAD2B97821B930B8E
:105A9000A40BB50BB7FD3AC0D701C60188519C4F86
:105AA000AF4FBF4F2B968CAF9DAFAEAFBFAF2B9715
:105AB0000E94E3A4E5E9F3E084912F019FEF491AE6
:105AC000590A882319F0FDD5F201F6CF811491040B
:105AD000A104B104B9F0D501C401805F984DAF4F66
