:100000000C94F8140C9429150C9429150C942915AA
:100010000C9429150C9429150C9429150C94291568
:100020000C9429150C9429150C9429150C94291558
:100030000C9429150C9429150C9429150C94291548
:100040000C9429150C948AA60C9429150C94291546
:100050000C9429150C9429150C949FA30C940890CA
:100060000C9429150C94793A0C9429150C942915A3
:100070000C9429150C9429150C9429150C94291508
:100080000C9429150C9429150C9429150C942915F8
:100090000C9429150C9429150C9429150C942915E8
:1000A0000C9429150C9429150C9429150C942915D8
:1000B0000C9429150C9429150C9429150C942915C8
:1000C0000C9429150C9429150C9429150C942915B8
:1000D0000C9429150C9429150C9429150C942915A8
:1000E0000C942915A68DA98D988D9C8DA28DE08DDF
:1000F000AD8DB18DB78DBB8DBF8DC58DC98DCD8DAE
:10010000E08DD38DD78DDB8D248F298F2E8F388F67
:10011000428FBB8F4C8F548F5C8F668F708F7A8F1E
:10012000898F938FBB8F9D8FA78FB18F084AD73B45
:100130003BCE016E84BCBFFDC12F3D6C74319ABDB6
:1001400056833DDA3D00C77F11BED9E4BB4C3E91DA
:100150006BAAAABE000000803F05A84CCDB2D44EC9
:10016000B93836A9020C50B9918688083CA6AAAACB
:100170002ABE000000803F004E414E494E4954596E
:10018000494E46CDCCCC3D0AD7233C17B7D1387762
:10019000CC2B329595E6241FB14F0A000020410078
:1001A00000C84200401C4620BCBE4CCA1B0E5AAEC2
:1001B000C59D74434F4D4D554E49434154494F4E93
:1001C0000044525952554E004552524F5253004925
:1001D0004E464F004543484F0020746F6F206C6FB0
:1001E0006E6720657874727573696F6E20707265C2
:1001F00076656E7465640A0047322F47332062616A
:100200006420706172616D65746572730A00536C6D
:100210006565702E2E2E00526573756D696E6720B0
:100220007072696E74004132302072656164792E9B
:1002300000436C69636B20746F20726573756D6524
:100240002E2E2E004E6F206D6F76652E00456E644B
:100250002066696C65206C6973740A004265676981
:100260006E2066696C65206C6973740A0025697379
:100270000025696D20256973002569682025696D51
:100280002025697300256964202569682025696D2A
:10029000202569730025697920256964202569680E
:1002A0002025696D20256973005072696E74207471
:1002B000696D653A200050726F74656374656420DF
:1002C00050696E0A004525692025730041323020AF
:1002D00072656164792E00D401CF01C801C101B3F8
:1002E000016F66660044454255473A004B494C4C05
:1002F00045442E20004D3131332053006F6B0048B0
:10030000656174696E6720646F6E652E0020573AD0
:1003100000452569202573004132302072656164F3
:10032000792E0042656420646F6E652E0020573A76
:10033000004265642048656174696E672E00413231
:1003400030204F66662E00454D455247454E435975
:100350005F50415253455200434153455F4C49471A
:1003600048545F4252494748544E45535300544FF6
:1003700047474C455F4C494748545300534F4654F8
:10038000574152455F504F574552004255494C44E2
:100390005F50455243454E54004C4556454C494EDE
:1003A000475F44415441005A5F50524F424500411B
:1003B00055544F4C4556454C005052494E545F4A97
:1003C0004F420050524F4752455353004155544FEE
:1003D0005245504F52545F54454D5000564F4C5566
:1003E0004D455452494300454550524F4D005345E9
:1003F0005249414C5F584F4E5F584F464600464960
:10040000524D574152455F4E414D453A4D61726CD8
:10041000696E20312E312E38202847697468756244
:100420002920534F555243455F434F44455F555232
:100430004C3A68747470733A2F2F676974687562E8
:100440002E636F6D2F4D61726C696E4669726D77A8
:100450006172652F4D61726C696E2050524F544F1E
:10046000434F4C5F56455253494F4E3A312E302040
:100470004D414348494E455F545950453A41323009
:100480002045585452554445525F434F554E543AB7
:100490003120555549443A63656465326132662DB1
:1004A000343161322D343734382D396231322D6395
:1004B00035356336326633363766660A002F2F20AD
:1004C000007A5F6D696E3A2000795F6D696E3A203F
:1004D00000785F6D696E3A20005265706F727469C2
:1004E0006E6720656E6473746F70207374617475C9
:1004F000730A004D31343520533C696E6465783E93
:10050000206F7574206F662072616E6765202830D9
:100510002D31290A0053657474696E672054726125
:1005200076656C20416363656C65726174696F6E9A
:100530003A200053657474696E6720526574726165
:10054000637420416363656C65726174696F6E3AB0
:10055000200053657474696E67205072696E742050
:10056000416363656C65726174696F6E3A20005314
:10057000657474696E67205072696E7420616E6470
:100580002054726176656C20416363656C657261AD
:1005900074696F6E3A2000205A00205900580020DC
:1005A000204D61783A2000205A0020590058002040
:1005B000204D696E3A20004F6E20004F6666005352
:1005C0006F667420656E6473746F70733A200000F8
:1005D0000125272318FF1F211D1CFF19171B1EFFB4
:1005E000FF0C0409FFFFFF2E2C0CFFFF04400AFF45
:1005F00041FFFFFFFFFFFF20643A0020693A00201F
:10060000703A0020643A0020693A0020703A004BAA
:1006100064200023646566696E6520204445464178
:10062000554C545F004B69200023646566696E6514
:10063000202044454641554C545F004B7020002318
:10064000646566696E65202044454641554C545F9B
:1006500000504944204175746F74756E6520666959
:100660006E69736865642120507574207468652014
:100670006C617374204B702C204B6920616E642078
:100680004B6420636F6E7374616E74732066726F57
:100690006D2062656C6F7720696E746F20436F6E9A
:1006A00066696775726174696F6E2E680A005049D9
:1006B00044204175746F74756E65206661696C6560
:1006C00064212074696D656F75740A005049442077
:1006D0004175746F74756E65206661696C6564211F
:1006E0002054656D706572617475726520746F6FEA
:1006F00020686967680A00204B643A2000204B6933
:100700003A2000204B703A20000A20436C6173733A
:10071000696320504944200A002054753A20002083
:100720004B753A2000206D61783A2000206D696E8B
:100730003A200020643A200020626961733A200068
:1007400043617365206C696768743A200041637483
:100750006976652045787472756465723A20005533
:100760006E6B6E6F776E20636F6D6D616E643A2095
:1007700022004C696E65204E756D6265722069734A
:10078000206E6F74204C617374204C696E65204E2E
:10079000756D6265722B312C204C617374204C692D
:1007A0006E653A20004B494C4C45442E2000535472
:1007B0004F505045442E20005072696E746572206F
:1007C00073746F707065642064756520746F206544
:1007D00072726F72732E2046697820746865206586
:1007E00072726F7220616E6420757365204D3939A5
:1007F0003920746F20726573746172742E202854CE
:10080000656D7065726174757265206973207265BB
:100810007365742E20536574206974206166746555
:10082000722072657374617274696E67290A004E72
:100830006F20436865636B73756D207769746820FA
:100840006C696E65206E756D6265722C204C6173EB
:1008500074204C696E653A2000636865636B73753C
:100860006D206D69736D617463682C204C617374C5
:10087000204C696E653A20004D313130004D3331E6
:100880000047323820585900534420726561642073
:100890006572726F720A00446F6E65207072696EC5
:1008A00074696E672066696C650A0020496E76611E
:1008B0006C6964206578747275646572200046699D
:1008C0006C652064656C657465643A0044656C65AC
:1008D00074696F6E206661696C65642C2046696C72
:1008E000653A20006F70656E206661696C65642CE6
:1008F0002046696C653A2000205A3A0020593A0097
:1009000020436F756E7420583A0020453A00205AF3
:100910003A0020593A00583A003A004361703A00D0
:100920004B494C4C45442E2000202D20496E7661C9
:100930006C6964206578747275646572206E756D7B
:1009400062657220210A001FFFFFFFFFFFFF6000AA
:1009500000000001FF400000000000FF80000000D8
:1009600000007F83CF00000C303F87FF80000C30F9
:100970001F867980000C000F8C30C7838C30E78C89
:1009800030CFC7CC31F38C30DCECEC33B98C30D8C1
:100990006C6C33198C30D06C0C33198C30D86C0CD7
:1009A00033198C30DC6C0E3B198C30CF7C079F19CF
:1009B0008C30C77C038F19400000000000026000EB
:1009C00000000000061FFFFFFFFFFFF87265636F66
:1009D000766572792564002020506C616E6E6572B8
:1009E00042756666657242797465733A20002046E6
:1009F000726565204D656D6F72793A2000436F6DA9
:100A000070696C65643A204175672032312032305C
:100A100031380A00207C20417574686F723A2028B2
:100A20006E6F6E652C2064656661756C7420636FF3
:100A30006E666967290A00323031372D31322D3226
:100A4000352031323A303000204C617374205570BB
:100A500064617465643A2000312E312E380A004DED
:100A600061726C696E0020536F66747761726520E5
:100A700052657365740A00205761746368646F6718
:100A80002052657365740A002042726F776E206F82
:100A900075742052657365740A0020457874657218
:100AA0006E616C2052657365740A00506F776572D1
:100AB00055700A0073746172740A006572726F7205
:100AC0002077726974696E6720746F2066696C653F
:100AD0000A00456E6473746F70732025632025636C
:100AE00020256320256300205A3A0020593A00202F
:100AF000583A00656E6473746F7073206869743A55
:100B0000200047323820580047636F203A200047C2
:100B100032382059004732382058004D31303920C2
:100B2000543020532575004D313930205325750040
:100B3000446F6E6520736176696E672066696C65C7
:100B40002E0A004D32390045787472756465720062
:100B50004D6F7665205A004D6F76652059004D6FB8
:100B600076652058005072657061726500496E6943
:100B70007469616C697A6520454550524F4D004358
:100B80006F6E74726F6C00526573746F726520665D
:100B900061696C73616665004C6F61642073657494
:100BA00074696E677300496E697469616C697A650E
:100BB00020454550524F4D0053746F726520736548
:100BC0007474696E67730046696C616D656E74005C
:100BD0004D6F74696F6E0054656D706572617475E8
:100BE0007265004D61696E005072656865617420C0
:100BF00041425320636F6E66005072656865617490
:100C000020504C4120636F6E66005049442D4400D3
:100C10005049442D44005049442D49005049442D29
:100C200049005049442D50005049442D500020089F
:100C30002046616374002008204661637400200828
:100C4000204D6178002008204D6178002008204D5B
:100C50006178002008204D696E002008204D696EE3
:100C6000002008204D696E004F6666004F6E200020
:100C70004175746F74656D700046616E20737065A8
:100C800065640046616E207370656564004265644A
:100C900000426564004E6F7A7A6C65004E6F7A7A16
:100CA0006C6500436F6E74726F6C0053746F726585
:100CB0002073657474696E677300426564004265F1
:100CC00064004E6F7A7A6C65004E6F7A7A6C6500BC
:100CD00046616E2073706565640046616E207370B6
:100CE0006565640054656D70657261747572650048
:100CF000290A002062797465733B206372632000C7
:100D000053657474696E67732053746F72656420E1
:100D1000280077726974652066696C65206E616D64
:100D2000653A2000290A002062797465733B2063CC
:100D300072632000706F7765726F66662053746F00
:100D4000726564202800200D0A62797465733B2067
:100D5000637263206572726F722000200D0A6279DF
:100D60007465733B20637263206572726F7220003A
:100D7000726561642066696C65206E616D653A20FC
:100D800000726561642066696C65206469723A204E
:100D900000290A002062797465733B206372632026
:100DA00000706F7765726F66662073746F7265642A
:100DB0002073657474696E677320726574726965F7
:100DC000766564202800202863616C63756C61740B
:100DD000656429210A0020213D2000454550524FDD
:100DE0004D20435243206D69736D61746368202DFB
:100DF000202873746F726564292000290A0020621C
:100E0000797465733B2063726320002073746F7282
:100E100065642073657474696E677320726574729B
:100E20006965766564202800204D61726C696E3DAD
:100E3000563437290A0028454550524F4D3D00454C
:100E40004550524F4D2076657273696F6E206D6903
:100E5000736D6174636820007C3C3E5E2B3D3F2FC8
:100E60005B5D3B2C2A225C004572726F72207772A8
:100E70006974696E6720746F20454550524F4D214B
:100E80000A004D3130342053257500473932204552
:100E9000257500473932205A25752E2575004D35A8
:100EA0003030004E4F2020005965732020005265DD
:100EB00073756D65207072696E74203F0025753AF8
:100EC0002530327500253032753A253032750025CF
:100ED000756420253032753A25303275005A005934
:100EE0000058000920000000000000000000000081
:100EF00000007FFFE0000000000000000000000094
:100F0000007000E000000000000000000000000091
:100F100061F86000000000000000000000000041D7
:100F2000F82000000000000000000000000040F079
:100F300020000000000000000000000000406020D1
:100F40000000000000000000000000005801A07F29
:100F500080000000000000004104005C63A0FFC0AE
:100F6000000000000000002082005EF7A0FFC0002B
:100F70000000000000002082005EF7A0FFC000001B
:100F800000000000004104005C63A07F80000000BE
:100F9000000000008208005801A07F8000000000CF
:100FA000000001041000406020FFC00000000000AD
:100FB000000104100040F020FFC00000000000000D
:100FC0000082080041F820FFC0000000000000007F
:100FD00041040061F8603F000000000000000000D4
:100FE00000007000E01E0000000000000001FFFF94
:100FF000807FFFE00C0000000000000001FFFF8088
:101000000000000000000000000000000000007F61
:10101000FFE0000000000000000000000000700081
:10102000E0000000000000000000000000630C6011
:10103000000000000000000000000000470E20003B
:1010400000000000000000000000004F0F20000022
:10105000000000000000000000005F0FA000000082
:101060000000000000000000005E07A07F8000007C
:101070000000000000410400406020FFC0000000AC
:101080000000000020820040F020FFC000000000AF
:1010900000000020820040F020FFC000000000009F
:1010A00000004104004060207F800000000000003C
:1010B000008208005E07A07F8000000000000001A1
:1010C0000410005F0FA0FFC000000000000001043A
:1010D00010004F0F20FFC000000000000000820839
:1010E00000470E20FFC00000000000000041040087
:1010F000630C603F00000000000000000000007072
:1011000000E01E0000000000000001FFFF807FFFE4
:10111000E00C0000000000000001FFFF8000000064
:1011200000060900FE000000000001090008FE00A2
:101130000005080806000040F0C888889878100567
:101140000808060000C0F88888888888F805050522
:101150000600012030F83020050808060000207045
:10116000F820202020E00509090600FF2070A8A82B
:10117000B8888870200509090600FFE080C0B0A883
:10118000283028280509090600FFF8A888888888DB
:1011900088A8F8050A0A0600FE205050505088A87A
:1011A000A8887003030306000340A04056652D6A1B
:1011B00065726B0056652D6A65726B0056652D6A07
:1011C00065726B00567A2D6A65726B00567A2D6ACD
:1011D00065726B0056792D6A65726B0056792D6ABF
:1011E00065726B0056792D6A65726B0056782D6AB0
:1011F00065726B0056782D6A65726B0056782D6AA1
:1012000065726B004D6F74696F6E00457374657025
:10121000732F6D6D004573746570732F6D6D005A7B
:1012200073746570732F6D6D005A73746570732FCE
:101230006D6D005973746570732F6D6D0059737403
:101240006570732F6D6D005873746570732F6D6DBD
:10125000005873746570732F6D6D004D6F74696FF6
:101260006E0053746570732F6D6D004A65726B006C
:10127000416363656C65726174696F6E0056656C7D
:101280006F6369747900436F6E74726F6C004669A6
:101290006C616D656E74204F66660046696C616DA9
:1012A000656E74204F6E200046696C616D656E74CA
:1012B000204F66660046696C616D656E74204F6EE6
:1012C000200046696C2E204469612E0046696C2E10
:1012D000204469612E004F6666004F6E2000452055
:1012E000696E206D6D3300436F6E74726F6C0043D6
:1012F000616E6E6F7420656E7465722073756264C2
:1013000069723A2000022E2E004D61696E00507203
:10131000656865617420504C4120456E64005072D0
:10132000656865617420504C4120426564005072CC
:10133000656865617420504C41005072657061723F
:101340006500507265686561742041425320456EA6
:1013500064005072656865617420414253204265A3
:101360006400507265686561742041425300507298
:101370006570617265004261636B004E6578742030
:10138000636F726E6572005072656865617420509B
:101390004C4100436F6F6C646F776E0050726568EC
:1013A000656174204142530044697361626C652039
:1013B0007374657070657273004D3834004C6576D7
:1013C000656C20636F726E657273004175746F2077
:1013D000686F6D6500473238004D6F766520617823
:1013E0006973004D61696E004D6F76652058004D40
:1013F0006F76652059004D6F7665205A00457874E8
:101400007275646572004D6F766520302E316D6D9A
:10141000004D6F766520316D6D004D6F7665203122
:10142000306D6D004D6F7665206178697300457889
:10143000747275646572004D6F7665205A004D6F49
:1014400076652059004D6F766520580020746F6FC7
:10145000206C6F6E6720657874727573696F6E208B
:1014600070726576656E7465640A00526573656EA8
:10147000643A20006F6B00627573793A2070617571
:1014800073656420666F7220696E7075740A0062FD
:101490007573793A2070617573656420666F722088
:1014A000757365720A00627573793A2070726F63A2
:1014B000657373696E670A004B494C4C45442E2096
:1014C000004B494C4C206361757365642062792040
:1014D000746F6F206D75636820696E6163746976DF
:1014E000652074696D65202D2063757272656E7458
:1014F00020636F6D6D616E643A2000506C6561739E
:1015000065207265736574005052494E54455220EF
:1015100048414C544544005072696E7465722068AD
:10152000616C7465642E206B696C6C282920636182
:101530006C6C6564210A00000000000000000000DF
:1015400000000000004842000048420000804000C7
:101550000000005761726E696E673A20486F6D69CE
:101560006E672042756D702044697669736F7220D2
:101570003C20310A000202040000A0400000A0400C
:101580000000004000007A4300007A4300007A43E4
:10159000FFFFFF436172642072656D6F76656400C2
:1015A0004361726420696E7365727465640000063D
:1015B0000900FE0701920321207FFF07FF07FF00BC
:1015C000000006000001070706020080808080807E
:1015D0000080030202060105A0A00507070600001F
:1015E0005050F850F850500507070600002078A02A
:1015F0007028F020050707060000C0C8102040989A
:10160000180507070600006090A040A89068020334
:1016100003060104C0408003070706010020408044
:1016200080804020030707060100804020202040E2
:101630008005050506000120A870A82005050506FF
:1016400000012020F820200203030602FFC0408092
:10165000050101060003F8020202060200C0C005EF
:101660000505060001081020408005070706000058
:101670007088888888887003070706010040C0408A
:10168000404040E005070706000070880870808031
:10169000F8050707060000F81020100808F00507F5
:1016A0000706000010305090F810100507070600DC
:1016B00000F880F0080888700507070600007080B1
:1016C00080F0888870050707060000F808102020C1
:1016D000202005070706000070888870888870053C
:1016E000070706000070888878080870020505065C
:1016F0000200C0C000C0C00206060602FFC0C00053
:10170000C0408004070706000010204080402010E1
:10171000050303060002F800F8040707060100802D
:101720004020102040800507070600007088081040
:1017300020002005070706000070880868A8A87028
:10174000050707060000708888F88888880507075D
:10175000060000F08888F08888F00507070600007A
:1017600070888080808870050707060000F08888F0
:10177000888888F0050707060000F88080F08080E0
:10178000F8050707060000F88080F08080800507D4
:1017900007060000708880B8888870050707060073
:1017A00000888888F88888880107070602008080FA
:1017B0008080808080050707060000381010101018
:1017C00090600507070600008890A0C0A0908805DB
:1017D0000707060000808080808080F805070706E4
:1017E000000088D8A8888888880507070600008830
:1017F00088C8A89888880507070600007088888828
:10180000888870050707060000F08888F0808080CF
:1018100005070706000070888888A89068050707F4
:10182000060000F08888F0A09088050707060000F1
:10183000788080700808F0050707060000F820206F
:1018400020202020050707060000888888888888CF
:1018500070050707060000888888888850200507DB
:10186000070600008888888888A8500507070600B2
:10187000008888502050888805070706000088885F
:101880008850202020050707060000F80810204097
:1018900080F8030707060100E08080808080E00573
:1018A0000505060001804020100803070706010017
:1018B000E02020202020E0050303060004205088BB
:1018C000050101060000F80202020602058040053B
:1018D00005050600007008788878050707060000EF
:1018E0008080B0C88888F0050505060000708080FB
:1018F000887005070706000008086898888878053A
:1019000005050600007088F88070050707060000CE
:101910003048E0404040400506060600FF708888D9
:101920007808700507070600008080B0C88888889E
:10193000010707060200800080808080800308087D
:101940000601FF200020202020A0400407070600F9
:1019500000808090A0C0A090030707060100C0404F
:1019600040404040E0050505060000D0A8A8A8A812
:10197000050505060000B0C888888805050506002D
:101980000070888888700506060600FFF08888F0D9
:1019900080800506060600FF788888780808050517
:1019A00005060000B0C880808005050506000070AF
:1019B000807008F00407070600004040E040404007
:1019C0003005050506000088888898680505050625
:1019D000000088888850200505050600008888A832
:1019E000A850050505060000885020508805060609
:1019F0000600FF888888780870050505060000F84D
:101A0000102040F8030707060100204040804040B6
:101A10002001070706020080808080808080030705
:101A20000706010080404020404080050202060079
:101A3000026890000000060000000021002400273A
:101A4000002A002D003000330001010000040107CE
:101A5000010A0100002200250028002B002E003181
:101A600000340002010000050108010B0100002004
:101A7000002300260029002C002F00320000010066
:101A80000003010601090105050505070508080809
:101A900008020202020A0A080804040404010101FF
:101AA0000101010101030303030303030304070707
:101AB000070C0C0C0C0C0C0C0C02020202060606A5
:101AC00006060606060B0B0B0B0B0B0B0B0102108D
:101AD0002020080810204010204080020102010848
:101AE00004020101020408102040808040201008F8
:101AF0000402018004020180402010080402010851
:101B000004020101020408102040800102040810B0
:101B100020408000000A0B02090C0D0E0807030488
:101B200001000000000000000000000000000000B4
:101B30000000000000000000000000000000001293
:101B40001110000000000000000000000000000074
:101B50000000000000000000005344207072696E15
:101B600074696E67206279746520004E6F7420532B
:101B700044207072696E74696E670A005344206372
:101B8000617264206F6B0A006F70656E526F6F74C4
:101B9000206661696C65640A00766F6C756D652EF0
:101BA000696E6974206661696C65640A005344203B
:101BB000696E6974206661696C0A006175746F25CD
:101BC000692E67004D3234004D32332025730057A3
:101BD000726974696E6720746F2066696C653A205B
:101BE000006F70656E206661696C65642C204669C3
:101BF0006C653A20006F70656E206661696C656483
:101C00002C2046696C653A200046696C6520736536
:101C10006C65637465640A002053697A653A200034
:101C200046696C65206F70656E65643A20006F7060
:101C3000656E206661696C65642C2046696C653A46
:101C400020002066696C653A2000646F696E670049
:101C50006672657368004E6F772000454E442053CE
:101C60005542524F5554494E450A002220706F7319
:101C7000002220706172656E743A22005355425200
:101C80004F5554494E452043414C4C207461726776
:101C900065743A22004B494C4C45442E2000747226
:101CA00079696E6720746F2063616C6C2073756254
:101CB0002D67636F64652066696C6573207769744E
:101CC0006820746F6F206D616E79206C6576656C2D
:101CD000732E204D4158206C6576656C2069733AEF
:101CE000004572726F723A0043616E6E6F74206FBE
:101CF00070656E2073756264697220006265640AA3
:101D0000002C2073797374656D2073746F70706527
:101D10006421204865617465725F49443A2000700F
:101D2000012C0190012701B0012201C0011D01F029
:101D30000118011002130130020E01600209019026
:101D4000020401C002FF000003FA004003F5008016
:101D500003F000D003EB002004E6007004E100E093
:101D600004DC004005D700C005D2004006CD00D0FD
:101D700006C8008007C3003008BE00F008B900C0E4
:101D800009B400B00AAF00B00BAA00D00CA5000047
:101D90000EA000500F9B00C0109600501291000042
:101DA000148C00C0158700B0178200B0197D00D0D8
:101DB0001B7800001E730040206E0090226900F026
:101DC00024640040275F0090295A00E02B55001042
:101DD0002E500020304B0010324600E0334100907E
:101DE000353C001037370070383200A0392D00B074
:101DF0003A2800A03B2300603C1E00103D190090D3
:101E00003D1400103E0F00703E0A00C03E05000069
:101E10003F0000403FFBFF803FF6FFC03FF1FF4522
:101E200072723A204D494E54454D5020424544006F
:101E30004572723A204D494E54454D50004D494E21
:101E400054454D502074726967676572656400453A
:101E500072723A204D415854454D5020424544003D
:101E60004572723A204D415854454D50004D4158ED
:101E700054454D502074726967676572656400202F
:101E80002F002042403A0020403A0024F4D4305041
:101E9000C38E20C2A24017828B7011127A910D81DD
:101EA0006CD90AA861E108C7586607615143061E4C
:101EB0004B5D05C145A7041A411104093D98037102
:101EC0003931034036DB0265339102D4305402804D
:101ED0002E1D02632CEE01752AC501B028A0011049
:101EE0002781018F2564012B244B01E0223401ACB2
:101EF000211F018D200D01801FFC00841EED009725
:101F00001DDF00B81CD200E61BC600201BBC00640D
:101F10001AB200B219A8000A19A0006A189900D1D3
:101F200017910040178B00B516840031167E00B360
:101F30001579003A157300C7146F0058146A00EE43
:101F40001366008813630025135E00C7125B006CE4
:101F500012570015125400C111510070114F002189
:101F6000114B00D61049008D104700461044000266
:101F7000104200C00F4000800F3E00420F3C0006A0
:101F80000F3B00CB0E3800930E37005C0E35002758
:101F90000E3400F30D3200C10D3100900D300060A1
:101FA0000D2E00320D2D00050D2C00D90C2B00AE8E
:101FB0000C2900850C29005C0C2700350C27000E2D
:101FC0000C2600E80B2400C40B2400A00B23007D8A
:101FD0000B23005A0B2100390B2100180B2000F8AD
:101FE0000A1F00D90A1E00BB0A1E009D0A1D0080A0
:101FF0000A1D00630A1C00470A1B002C0A1B001163
:102000000A1A00F7091A00DD091900C4091900AB02
:10201000091900920917007B091800630917004C81
:1020200009160036091600200916000A091500F5E0
:10203000081500E0081400CC081400B8081400A427
:10204000081400900813007D0812006B0813005854
:10205000081200460812003408110023081100126B
:1020600008110001081100F0071000E0071000D06F
:10207000071000C0071000B0070F00A10710009163
:10208000070E0083070F0074070F0065070E005747
:10209000070E0049070E003B070D002E070E00201B
:1020A000070D0013070D0006070D00F9060C00EDE3
:1020B000060D00E0060C00D4060C00C8060C00BC9F
:1020C000060C00B0060C00A4060B0099060C008D4F
:1020D000060B0082060B0077060B006C060B0061F6
:1020E000060A0057060B004C060A0042060A003892
:1020F000060A002E060A0024060A001A060A001024
:1021000006090007060A00FD050900F4050900EBB1
:10211000050900E2050900D9050900D0050900C735
:10212000050900BE050900B5050800AD050800A5B4
:102130000509009C050800940508008C050800842A
:102140000508007C050800740508006C050700659B
:102150000508005D050700560508004E0507004705
:102160000507004005080038050700310507002A6B
:10217000050700230507001C050600160507000FCC
:102180000507000805060002050700FB040600F528
:10219000040700EE040600E8040600E2040700DB82
:1021A000040600D5040600CF040600C9040600C3D7
:1021B000040600BD040600B7040600B1040500AC27
:1021C000040600A6040600A00405009B0406009572
:1021D000040500900406008A0405008504050080BB
:1021E0000406007A04050075040500700405006B00
:1021F00004050066040500610405005C0405005741
:10220000040500520405004D040500480405004380
:102210000405003E0404003A0405003504050030BE
:102220000404002C04050027040400230405001EF8
:102230000404001A04040016040500110404000D2F
:10224000040400090405000404040000040400FC64
:10225000030400F8030400F4030400F0030400EC9A
:10226000030400E8030400E4030400E0030400DCCA
:10227000030400D8030400D4030400D0030400CCFA
:10228000030400C8030300C503030024F404D92099
:102290001BC40C5C0E9804C4095F0265077101F44D
:1022A00005F900FB04B30048048700C10369005826
:1022B00003550003034500BE023A00840231005377
:1022C000022A002902250004022000E4011C00C8A3
:1022D000011900AF01170098011400840113007167
:1022E0000110006101100051010E0043010D003684
:1022F000010B002B010B0020010B00150109000C44
:1023000001090003010800FB000800F3000800EBCE
:10231000000700E4000600DE000600D8000600D238
:10232000000600CC000500C7000500C2000500BD86
:10233000000400B9000400B5000400B1000400ADC1
:10234000000400A9000400A5000300A20003009FF0
:102350000004009B00030098000300950002009316
:10236000000300900003008D0002008B0003008832
:102370000002008600020084000300810002007F4A
:102380000002007D0002007B00020079000200775D
:10239000000100760002007400020072000100716A
:1023A0000002006F0002006D0001006C0002006A74
:1023B000000100690002006700010066000100657D
:1023C0000001006400020062000100610001006081
:1023D0000001005F0002005D0001005C0001005B85
:1023E0000001005A00010059000100580001005787
:1023F0000001005600010055000100540001005387
:102400000000005300010052000100510001005083
:102410000001004F0001004E0000004E0001004D81
:102420000001004C0001004B0000004B0001004A7D
:102430000001004900010048000000480001004779
:102440000001004600000046000100450000004574
:10245000000100440001004300000043000100426D
:102460000000004200010041000000410001004066
:102470000001003F0000003F0001003E0000003E60
:102480000001003D0000003D0001003C0000003C58
:102490000000003C0001003B0000003B0001003A4E
:1024A0000000003A00010039000000390001003846
:1024B000000000380000003800010037000000373D
:1024C0000001003600000036000000360001003533
:1024D0000000003500000035000100340000003429
:1024E000000000340001003300000033000000331E
:1024F0000001003200000032000000320001003113
:102500000000003100000031000100300000003008
:10251000000000300001002F0000002F0000002FFD
:102520000000002F0001002E0000002E0000002EF1
:102530000001002D0000002D0000002D0000002DE6
:102540000001002C0000002C0000002C0000002CDA
:102550000001002B0000002B0000002B0000002BCE
:102560000001002A0000002A0000002A0000002AC2
:1025700000010029000000290000002900000029B6
:1025800000000029000100280000002800000028A9
:10259000000000280000002800010027000000279C
:1025A000000000270000002700000027000100268F
:1025B0000000002600000026000000260000002683
:1025C0000001002500000025000000250000002576
:1025D0000000002500000025000100240000002468
:1025E000000000240000002400000024000100235B
:1025F000000000230000002300000023000000234F
:10260000000000230000002300010022000000223F
:102610000000002200000022000000220000002232
:102620000001002100000021000000210000002125
:102630000000002100000021000000210001002016
:10264000000000200000002000000020000000200A
:102650000000002000000020000000200001001FFA
:102660000000001F0000001F0000001F0000001FEE
:102670000000001F0000001F0001001E0000001EDF
:102680000000001E0000001E0000004D38342058DD
:102690002059205A20450025732C005A25752C45B9
:1026A000256C752C50256C752C5425752C42257580
:1026B0002C004132302072656164792E00457272BF
:1026C0003A4E6F2046696C616D656E74004D61789D
:1026D0002054656D703A20313530004D696E2054BC
:1026E000656D703A203500544265643A4550434F59
:1026F00053203130304B004D61782054656D703A75
:1027000020323735004D696E2054656D703A2035A2
:102710000054303A204550434F53203130304B0065
:102720005053553A2047656E657269630050726F69
:10273000746F636F6C3A20312E3000426175643AD9
:102740002032353030303000475432353630205664
:10275000332E30004578747275646572733A203197
:1027600000687474703A2F2F6D61726C696E6677B1
:102770002E6F72670041323000323031372D3132E6
:102780002D32352031323A303000312E312E3800A2
:102790004D61726C696E00546865726D6973746F17
:1027A000727300426F61726420496E666F005072EE
:1027B000696E74657220496E666F004D61696E00C6
:1027C0005072696E74207061757365640000507298
:1027D000696E742061626F72746564004E6F20537D
:1027E000442063617264005072696E742066726F77
:1027F0006D2053440053746F70207072696E7400C2
:1028000041626F7574205072696E74657200526512
:1028100073756D65207072696E74005061757365B3
:10282000207072696E7400436F6E74726F6C00502A
:102830007265706172650054756E6500496E666FF1
:102840002073637265656E00466C6F7700466C6F2F
:10285000770046616E2073706565640046616E2086
:1028600073706565640042656400426564004E6F84
:102870007A7A6C65004E6F7A7A6C65005370656584
:1028800064005370656564004D61696E00656E712A
:1028900075657565696E672022006563686F3A002B
:1028A0005654726176206D696E00565472617620BE
:1028B0006D696E005654726176206D696E00566DBA
:1028C000696E00566D696E00566D696E00566D61D9
:1028D00078204500566D6178204500566D6178205E
:1028E0004500566D6178205A00566D6178205A0077
:1028F000566D6178205A00566D6178205900566DEA
:102900006178205900566D6178205900566D6178C4
:10291000205800566D6178205800566D6178205817
:10292000004D6F74696F6E00416D61782045004104
:102930006D6178204500416D6178205A00416D61DC
:1029400078205A00416D6178205900416D617820EE
:102950005900416D6178205800416D617820580020
:10296000412D74726176656C00412D7472617665DB
:102970006C00412D7265747261637400412D726543
:10298000747261637400416363656C0041636365E5
:102990006C004D6F74696F6E0048617264636F64A0
:1029A00065642044656661756C7420536574746950
:1029B0006E6773204C6F616465640A0088130000C1
:1029C0008813000032000000881300000000C84394
:1029D0000000C8430000C843000034429A99A04256
:1029E0009A99A1420000C8430000BA42F8D223CF0E
:1029F00011241FBECFEFD1E2DEBFCDBF00E00CBF80
:102A000014E0A0E0B2E0E4E3F1EC01E00BBF02C0AF
:102A100007900D92AA33B107D9F724E1AAE3B4E0F5
:102A200001C01D92A93CB207E1F714E1C7EFD4E160
:102A300000E006C021970109802FFE010E94C9DF36
:102A4000C63FD10780E00807A9F70E9462C80C942E
:102A500089E00C9400002F923F924F925F926F9208
:102A60007F928F929F92AF92BF92CF92DF92EF921E
:102A7000FF920F931F93CF93DF93CDB7DEB7C55768
:102A8000D1090FB6F894DEBF0FBECDBF81E090E054
:102A900090931608809315088091C2148D3409F420
:102AA000F7C6843511F40C948F2B873411F00C94F5
:102AB000D12B8091C0149091C1148430910509F4F8
:102AC00012C554F497FF02C00C94EB2B2091210205
:102AD000823091053CF521C08A35910509F455C62F
:102AE0002CF44C9709F445C50C94EB2B8B359105D0
:102AF00009F44FC68C35910511F00C94EB2B0E9414
:102B00007CA645E8242E42E0342E52ECE52E54E01B
:102B1000F52E00E0D12C10E066C621110C94F22BAA
:102B20000C94EB2B222311F40C94EB2B11E0029765
:102B300009F010E00E948D3382E50E9481338823E2
:102B400009F42AC10E941F336B017C014090C2042A
:102B50005090C3046090C4047090C5048091C60472
:102B60009091C704A091C804B091C9048CA39DA3FF
:102B7000AEA3BFA3209126083091270840912808D2
:102B80005091290828A739A74AA75BA780912A084E
:102B900090912B08A0912C08B0912D088CA79DA78F
:102BA000AEA7BFA720E030E0A901C701B6010E948F
:102BB000ABD8882309F47DC4A301920168A579A547
:102BC0008AA59BA50E94ABD881110DC02CA13DA167
:102BD0004EA15FA16CA57DA58EA59FA50E94ABD837
:102BE000882309F466C420E030E0A901C701B601DA
:102BF0000E94ABD8881F8827881F181309C020E0BF
:102C000030E040E85FE32CAF3DAF4EAF5FAF08C0B0
:102C100080E090E0A0E8BFEB8CAF9DAFAEAFBFAF60
:102C2000A301920168A579A58AA59BA50E94C1DC94
:102C30006CAB7DAB8EAB9FAB2CA13DA14EA15FA138
:102C40006CA57DA58EA59FA50E94C1DC68AF79AF5C
:102C50008AAF9BAF2CA93DA94EA95FA9CA01B901B2
:102C60000E9410D94B015C0128AD39AD4AAD5BAD76
:102C7000CA01B9010E9410D99B01AC01C501B40180
:102C80000E94C2DC0E942DDF68AB79AB8AAB9BABA4
:102C900020E030E040E05FE30E9410D94B015C018E
:102CA000A7019601C701B6010E9410D96B017C01F2
:102CB000A5019401C501B4010E9410D99B01AC018A
:102CC000C701B6010E94C1DC0E942DDF9B01AC014F
:102CD0006CAD7DAD8EAD9FAD0E9410D94B015C01F6
:102CE00028A539A54AA55BA5C301B2010E94C2DC93
:102CF00020E030E040E05FE30E9410D96B017C01EE
:102D000068AD79AD8AAD9BAD905828A939A94AA97B
:102D10005BA90E949EDD9B01AC01C501B4010E942C
:102D200010D99B01AC01C701B6010E94C2DCA3010E
:102D300092010E94C1DC6B017C012CA53DA54EA532
:102D40005FA56CA17DA18EA19FA10E94C2DC20E0A5
:102D500030E040E05FE30E9410D92B013C0128A93C
:102D600039A94AA95BA96CA97DA98EA99FA90E942E
:102D70009EDD9B01AC01C501B4010E9410D99B01ED
:102D8000AC01C301B2010E94C2DC2CA13DA14EA145
:102D90005FA10E94C1DC14C089E40E9481338823B2
:102DA00029F00E941F336B017C0103C0C12CD12C80
:102DB00076018AE40E9481338823D9F00E941F3370
:102DC0006CA77DA78EA79FA720E030E0A901C701CF
:102DD000B6010E94ABD881111AC020E030E0A901F1
:102DE0006CA57DA58EA59FA50E94ABD881110FC0B3
:102DF00060C320E030E0A901C701B6010E94ABD852
:102E0000882309F456C31CA61DA61EA61FA6A7014B
:102E1000960150582CA33DA34EA35FA38CA59DA55E
:102E2000AEA5BFA5B05888A799A7AAA7BBA7CA01F6
:102E3000B9010E9410D94B015C0128A539A54AA50A
:102E40005BA5CA01B9010E9410D99B01AC01C50163
:102E5000B4010E94C2DC0E942DDF60966CAF7DAF92
:102E60008EAF9FAF60972091C2043091C304409110
:102E7000C4045091C50428AB39AB4AAB5BABA70186
:102E8000960168A979A98AA99BA90E94C2DC6CAFA6
:102E90007DAF8EAF9FAF8091C6049091C704A09183
:102EA000C804B091C90488AF99AFAAAFBBAF2CA535
:102EB0003DA54EA55FA5BC01CD010E94C2DC2496B4
:102EC0006CAF7DAF8EAF9FAF2497209126083091D5
:102ED0002708409128085091290828962CAF3DAF2B
:102EE0004EAF5FAF28972CAD3DAD4EAD5FAD289690
:102EF0006CAD7DAD8EAD9FAD28970E94C1DC6B019E
:102F00007C0180912A0890912B08A0912C08B09107
:102F10002D082C968CAF9DAFAEAFBFAF2C972496EB
:102F20002CAD3DAD4EAD5FAD2497BC01CD010E94EF
:102F3000C1DC4B015C012091CA043091CB0440916B
:102F4000CC045091CD0468962CAF3DAF4EAF5FAF2F
:102F5000689760912E0870912F08809130089091A9
:102F600031080E94C1DC6CAB7DAB8EAB9FAB809116
:102F7000320890913308A0913408B09135086496D6
:102F80008CAF9DAFAEAFBFAF64972091CE043091B0
:102F9000CF044091D0045091D1046C962CAF3DAF3A
:102FA0004EAF5FAF6C97A70196016CA17DA18EA17A
:102FB0009FA10E9410D92B013C01A501940168A595
:102FC00079A58AA59BA50E9410D99B01AC01C301DC
:102FD000B2010E94C2DC2B013C01A50194016CA14D
:102FE0007DA18EA19FA10E9410D94B015C01A70178
:102FF000960168A579A58AA59BA50E9410D99B0179
:10300000AC01C501B4010E94C1DCA30192010E9480
:1030100035DD6B017C0120E030E0A9010E94ABD8D6
:1030200087FF0AC02BED3FE049EC50E4C701B60131
:103030000E94C2DC6B017C01112351F02BED3FE0BB
:1030400049EC50E4C701B6010E94C1DC6B017C0170
:1030500020E030E0A901C701B6010E94ABD8811180
:1030600024C028962CAD3DAD4EAD5FAD289768A924
:1030700079A98AA99BA90E94ABD8811116C02C9668
:103080002CAD3DAD4EAD5FAD2C9768AD79AD8AAD41
:103090009BAD0E94ABD8811108C07BEDC72E7FE0AD
:1030A000D72E79ECE72E70E4F72E60962CAD3DAD6F
:1030B0004EAD5FAD6097C701B6010E9410D99B016C
:1030C000AC010E9410D94B015C012CA93DA94EA96D
:1030D0005FA9CA01B9010E9410D99B01AC01C501C9
:1030E000B4010E94C2DC0E942DDF4B015C012FE67F
:1030F00032E143E85AE30E94ABD887FDD6C1C5014F
:10310000B4010E9437DE0E940BDE1B01672B19F40D
:1031100022242394312CB10180E090E00E94AFD8AA
:103120004B015C019B01AC01C701B6010E949EDD11
:1031300068AB79AB8AAB9BABA50194016CA97DA967
:103140008EA99FA90E949EDD60966CAF7DAF8EAF69
:103150009FAF60976C962CAD3DAD4EAD5FAD6C975B
:1031600064966CAD7DAD8EAD9FAD64970E94C1DC61
:10317000A50194010E949EDD64966CAF7DAF8EAF79
:103180009FAF649728A939A94AA95BA9CA01B901C7
:103190000E9410D920E030E040E05FE30E9410D9A7
:1031A0009B01AC0160E070E080E89FE30E94C1DC1D
:1031B00028966CAF7DAF8EAF9FAF289768968CAD89
:1031C0009DADAEADBFAD689789879A87AB87BC8749
:1031D0006C962CAD3DAD4EAD5FAD6C972D873E87A7
:1031E0004F87588B6091400270914102072E000C6E
:1031F000880B990B0E94B1D82091000230910102F6
:1032000040910202509103020E9410D92AE037ED4A
:1032100043E25CE30E9410D968A379A38AA39BA32D
:103220000E94FC8F9B01AC0128533F4F4F4F5F4FD3
:103230002C962CAF3DAF4EAF5FAF2C974CA05DA04E
:103240006EA07FA041E050E059AF48AF59E15CABC0
:10325000A8ADB9ADA215B30509F416C10E94C7A562
:103260000E94FC8FDC01CB012C962CAD3DAD4EAD08
:103270005FAD2C97821B930BA40BB50BB7FD10C051
:103280000E94FC8F9B01AC0128533F4F4F4F5F4F73
:103290002C962CAF3DAF4EAF5FAF2C970E9435827E
:1032A0003CA931503CAB332309F441C028962CADE6
:1032B0003DAD4EAD5FAD289768A579A58AA59BA5C4
:1032C0000E9410D96B017C0128A939A94AA95BA9E0
:1032D000B201C3010E9410D9A70196010E94C2DC6D
:1032E0006B017C0128962CAD3DAD4EAD5FAD2897AE
:1032F000B201C3010E9410D94B015C0128A939A970
:103300004AA95BA968A579A58AA59BA50E9410D9A1
:103310009B01AC01C501B4010E94C1DC2B013C0141
:10332000C601D70188A799A7AAA7BBA751C048ADD6
:1033300059ADBA0180E090E00E94AFD828A939A920
:103340004AA95BA90E9410D94B015C010E949BDD38
:103350006B017C01C501B4010E9423DF4B015C01BC
:10336000A70196016CA17DA18EA19FA10E9410D9F9
:103370002B013C01A50194016CA57DA58EA59FA5FF
:103380000E9410D99B01AC01C301B2010E94C2DCB2
:103390002B013C01A50194016CA17DA18EA19FA1EF
:1033A0000E9410D94B015C01A70196016CA57DA577
:1033B0008EA59FA50E9410D99B01AC01C501B40147
:1033C0000E94C1DC68A779A78AA79BA759E15CABDB
:1033D0009201A3016CAD7DAD8EAD9FAD0E94C2DCAC
:1033E00069837A838B839C8328A539A54AA55BA52D
:1033F00024966CAD7DAD8EAD9FAD24970E94C2DC4E
:103400006D837E838F83988760962CAD3DAD4EADE6
:103410005FAD609769857A858B859C850E94C2DC4B
:1034200069877A878B879C8764962CAD3DAD4EADBE
:103430005FAD64976D857E858F8598890E94C2DC1B
:103440006D877E878F87988B80911602882321F065
:10345000CE0101960E947C80E09068078E01005E9C
:103460001F4F9E01235F3F4FAE01475F5F4FBE017D
:103470006B5F7F4FCE0101960E949D7C88AD99AD18
:10348000019699AF88AFE4CEE09068078E01005EA8
:103490001F4F22E338E04EE258E06AE278E086E22D
:1034A00098E00E949D7C0E9467340E9471340C94C5
:1034B000EB2BE1EEFCE184918F010F5F1F4F88231E
:1034C00021F00E947C34F801F6CFE8EFF1E084911E
:1034D0008F010F5F1F4F882311F40C94EB2B0E9478
:1034E0007C34F801F4CF80E50E948133882329F0F1
:1034F0000E94DF326B017C0103C0C12CD12C76010C
:1035000083E50E948133882361F00E941F3320E00D
:1035100030E04AE754E40E9410D90E940BDE6B01B0
:103520007C010E947CA680914202811105C060E06E
:103530008EE092E00E94338A0E94713480911E08CE
:1035400090911F08A0912008B0912108C80ED91EA3
:10355000EA1EFB1E0E94FC8FDC01CB018C199D0929
:10356000AE09BF09B7FD02C00C94EB2B0E94358257
:10357000F1CF0E947CA68091000290910102A0915F
:103580000202B09103028093410490934204A093FD
:103590004304B0934404809140029091410290937F
:1035A000400480933F0484E690E09093410280932E
:1035B00040020E94713481E08093AE1188E50E9440
:1035C0005233E82E89E50E945233082F8AE50E9483
:1035D0005233F82EE11005C0011105C011E0182783
:1035E00005C0011102C010E001C0182F80E1E2EC1B
:1035F000F4E0A6E2B8E001900D928A95E1F711118E
:1036000005C0E11003C0002309F492C010922E08F7
:1036100010922F08109230081092310820E030E00C
:10362000A9016091CA047091CB048091CC0490915F
:10363000CD040E94ABD887FF68C020910002309172
:10364000010240910202509103022CA33DA34EA31C
:103650005FA3EBE4F5E1459055906590749040923E
:1036600000025092010260920202709203021092D4
:10367000CA041092CB041092CC041092CD040E9484
:10368000D53185E595E5A5E0B3E4809300029093FC
:103690000102A0930202B09303020E94D5318090F0
:1036A0002E0890902F08A0903008B0903108A50106
:1036B00094016091CA047091CB048091CC049091E4
:1036C000CD040E94E8DE181694F440920002509255
:1036D000010260920202709203028092CA049092E8
:1036E000CB04A092CC04B092CD040E94D5310E94AC
:1036F0007CA68CA19DA1AEA1BFA180930002909356
:103700000102A0930202B0930302111105C0E1105F
:1037100003C0011107C00CC080E090E00E94EB8064
:103720001123B9F381E090E00E94EB80111102C0F7
:10373000FF2021F082E090E00E94EB800E94623244
:103740008091AD118093AE1180914104909142041B
:10375000A0914304B091440480930002909301022D
:10376000A0930202B093030280913F049091400421
:1037700090934102809340020E94713483E08093D1
:1037800020020E94BA390C94EB2B10923E040C9448
:10379000EB2B81E080933E040C94EB2B0E941F33B3
:1037A0002B013C01F70120813181428153810E942C
:1037B000C1DC4B015C012DEB37E346E855EB0E9481
:1037C000E8DE87FD18C02DEB37E346E855E3C50179
:1037D000B4010E94ABD8181674F01F5FB4E0EB0E72
:1037E000F11C1430A9F0D1018D911D010E9481338B
:1037F000882399F3D3CF133019F0DD24D39401C07B
:1038000001E0D7014D925D926D927C921397E5CFC6
:10381000DD2019F00E94623237C00023A9F1C09068
:10382000CE04D090CF04E090D004F090D104209149
:10383000590730915A0740915B0750915C07C701C7
:10384000B6010E9410D90E94F3DE6093A711709315
:10385000A8118093A9119093AA11C701B6010E94E3
:1038600006DE2FB7F8946093C60A7093C70A809358
:10387000C80A9093C90A2FBF1092971110929811FD
:103880001092991110929A110E94BA390C94EB2B54
:103890008091C0149091C1148037910509F4A5C49A
:1038A0000CF0A8C08A32910509F47BC30CF056C015
:1038B0008731910509F446C24CF58231910509F42E
:1038C000B9C5BCF497FF02C00C94EB2B8230910574
:1038D0000CF461C1419711F00C94EB2B60E084E48F
:1038E00092E00E94338A4298179815982E980C946B
:1038F000EB2B8531910509F41BC20CF01DC24497D6
:1039000011F00C94EB2BECE5F2E0CFC18B3191057B
:1039100009F44DC23CF48931910509F434C20CF428
:1039200027C237C28E31910509F445C274F44C9711
:1039300011F00C94EB2B40E060E08091BE1490916C
:10394000BF140E94339A0C94EB2B8F31910509F42C
:1039500082C2809709F433C20C94EB2B8C3591050D
:1039600009F4BAC534F58135910509F43FC58CF4E5
:103970008C34910509F455C38D34910509F455C370
:103980008B34910511F00C94EB2B0E9493950C94C1
:10399000EB2B8335910509F448C50CF442C58435F9
:1039A000910509F447C58535910509F47AC50C944C
:1039B000EB2B8B36910509F407C564F48936910524
:1039C00009F463C40CF0DBC48836910509F431C3F3
:1039D0000C94EB2B8D36910509F49BC40CF401C4B7
:1039E0008E36910509F479C38F36910509F488C3A1
:1039F0000C94EB2B833D910511F40C94C6250CF02F
:103A00005EC08C38910509F424C444F585379105CE
:103A100009F443C674F48237910509F4E6C50CF441
:103A2000ECC38337910511F00C94EB2BEEEFF3E030
:103A3000E2C58737910509F478C60CF437C6883794
:103A4000910509F4D6C68937910511F00C94EB2B3A
:103A50001092AE111092AD110C94EB2B883C910595
:103A600009F444C774F48B39910509F42BC48E3BD7
:103A7000910509F46AC48139910511F00C94EB2B7E
:103A8000BEC68B3C910509F48FC77CF4893C910537
:103A900011F00C94EB2B60E8E62E64E1F62E05E8BD
:103AA00012E074E0D72ED00E67C78C3C910509F464
:103AB00098C78D3C910509F4FEC70C94EB2B803917
:103AC000E1E09E0711F40C94172B9CF58C3221E059
:103AD000920711F40C94C1268CF48D3D910511F4DC
:103AE0000C945026823E910511F40C9497268C3D3F
:103AF000910511F00C94EB2B0C9443268F3241E08E
:103B0000940711F40C9405283CF48D32914011F483
:103B10000C94EA260C94EB2B8033B1E09B0711F454
:103B20000C9488278336914011F40C94402B0C940C
:103B3000EB2B843FF1E09F0711F40C94372B94F4A6
:103B4000893931E0930719F18A3941E0940709F482
:103B500050C38839914011F00C94EB2B07E313E02C
:103B60000C941A2B863FA1E09A0711F40C943D2B7C
:103B700014F40C943A2B803AE3E09E0709F45EC1FA
:103B8000873E934011F40C947D2B0C94EB2B06E1B3
:103B900013E00C94292BA090BE14B090BF1480E5C4
:103BA0000E948133882359F00E94DF326B017C012F
:103BB00011E0672B682B692B31F410E004C010E092
:103BC000C12CD12C760183E50E9481338823F1F04A
:103BD0000E941F3320E030E04AE754E40E9410D9ED
:103BE0000E940BDE6B017C01111112C0672B682B48
:103BF000692B71F4A114B10459F0D5018C9188237B
:103C000039F061E0C5010E94518A07C0112391F388
:103C100060E081E392E00E94338A83E090E0909339
:103C200016088093150881E080934E080E947CA6B8
:103C30000E947134C114D104E104F104E9F08091CF
:103C40001E0890911F08A0912008B0912108C80E6D
:103C5000D91EEA1EFB1E0E94FC8FDC01CB018C19D1
:103C60009D09AE09BF09B7FF1CC080914E0888238B
:103C7000C1F00E943582EFCF80914E08882319F061
:103C80000E943582F9CF8091CD119091CE1160E0E4
:103C9000029719F486E292E002C087E192E00E9466
:103CA000338A10924E080C94EB2B84918F010F5F96
:103CB0001F4F882321F00E947C34F801F6CF109228
:103CC00063141092621440E050E0BA0186E192E180
:103CD0000E9429518BE1E6E1F2E1DE0115960190A7
:103CE0000D928A95E1F780911412909115129C83A0
:103CF0008B838FEE92E09A83898340E050E0BE018F
:103D00006F5F7F4F89E394E00E94F497CE010196A4
:103D10000E94B981EDE4F2E084918F010F5F1F4FA3
:103D2000882311F40C94EB2B0E947C34F801F4CF1F
:103D30000E94BF930C94EB2B1092DD111092DE11B8
:103D40000C94EB2BE091BE14F091BF14808188237A
:103D500029F0803209F410823196F8CF40E061E01A
:103D60008091BE149091BF140E94339A0C94EB2B57
:103D70008091DE11882319F081E08093DD110E948B
:103D800093950C94EB2B1092DD110E94D2950C941C
:103D9000EB2B8091DE11882311F40C94EB2B83E53F
:103DA0000E94813381110C94862C0C94EB2B0E9481
:103DB000EB950C94EB2B0E9483340C94EB2B8091AD
:103DC000DD1181110E947CA68091DE11882311F4FF
:103DD0000C94EB2B80E50E948133882319F00E941C
:103DE000103303C080E50E945233182F482F61E042
:103DF0008091BE149091BF140E94339A83E50E9473
:103E00008133882381F00E94EF32AB01BC014093E3
:103E10000E1250930F12609310127093111280EBD8
:103E200093E10E9429518091DE11882319F081E0ED
:103E30008093DD1111110C94EB2BA1CF8091BE1456
:103E40009091BF1421E02093DC1140E060E00E94DB
:103E5000339A0C94EB2B0E945BBE3CE3C32ED12C17
:103E6000E12CF12CA70196010E9486DC762E672EAC
:103E7000CA01B901A70196010E9486DC6B017C0191
:103E8000CA01B90128E130E040E050E00E9486DC40
:103E90004B015C01C9016DE671E00E9486DF8E0175
:103EA0000F5F1F4F6115710599F06F927F92DF923E
:103EB000CF929F928F929F938F937F936F9385E979
:103EC00092E09F938F931F930F930E9444D812C048
:103ED0000097B1F06F927F92DF92CF929F928F9274
:103EE0009F938F9385E892E09F938F931F930F93F7
:103EF0000E9444D80FB6F894DEBF0FBECDBF36C0C7
:103F000081149104A104B10479F06F927F92DF9241
:103F1000CF929F928F9289E792E09F938F931F9306
:103F20000F930E9444D8E6CFC114D104E104F104F8
:103F300069F06F927F92DF92CF9281E792E09F9338
:103F40008F931F930F930E9444D8D4CF6F927F9288
:103F50008DE692E09F938F931F930F930E9444D816
:103F60000F900F900F900F900F900F9060E0C8018E
:103F70000E94518AEAE9F8E284917F019FEFE91AF1
:103F8000F90A882321F00E947C34F701F5CFB801AB
:103F900089EA92E00E941E7B8AE00E947C340C94A5
:103FA000EB2B83E50E948133882311F40C94EB2BD7
:103FB0000E94FF32E82E80E50E948133882341F081
:103FC0000E94EF328B0177FF02C00C94EB2B02C0F2
:103FD00006E010E0902FEFECF5E088E28E0F2491E0
:103FE000921729F031968E13FACF0C94962CE1EEAD
:103FF000FCE184918F010F5F1F4F882321F00E9405
:104000007C34F801F6CFE6EBF2E084918F010F5F8C
:104010001F4F882311F40C94EB2B0E947C34F80181
:10402000F4CF0E94D2950C94EB2B0E946CBD0C94A3
:10403000EB2B88E690E00E94B43881110C94EB2BB6
:104040008091790783FF02C00C94EB2B83E50E94DB
:104050008133882309F43DC00E941F330E9406DE8D
:1040600070938408609383080E941F3320E030E03F
:104070004AEA52E40E94ABD818163CF00E946CBD8C
:1040800060E08CEC92E00E94338A0E941F33209102
:104090001E0730911F0740912007509121070E9471
:1040A000E8DE1816B4F487E593E09F938F93809130
:1040B000DA0A90E001969F938F9385EC92E09F93AC
:1040C0008F931F920E9478950FB6F894DEBF0FBEB3
:1040D000CDBF0E94F3CE0C94EB2B8EE40E94813373
:1040E000882311F40C94EB2B0E94EF32609392081A
:1040F0007093930880939408909395080C94EB2BFD
:1041000083E50E945233882359F083E50E9481336E
:10411000882319F00E94FF3201C080E08093790764
:10412000EAE9F8E284918F010F5F1F4F882321F0A5
:104130000E947C34F801F6CFE5EEF2E084918F0125
:104140000F5F1F4F882321F00E947C34F801F6CFC7
:10415000809179078823A1F127EDC22E22E0D22E8B
:10416000E12CF12C20E08091790790E00E2C02C028
:10417000959587950A94E2F780FF17C0BB24B39406
:10418000B20E222319F08CE20E947C34F6012591B4
:104190003491F901849189010F5F1F4F882321F029
:1041A0000E947C349801F5CF2B2DFFEFEF1AFF0A08
:1041B00032E0C30ED11C45E0E416F104A1F60CC0B8
:1041C000E1EEF2E084918F010F5F1F4F882321F011
:1041D0000E947C34F801F6CF8AE00E947C340C9473
:1041E000EB2B109239020C94EB2B8CEE92E00E9498
:1041F000CB810E940B340C94EB2B83E50E9481331E
:10420000882369F00E94FF328D3320F480931702D7
:104210000C94EB2B8CE3809317020C94EB2BEAE9C4
:10422000F8E284918F010F5F1F4F882321F00E94D5
:104230007C34F801F6CF4091170250E060E070E066
:1042400085EF92E00E94AE7A8AE00E947C340C9462
:10425000EB2B8091790783FF02C00C94EB2B83E555
:104260000E948133882311F40C94EB2B0E941F339E
:104270000E9406DE6739710514F066E970E07093FC
:104280008208609381080C94EB2B89E690E00E94F1
:10429000B438811111C0ECEFF2E084918F010F5F0F
:1042A0001F4F882321F00E947C34F801F6CF0E9432
:1042B0008CA28AE00E947C34109216081092150895
:1042C0000C94303183E50E948133882311F40C94DF
:1042D000EB2B0E94FF32182F8D3308F01CE3109354
:1042E0001B080E94FC8F6B017C01212F30E0A8EE9F
:1042F000B3E00E94B2DCC60ED71EE81EF91EC092C3
:104300001708D0921808E0921908F0921A080C9435
:10431000EB2B8DE690E00E94B43881110C94EB2BCE
:104320008091790783FF02C00C94EB2B83E50E94F8
:1043300081338CA781110C94AC2C82E50E948133CF
:1043400081110C94AC2C0C94EB2B8091790783FF9A
:1043500002C00C94EB2B60E081E393E00E94338A6F
:1043600083E50E9481338CA781110C94132E82E582
:104370000E94813381110C94132E0C94EB2B80E559
:104380000E948133811108C083E50E94813381112D
:1043900009C03FEF20E00AC00E94FF3281110C9457
:1043A000EB2BF2CF0E94EF32362F272F832F922F45
:1043B0008F3F910519F010F08FEF90E090938008F7
:1043C00080937F080C94EB2B80E50E948133811150
:1043D00006C01092800810927F080C94EB2B0E946C
:1043E000EF32672B11F00C94EB2BF3CF0E9418A344
:1043F0000E947CA60E94C1811092800810927F08C2
:1044000068EE73E080E090E00E9446890E947CA6FE
:104410000E94EA3160E08EE393E00E94338A0C94BC
:10442000EB2B10923D040C94EB2B81E080933D0428
:104430000C94EB2B83E50E9481338823A1F00E942A
:104440001F3320E030E04AE754E40E9410D90E9474
:104450000BDE609318027093190280931A029093F6
:104460001B020C94EB2B88E50E94523381110C94B3
:10447000502F89E50E94523381110C94502F8AE508
:104480000E94523381110C94502F85E40E945233C4
:1044900081110C94502F0E947CA60E94C1810C9423
:1044A000EB2B83E50E945233882311F40C94EB2B01
:1044B0000E941F3320E030E04AE754E40E9410D904
:1044C0000E940BDE609322087093230880932408D7
:1044D000909325080C94EB2B15E8C12E12E0D12EF9
:1044E0000DE4E02E07E0F02E10E0D6018D916D0175
:1044F0000E945233882309F46DC0133009F063C061
:104500000E941F334B015C0120E030E040EA51E49F
:104510000E94ABD887FF4EC0A50194016091590756
:1045200070915A0780915B0790915C070E949EDD15
:104530002B013C019B01AC016091490770914A0736
:1045400080914B0790914C070E9410D960934907C6
:1045500070934A0780934B0790934C07A3019201F5
:1045600060917C1470917D1480917E1490917F14E1
:104570000E9410D960937C1470937D1480937E14F4
:1045800090937F14609186077091870780918807C8
:10459000909189070E94AFD8A30192010E9410D97F
:1045A0000E940BDE609386077093870780938807CD
:1045B000909389078092590790925A07A0925B07BF
:1045C000B0925C0707C00E941F33F70160837183BC
:1045D000828393831F5FF4E0EF0EF11C143009F027
:1045E00084CF0E94737C0C94EB2B0E947CA60E94CB
:1045F000BA390C94EB2B84918F010F5F1F4F8823E6
:1046000021F00E947C34F801F6CF60E08EEE93E05A
:104610000E940A3961E087EE93E00E940A3961E066
:104620008CED93E00E940A3961E08CEC93E00E94EB
:104630000A3960E083EC93E00E940A3961E089EB7B
:1046400093E00E940A3960E08FEA93E00E940A3901
:1046500060E087EA93E00E940A3960E089E993E02C
:104660000E940A3960E08BE893E00E940A3960E01A
:104670008CE793E00E940A3961E08EE693E00E94A5
:104680000A3961E088E593E00E940A3960E087E436
:1046900093E00E940A390C94EB2B60E08091BE14E9
:1046A0009091BF140E94518A0C94EB2B85E40E94D8
:1046B0008133882319F00E94103303C085E40E94DF
:1046C0005233882361F0EAE9F8E284918F010F5FA9
:1046D0001F4F882321F00E947C34F801F6CF81E43B
:1046E0000E948133882319F00E94103303C081E4B3
:1046F0000E945233882361F0EDEBF4E084918F0146
:104700000F5F1F4F882321F00E947C34F801F6CF01
:104710000091BE141091BF14D8018D918D01882392
:1047200009F45ACD0E947C34F7CFE9EDF4E084918E
:104730008F010F5F1F4F882321F00E947C34F80106
:10474000F6CFE1EDF4E084918F010F5F1F4F8823D6
:1047500021F00E947C34F801F6CF029B03C003E0F5
:1047600013E002C008E013E0F80181918F01882373
:1047700019F00E947C34F8CF8AE00E947C34E9EC86
:10478000F4E084918F010F5F1F4F882321F00E9476
:104790007C34F801F6CF069B03C003E013E002C0AF
:1047A00008E013E0D8018D918D01882319F00E9453
:1047B0007C34F8CF8AE00E947C34E1ECF4E0849110
:1047C0008F010F5F1F4F882321F00E947C34F80176
:1047D000F6CF379B03C003E013E002C008E013E00C
:1047E000F80181918F01882309F4F6CC0E947C3472
:1047F000F7CF81E08093AE118093AD11ECC783E5D4
:104800000E948133882319F00E94EF3202C060E0D9
:1048100070E08B01112702301105CCF0E1EEFCE1D4
:1048200084918F010F5F1F4F882321F00E947C34F9
:10483000F801F6CFE3EFF4E084918F010F5F1F4F93
:10484000882309F4C8C70E947C34F801F5CF88E4B6
:104850000E9481338823A9F00E94EF326A3A7105E1
:104860003CF06530F1E07F072CF064E071E002C0BD
:104870006AEA70E0F801EE0FFF1FEE5FF84F7183F8
:10488000608386E40E9481338823A9F00E94EF327E
:10489000F801EE0FFF1FEA5FF84F718360836F3FEF
:1048A000710519F014F06FEF70E077FF02C060E05F
:1048B00070E07183608382E40E948133882309F46D
:1048C0008AC70E94EF326530710534F0683871058F
:1048D0002CF067E870E002C065E070E0000F111F87
:1048E000F801E250F94F7183608375C788EC90E05E
:1048F0000E94B43881116FC784E40E945233882328
:10490000C1F10E941F3311E020E030E0A9010E94B4
:10491000ABD8811101C010E010936207112349F157
:104920000E941F33E091DA0A24E0E29FF001112493
:10493000E25AF84F608371838283938320E030E0F2
:10494000A90160915E0770915F0780916007909167
:1049500061070E94ABD881110CC080E090E0A0EE0E
:10496000BFE380935E0790935F07A0936007B093C7
:1049700061070E94596E2FC7D8018D918D010E9449
:104980005233882349F00E941F330E940BDEF70147
:104990006083718382839383F4E0EF0EF11CD01265
:1049A000EBCF0E94467B17C740E7E42E44E1F42E8C
:1049B00005E812E054E0D52ED00ED8018D918D017E
:1049C0000E945233882339F00E941F33F70160831D
:1049D000718382839383F4E0EF0EF11CD012EDCF4C
:1049E000FAC683E50E9452338823D9F00E941F3310
:1049F000AB01BC01409398145093991460939A149E
:104A000070939B144093901450939114609392145C
:104A1000709393148FE695E00E94E87A8AE00E94F2
:104A20007C3480E50E945233882399F00E941F3322
:104A3000AB01BC01409398145093991460939A145D
:104A400070939B1482E595E00E94E87A8AE00E94C8
:104A50007C3482E50E945233882399F00E941F33F0
:104A6000AB01BC0140939414509395146093961439
:104A70007093971483E395E00E94E87A8AE00E949D
:104A80007C3484E50E945233882309F4A4C60E9432
:104A90001F33AB01BC014093901450939114609369
:104AA00092147093931485E195E00E94E87A8AE06D
:104AB0000E947C3490C683E50E945233882351F0D3
:104AC0000E941F3360936C1470936D1480936E1466
:104AD00090936F1484E50E945233882351F00E9412
:104AE0001F33609368147093691480936A149093D1
:104AF0006B1482E40E945233882351F00E94DF320B
:104B00006093750770937607809377079093780783
:104B100088E50E945233882351F00E941F3360932E
:104B20003D0770933E0780933F079093400789E5C8
:104B30000E945233882351F00E941F336093410733
:104B40007093420780934307909344078AE50E943D
:104B50005233882351F00E941F33609345077093AE
:104B60004607809347079093480785E40E94523395
:104B7000882309F430C60E941F336093490770935D
:104B80004A0780934B0790934C0725C6EAE9F8E261
:104B900084918F010F5F1F4F882321F00E947C3486
:104BA000F801F6CF83E50E945233882321F00E945A
:104BB000103380931602EFEBF5E084918F010F5FC5
:104BC0001F4F882321F00E947C34F801F6CF80919A
:104BD0001602811103C0EBEBF5E002C0E7EBF5E054
:104BE00084918F010F5F1F4F882321F00E947C3436
:104BF000F801F6CFEFEAF5E084918F010F5F1F4FC8
:104C0000882321F00E947C34F801F6CF40E050E088
:104C1000BA018DEA95E00E94E87A40E050E0BA01DE
:104C20008AEA95E00E94E87A40E050E0BA0187EA1B
:104C300095E00E94E87AEFE9F5E084918F010F5F3B
:104C40001F4F882321F00E947C34F801F6CF40E00A
:104C500050E06AE773E48DE995E00E94E87A40E06D
:104C600050E06AE773E48AE995E00E94E87A40E060
:104C700050E06AE773E487E995E00E94E87A8AE009
:104C80000E947C34A8C583E50E948133882309F4FF
:104C9000A2C50E94EF3270934102609340029BC50F
:104CA0008DED90E00E94B438811195C583E50E9496
:104CB0008133882309F48FC50091DA0A10E00E943D
:104CC000EF32000F111FF801E25CFD4F718360832A
:104CD0008091DA0A90E08C01000F111F000F111F64
:104CE0009801265C3D4F7901880F991FFC01E25C19
:104CF000FD4F60817181072E000C880B990B0E947B
:104D0000B1D82AE037ED43E25CE30E9410D9F80104
:104D1000EF5BFE4E20813181428153810E9410D988
:104D2000D7016D937D938D939C93139754C580E524
:104D30000E945233882309F44EC50E94EF326B0162
:104D40007C0183E50E948133882321F00E94EF32A9
:104D50008B0102C00FEF1FEFC8010196039708F007
:104D60003AC5D7FC38C59C2DEFECF5E088E28E0FF4
:104D70002491921709F42FC531968E13F9CF0C9414
:104D8000083183E50E948133882319F00E94EF32B5
:104D900002C064E071E079A368A380E50E948133DA
:104DA000882339F00E94EF326938B3E17B0730F491
:104DB00002C068EE73E07A83698304C088E893E1F7
:104DC0009A838983BE01605E7F4FCE0101960E9467
:104DD000449501C585E40E948133811110C080E5AE
:104DE0000E945233882391F00E941F336093F10692
:104DF0007093F2068093F3069093F40607C00E9426
:104E0000FF32882361F3E1EEFCE171C089E40E9486
:104E10005233882381F00E941F332CEA35EC47E29D
:104E20005EE30E9410D96093F9067093FA068093AE
:104E3000FB069093FC0684E40E945233882381F0A1
:104E40000E941F332CEA35EC47E25EE30E949EDDB0
:104E50006093F5067093F6068093F7069093F80634
:104E6000EAE9F8E284918F010F5F1F4F882321F058
:104E70000E947C34F801F6CF4091F1065091F20681
:104E80006091F3067091F4068FEF95E00E94E87A46
:104E90002CEA35EC47E25EE36091F9067091FA0680
:104EA0008091FB069091FC060E949EDDAB01BC0147
:104EB0008BEF95E00E94CB7A2CEA35EC47E25EE37B
:104EC0006091F5067091F6068091F7069091F806CC
:104ED0000E9410D9AB01BC0187EF95E00E94CB7A0C
:104EE0008AE00E947C3477C40E947C34F80184916B
:104EF0008F010F5F1F4F8111F7CF02E613E0F8011A
:104F000081918F01882309F467C90E947C34F7CF0F
:104F100080E50E945233882351F00E941F33609332
:104F2000D20A7093D30A8093D40A9093D50A89E465
:104F30000E945233882381F00E941F332CEA35EC03
:104F400047E25EE30E9410D96093CE0A7093CF0AC5
:104F50008093D00A9093D10A84E40E94523388232C
:104F600081F00E941F332CEA35EC47E25EE30E9499
:104F70009EDD6093CA0A7093CB0A8093CC0A90930B
:104F8000CD0AEAE9F8E284918F010F5F1F4F882371
:104F900021F00E947C34F801F6CF4091D20A509162
:104FA000D30A6091D40A7091D50A8BE096E00E94F2
:104FB000E87A2CEA35EC47E25EE36091CE0A709124
:104FC000CF0A8091D00A9091D10A0E949EDDAB0158
:104FD000BC0187E096E00E94CB7A2CEA35EC47E2F0
:104FE0005EE36091CA0A7091CB0A8091CC0A9091DD
:104FF000CD0A0E9410D9AB01BC0183E096E00E946B
:10500000CB7A8AE00E947C34E6C385E40E94813337
:10501000882321F00E94EF327B0102C0E12CF12CA9
:1050200083E40E948133882331F00E94EF32A396FB
:105030006FAFA39704C025E0A3962FAFA39785E594
:105040000E948133882319F00E94103303C085E544
:105050000E945233AE968FAFAE97F7FC07C0812CFB
:10506000912C06E1A02E03E4B02E06C0812C912CD9
:105070001CE8A12E12E4B12E83E50E94813388231F
:1050800021F00E941F334B015C01E114F10411F483
:105090001092DA0A0E94FC8F2B013C0181E08E0DF8
:1050A000823018F403E713E00BC006E813E0D801E0
:1050B0008D918D01882309F48FC80E947C34F7CF2D
:1050C000F80181918F01882319F00E947C34F8CF78
:1050D000ECA28AE00E947C340E9418A3FCA1F7FF96
:1050E00004C08FE78093D90A07C0EE2DEE0CFF0BAA
:1050F000E852F54F8FE78083C501B4010E9406DEB8
:10510000072E000C880B990B0E94B1D86CAF21962A
:105110007FAF219725968FAF259729969FAF299727
:1051200081E080933902A9964CAE5DAE6EAE7FAE43
:10513000A997E2964CAE5DAE6EAE7FAEE2976596F5
:105140001FAE659720E469962FAF69973CE12D96D5
:105150003FAF2D9746E461964FAF61976D961FAEB6
:105160006D976E961FAE6E976F961FAE6F97A09657
:105170001FAEA09718AE19AE1AAE1BAE1CAA1DAA80
:105180001EAA1FAAC12CD12C7601AFE78A2E912C22
:10519000A12CB12C8FE790E0A0E0B0E08CA79DA7F8
:1051A000AEA7BFA7AD961CAE1DAE1EAE1FAEAD978F
:1051B00091E0A5969FAFA59719AA18AA10E0212CF7
:1051C000312C00E0ACA18A2FAA0F990BFC01E85208
:1051D000F54FE496FFAFEEAFE497880F991F880F65
:1051E000991F9C01225E384FA2963FAF2EAFA29727
:1051F000A3964FADA397042E000C550BA4965FAF5A
:105200004EAFA49780913902882309F40CC10E9403
:10521000FC8F68A779A78AA79BA78091D60A8823C5
:1052200009F4DFC00E94A5A55CA157FF09C0109139
:1052300022072090230730902407009125070DC0F6
:10524000A296AEADBFADA2971C9111962C9011976E
:1052500012963C90129713960C91212F322D432DCC
:10526000502F6D966FAD6D976E967FAD6E976F9662
:105270008FAD6F97A0969FADA0970E94ABD887FF88
:105280000CC06D961FAF6D976E962FAE6E976F9692
:105290003FAE6F97A0960FAFA097212F322D432DD1
:1052A000502F65966FAD659769967FAD69972D967E
:1052B0008FAD2D9761969FAD61970E94E8DE18161D
:1052C00064F465961FAF659769962FAE69972D9622
:1052D0003FAE2D9761960FAF6197A596BFADA5978D
:1052E0002CAD21963FAD219725964FAD2597299658
:1052F0005FAD2997612F722D832D902FBB2309F469
:1053000056C00E94E8DE18160CF06BC048A559A5DF
:105310006AA57BA54419550966097709DB01CA010D
:1053200088589341A109B109B7FD5BC08CA59DA523
:10533000AEA5BFA588199909AA09BB09ECA1B59525
:10534000A79597958795E7FF03C08093D90A05C075
:10535000E496EEADFFADE4978083AD964CAF5DAFC4
:105360006EAF7FAFAD97FCAD6D96FFAF6D97219699
:105370002FAD21976E962FAF6E9725963FAD25974F
:105380006F963FAF6F9729964FAD2997A0964FAF75
:10539000A09788A599A5AAA5BBA5A9968CAF9DAFF6
:1053A000AEAFBFAFA997A5961FAEA5971AC00E9432
:1053B000ABD887FF16C088A599A5AAA5BBA5A996B5
:1053C0002CAD3DAD4EAD5FADA997821B930BA40BE9
:1053D000B50BAC01BD01485853416109710977FF14
:1053E0007DC520E030E040EA51E46CAD21967FAD10
:1053F000219725968FAD259729969FAD29970E94D5
:10540000C2DC9B01AC01612F722D832D902F0E9475
:10541000E8DE18167CF4ECECF6E084918F010F5F67
:105420001F4F811103C00E9418A3D5C10E947C3474
:10543000F801F3CF88A599A5AAA5BBA5E2962CAD46
:105440003DAD4EAD5FADE297821B930BA40BB50B48
:10545000B7FD13C00E948CA28AE00E947C3488A50C
:1054600099A5AAA5BBA58053984FAF4FBF4FE29611
:105470008CAF9DAFAEAFBFAFE29788A599A5AAA5A7
:10548000BBA5880F991FAA1FBB1FA9962CAD3DADC8
:105490004EAD5FADA997821B930BA40BB50B84197E
:1054A0009509A609B70981389F44A241B10568F062
:1054B000EEEAF6E084918F010F5F1F4F882309F415
:1054C000B2CF0E947C34F801F5CF48A959A9A4961F
:1054D0008EAD9FADA497841795070CF0A5C0E1E5AC
:1054E000F6E084918F010F5F1F4F882321F00E9407
:1054F0007C34F801F6CF9CA197FD03C009E314E0CA
:1055000002C002E113E0B8018FE396E00E941E7B27
:10551000B701A6018BE396E00E94E87A8AE00E9438
:105520007C34B80189E296E00E941E7B4CA95DA9FB
:105530006EA97FA985E296E00E94E87A8AE00E943F
:105540007C34B80183E196E00E941E7B48AD59ADE2
:105550006AAD7BAD8FE096E00E94E87A8AE00E9417
:105560007C34AE96AFADAE97AA2309F434C1BCA18A
:10557000B7FF2DC0C092D20AD092D30AE092D40ACB
:10558000F092D50A2CEA35EC47E25EE36CA97DA9DE
:105590008EA99FA90E9410D96093CE0A7093CF0A5A
:1055A0008093D00A9093D10A2CEA35EC47E25EE36F
:1055B00068AD79AD8AAD9BAD0E949EDD6093CA0A4D
:1055C0007093CB0A8093CC0A9093CD0A04C1C09209
:1055D000F106D092F206E092F306F092F4062CEA7D
:1055E00035EC47E25EE36CA97DA98EA99FA90E94D4
:1055F00010D96093F9067093FA068093FB06909396
:10560000FC062CEA35EC47E25EE368AD79AD8AAD85
:105610009BAD0E949EDD6093F5067093F606809325
:10562000F7069093F806D7C00E94618AEBCD0E94DE
:105630007CA6D1C0F80181918F01882319F00E94C6
:105640007C34F8CF8AE00E947C3481E080935D074F
:10565000C2C0D8018D918D01882319F00E947C343D
:10566000F8CF8AE00E947C3410925D07B4C00E949B
:105670006043B1C00E940E48AEC00E94C1C5ABC01D
:1056800080E50E948133882329F0B9D78093C00434
:1056900011E001C010E083E50E948133882321F0EE
:1056A000BFD78093C10401C011116ED6EAE9F8E2B8
:1056B00084918F010F5F1F4F882321F00E947C345B
:1056C000F801F6CF8091C10481110CC00FEA13E0FC
:1056D000F80181918F01882311F40C94EC200E9431
:1056E0007C34F6CF6091C00470E080E497E00E94C3
:1056F000057B8AE00E947C346EC081E080932102A9
:1057000010928F0883E5FDD7882311F089D702C056
:1057100083E5C8D781115FC00E94B9845CC0F09056
:10572000C014FF2029F1EAE9F8E284918F010F5FAC
:105730001F4F882321F00E947C34F801F6CF84E5C6
:105740000E947C346F2D70E080E090E04AE00E947F
:105750004E3880E20E947C3402E613E0D8018D913D
:105760008D01882311F40C94EC200E947C34F6CF38
:1057700010926807EAE9F8E284918F010F5F1F4FEA
:10578000882321F00E947C34F801F6CF60916807ED
:1057900070E08DE497E00E94057B8AE00E947C34F3
:1057A0001AC0EAE9F8E284918F010F5F1F4F882346
:1057B00021F00E947C34F801F6CF60911C087091B2
:1057C0001D088FE597E00E941E7B82E20E947C34D8
:1057D0008AE00E947C3410921608109215080E94EC
:1057E0009A843EC59AD780911602882321F086E2DA
:1057F00098E00E947C800E9471348091790783FD3B
:1058000056C0C0903208D0903308E0903408F09031
:1058100035088090CE049090CF04A090D004B09032
:10582000D104A5019401C701B6010E94ABD8882319
:1058300009F43DC0A5019401C701B6010E94C1DC75
:105840009F77E091680724E0E29FF0011124E65C75
:10585000FD4F20813181428153810E9410D920E087
:1058600030E048E453E40E94E8DE181604F5C092E4
:10587000CE04D092CF04E092D004F092D104EAE9B1
:10588000F8E284918F010F5F1F4F882321F00E945F
:105890007C34F801F6CFE9EDF1E084918F010F5FE0
:1058A0001F4F882321F00E947C34F801F6CF6091CD
:1058B000400270914102072E000C880B990B0E9448
:1058C000B1D8209100023091010240910202509122
:1058D00003020E9410D92AE037ED43E25CE30E9404
:1058E00010D969837A838B839C83E09068078E014B
:1058F0000F5F1F4F22E338E04EE258E06AE278E0A3
:1059000086E298E00E949D7CE2D765CF68D6AB0125
:10591000BC0140930E1250930F12609310127093BB
:10592000111280EB93E10E94295155CF61E0802F45
:105930000E94C18E6E2D802F0E94928EF12CB70195
:10594000802F0E94FD8E0930110509F044CFF0929E
:105950008008E0927F083FCF72D60E9406DE7093E7
:105960008408609383086BD620E030E04AEA52E472
:105970000E94ABD8181644F00E946CBD60E088E12C
:1059800093E00E94338A02C00E949395609183083D
:1059900070918408072E000C880B990B0E94B1D8D7
:1059A00020911E0730911F07409120075091210739
:1059B0000E94E8DE1816B4F487E593E09F938F9376
:1059C0008091DA0A90E001969F938F9381E193E0B2
:1059D0009F938F931F920E9478950FB6F894DEBF25
:1059E0000FBECDBF0E94F3CE81E08093390218A68E
:1059F00019A61AA61BA618AA19AA1AAA1BAA1CA29B
:105A00001CAA9CE398AFACE1ACAFB6E42196BFAF63
:105A10002197E12CF12C00E81FEB812C912C5401F3
:105A20006091830870918408072E000C880B990BF5
:105A30000E94B1D8762E672E582E492E262F372F4A
:105A4000482F592FB701C8010E94ABD8882311F104
:105A500020911E0730911F07409120075091210788
:105A6000672D762D852D942D0E94ABD8881F882711
:105A7000881F8CA3ECA5EE2389F0882379F0809110
:105A80003902882309F4A7CE60E08FEF92E00E94EC
:105A9000338AA1CE7E2C6F2C502E412E0E94FC8F7B
:105AA0006B017C01DC01CB0128A939A94AA95BA9BA
:105AB000821B930BA40BB50BB7FD37C0D701C601F2
:105AC00088519C4FAF4FBF4F88AB99ABAAABBBABD4
:105AD0000E948CA2EDE0F3E084918F010F5F1F4FD5
