:100000000C9433150C9464150C9464150C946415BD
:100010000C9464150C9464150C9464150C9464157C
:100020000C9464150C9464150C9464150C9464156C
:100030000C9464150C9464150C9464150C9464155C
:100040000C9464150C94EC8D0C9464150C9464154C
:100050000C9464150C9464150C94BDB30C94134467
:100060000C9464150C941F390C9464150C9464154D
:100070000C9464150C9464150C9464150C9464151C
:100080000C9464150C9464150C9464150C9464150C
:100090000C9464150C9464150C9464150C946415FC
:1000A0000C9464150C9464150C9464150C946415EC
:1000B0000C9464150C9464150C9464150C946415DC
:1000C0000C9464150C9464150C9464150C946415CC
:1000D0000C9464150C9464150C9464150C946415BC
:1000E0000C9464158B418E417D4181418741C5410E
:1000F000924196419C41A041A441AA41AE41B241E6
:10010000C541B841BC41C0412F4334433943434307
:100110004D43C64357435F43674371437B43854326
:1001200094439E43C643A843B243BC43084AD73BCB
:100130003BCE016E84BCBFFDC12F3D6C74319ABDB6
:1001400056833DDA3D00C77F11BED9E4BB4C3E91DA
:100150006BAAAABE000000803F05A84CCDB2D44EC9
:10016000B93836A9020C50B9918688083CA6AAAACB
:100170002ABE000000803F004E414E494E4954596E
:10018000494E46CDCCCC3D0AD7233C17B7D1387762
:10019000CC2B329595E6241FB14F0A000020410078
:1001A00000C84200401C4620BCBE4CCA1B0E5AAEC2
:1001B000C59D74434F4D4D554E49434154494F4E93
:1001C0000044525952554E004552524F5253004925
:1001D0004E464F004543484F0020746F6F206C6FB0
:1001E0006E6720657874727573696F6E20707265C2
:1001F00076656E7465640A0047322F47332062616A
:100200006420706172616D65746572730A00536C6D
:100210006565702E2E2E00526573756D696E6720B0
:100220007072696E74004132304D2072656164797C
:100230002E00436C69636B20746F20726573756D5B
:10024000652E2E2E00456E642066696C65206C69F3
:1002500073740A00426567696E2066696C65206C7C
:100260006973740A0046696C652064656C65746521
:10027000643A0044656C6574696F6E206661696CF0
:1002800065642C2046696C653A20006F70656E20AD
:100290006661696C65642C2046696C653A200025AE
:1002A00069730025696D202569730025696820251B
:1002B000696D2025697300256964202569682025FA
:1002C000696D2025697300256979202569642025D9
:1002D00069682025696D20256973005072696E7404
:1002E0002074696D653A200050726F74656374659F
:1002F000642050696E0A004525692025730041324B
:10030000304D2072656164792E00D401CF01C8019F
:10031000C101B3016F66660044454255473A004B40
:10032000494C4C45442E20004D3131332053006F51
:100330006B0048656174696E6720646F6E652E009E
:1003400020573A00452569202573004132304D2061
:1003500072656164792E0042656420646F6E652E5B
:100360000020573A004265642048656174696E67F1
:100370002E004132304D204F66662E00454D4552CD
:1003800047454E43595F50415253455200434153F4
:10039000455F4C494748545F4252494748544E458F
:1003A000535300544F47474C455F4C4947485453BB
:1003B00000534F4654574152455F504F57455200E6
:1003C0004255494C445F50455243454E54004C45BC
:1003D00056454C494E475F44415441005A5F505284
:1003E0004F4245004155544F4C4556454C005052E4
:1003F000494E545F4A4F420050524F475245535363
:10040000004155544F5245504F52545F54454D5042
:1004100000564F4C554D45545249430045455052A6
:100420004F4D0053455249414C5F584F4E5F584F16
:100430004646004649524D574152455F4E414D4553
:100440003A4D61726C696E20312E312E382028476A
:1004500069746875622920534F555243455F434F75
:1004600044455F55524C3A68747470733A2F2F6745
:1004700069746875622E636F6D2F4D61726C696E61
:100480004669726D776172652F4D61726C696E207D
:1004900050524F544F434F4C5F56455253494F4E65
:1004A0003A312E30204D414348494E455F54595012
:1004B000453A4132304D2045585452554445525FDB
:1004C000434F554E543A3120555549443A6365647B
:1004D00065326132662D343161322D343734382D36
:1004E000396231322D6335356336326633363766DD
:1004F000660A002F2F20007A5F6D696E3A2000791E
:100500005F6D696E3A2000785F6D696E3A20005227
:1005100065706F7274696E6720656E6473746F7056
:10052000207374617475730A004D31343520533C67
:10053000696E6465783E206F7574206F6620726105
:100540006E67652028302D31290A005761726E6967
:100550006E673A204D697820666163746F7273200C
:100560006D7573742061646420757020746F203120
:100570002E302E205363616C696E672E0A0053651E
:100580007474696E672054726176656C2041636390
:10059000656C65726174696F6E3A2000536574749E
:1005A000696E67205265747261637420416363658C
:1005B0006C65726174696F6E3A200053657474697A
:1005C0006E67205072696E7420416363656C65725A
:1005D0006174696F6E3A200053657474696E6720A8
:1005E0005072696E7420616E642054726176656C1D
:1005F00020416363656C65726174696F6E3A2000B7
:10060000205A00205900580020204D61783A2000DF
:10061000205A00205900580020204D696E3A2000D1
:100620004F6E20004F666600536F667420656E64DF
:1006300073746F70733A2000000125272318FF1F81
:10064000211D1CFF19171B1EFFFF0C0409FFFFFFD4
:100650002E2C0CFFFF312F3004400AFF41FFFFFF1B
:10066000FFFFFF20643A0020693A0020703A002022
:10067000643A0020693A0020703A004B642000235D
:10068000646566696E65202044454641554C545F5B
:10069000004B69200023646566696E65202044452F
:1006A0004641554C545F004B7020002364656669D9
:1006B0006E65202044454641554C545F00504944E6
:1006C000204175746F74756E652066696E69736814
:1006D0006564212050757420746865206C617374A2
:1006E000204B702C204B6920616E64204B6420638A
:1006F0006F6E7374616E74732066726F6D206265C5
:100700006C6F7720696E746F20436F6E66696775D2
:10071000726174696F6E2E680A00504944204175F9
:10072000746F74756E65206661696C6564212074F0
:10073000696D656F75740A00504944204175746F86
:1007400074756E65206661696C6564212054656D01
:10075000706572617475726520746F6F2068696767
:10076000680A00204B643A2000204B693A200020A0
:100770004B703A20000A20436C6173736963205008
:100780004944200A002054753A2000204B753A2035
:1007900000206D61783A2000206D696E3A200020BB
:1007A000643A200020626961733A200043617365F6
:1007B000206C696768743A2000556E6B6E6F776EB7
:1007C00020636F6D6D616E643A2022004C696E6526
:1007D000204E756D626572206973206E6F74204CB7
:1007E000617374204C696E65204E756D6265722B65
:1007F000312C204C617374204C696E653A20004B9B
:10080000494C4C45442E200053544F505045442EE3
:1008100020005072696E7465722073746F70706519
:10082000642064756520746F206572726F72732E18
:100830002046697820746865206572726F72206145
:100840006E6420757365204D39393920746F2072BC
:100850006573746172742E202854656D70657261C1
:10086000747572652069732072657365742E2053E8
:100870006574206974206166746572207265737492
:10088000617274696E67290A004E6F204368656360
:100890006B73756D2077697468206C696E65206E66
:1008A000756D6265722C204C617374204C696E65A5
:1008B0003A2000636865636B73756D206D69736DB5
:1008C000617463682C204C617374204C696E653AC6
:1008D00020004D313130004D33310047323820583F
:1008E000590053442072656164206572726F720A08
:1008F00000446F6E65207072696E74696E67206661
:10090000696C650A0020496E76616C6964206578BF
:1009100074727564657220004E6F206D6F76652E5F
:1009200000205A3A0020593A0020436F756E742017
:10093000583A0020453A00205A3A0020593A0058C7
:100940003A003A004361703A004B494C4C45442E02
:100950002000202D20496E76616C696420657874D2
:100960007275646572206E756D62657220210A0071
:100970001FFFFFFFFFFFFF600000000001FF4000BE
:1009800000000000FF8000000000007F83CF000017
:100990000C303F87FF80000C301F867980000C00F0
:1009A0000F8C30C7838C30E78C30CFC7CC31F38CC1
:1009B00030DCECEC33B98C30D86C6C33198C30D023
:1009C0006C0C33198C30D86C0C33198C30DC6C0EF9
:1009D0003B198C30CF7C079F198C30C77C038F1953
:1009E00040000000000002600000000000061FFF41
:1009F000FFFFFFFFF87265636F766572792564000B
:100A00002020506C616E6E6572427566666572423A
:100A1000797465733A20002046726565204D656DD6
:100A20006F72793A2000436F6D70696C65643A208B
:100A300041756720323120323031380A00207C2065
:100A4000417574686F723A20286E6F6E652C206451
:100A5000656661756C7420636F6E666967290A004C
:100A6000323031372D31322D32352031323A30307B
:100A700000204C61737420557064617465643A2081
:100A800000312E312E380A004D61726C696E0020E3
:100A9000536F6674776172652052657365740A00DE
:100AA000205761746368646F672052657365740AC8
:100AB000002042726F776E206F75742052657365E7
:100AC000740A002045787465726E616C20526573FB
:100AD00065740A00506F77657255700A007374610F
:100AE00072740A006572726F722077726974696E2F
:100AF0006720746F2066696C650A00456E647374C4
:100B00006F707320256320256320256320256300F3
:100B1000205A3A0020593A0020583A00656E647312
:100B2000746F7073206869743A2000473238205817
:100B30000047636F203A200047323820590047327F
:100B4000382058004D31303920543020532575005D
:100B50004D3139302053257500446F6E6520736127
:100B600076696E672066696C652E0A004D32390021
:100B70004578747275646572004D6F7665205A0011
:100B80004D6F76652059004D6F7665205800507284
:100B9000657061726500496E697469616C697A6536
:100BA00020454550524F4D00436F6E74726F6C007C
:100BB000526573746F7265206661696C73616665F6
:100BC00000496E697469616C697A652045455052C7
:100BD0004F4D004C6F61642073657474696E677368
:100BE0000053746F72652073657474696E67730067
:100BF00046696C616D656E74004D6F74696F6E004F
:100C000054656D7065726174757265004D61696ED1
:100C100000507265686561742041425320636F6EB5
:100C200066005072656865617420504C4120636FA6
:100C30006E66005049442D44005049442D440050F4
:100C400049442D49005049442D49005049442D50F4
:100C5000005049442D500020082046616374002054
:100C6000082046616374002008204D617800200848
:100C7000204D6178002008204D6178002008204D2B
:100C8000696E002008204D696E002008204D696EB5
:100C9000004F6666004F6E20004175746F74656D7D
:100CA000700046616E2073706565640046616E2059
:100CB00073706565640042656400426564004E6F50
:100CC0007A7A6C65004E6F7A7A6C6500436F6E7449
:100CD000726F6C0053746F72652073657474696E03
:100CE00067730042656400426564004E6F7A7A6CF7
:100CF00065004E6F7A7A6C650046616E2073706590
:100D000065640046616E2073706565640054656DAE
:100D100070657261747572650000002100240027FF
:100D2000002A002D003000330001010000040107FB
:100D3000010A0100002200250028002B002E0031AE
:100D400000340002010000050108010B0100002031
:100D5000002300260029002C002F00320000010093
:100D60000003010601090105050505070508080836
:100D700008020202020A0A0808040404040101012C
:100D80000101010101030303030303030304070734
:100D9000070C0C0C0C0C0C0C0C02020202060606D2
:100DA00006060606060B0B0B0B0B0B0B0B010210BA
:100DB0002020080810204010204080020102010875
:100DC0000402010102040810204080804020100825
:100DD000040201800402018040201008040201087E
:100DE00004020101020408102040800102040810DE
:100DF00020408000000A0B02090C0D0E08070304B6
:100E000001000000000000000000000000000000E1
:100E100000000000000000000000000000000012C0
:100E200011100000000000000000000000000000A1
:100E30000000000000000000004361726420726541
:100E40006D6F766564004361726420696E736572CC
:100E50007465640000060900FE0701920321207FEB
:100E6000FF07FF07FF00000006000001070706025A
:100E70000080808080800080030202060105A0A01F
:100E80000507070600005050F850F85050050707B6
:100E90000600002078A07028F02005070706000053
:100EA000C0C810204098180507070600006090A0F1
:100EB00040A89068020303060104C04080030707AE
:100EC00006010020408080804020030707060100C3
:100ED0008040202020408005050506000120A870E4
:100EE000A8200505050600012020F82020020303A4
:100EF0000602FFC04080050101060003F80202025D
:100F0000060200C0C005050506000108102040804B
:100F1000050707060000708888888888700307071F
:100F200006010040C040404040E0050707060000C1
:100F3000708808708080F8050707060000F8102008
:100F4000100808F005070706000010305090F81050
:100F500010050707060000F880F0080888700507EC
:100F600007060000708080F088887005070706007B
:100F700000F80810202020200507070600007088D0
:100F800088708888700507070600007088887808D0
:100F90000870020505060200C0C000C0C0020606B7
:100FA0000602FFC0C000C040800407070600001012
:100FB000204080402010050303060002F800F804DA
:100FC0000707060100804020102040800507070623
:100FD0000000708808102000200507070600007038
:100FE000880868A8A870050707060000708888F8B8
:100FF000888888050707060000F08888F08888F050
:101000000507070600007088808080887005070744
:10101000060000F08888888888F005070706000029
:10102000F88080F08080F8050707060000F88080CF
:10103000F0808080050707060000708880B88888E7
:1010400070050707060000888888F88888880107E7
:1010500007060200808080808080800507070600E8
:1010600000381010101090600507070600008890E7
:10107000A0C0A090880507070600008080808080BF
:1010800080F805070706000088D8A88888888805A2
:1010900007070600008888C8A898888805070706FB
:1010A000000070888888888870050707060000F0AF
:1010B0008888F0808080050707060000708888888F
:1010C000A89068050707060000F08888F0A09088BF
:1010D000050707060000788080700808F0050707FC
:1010E000060000F820202020202005070706000029
:1010F000888888888888700507070600008888889F
:10110000888850200507070600008888888888A8F6
:10111000500507070600008888502050888805077A
:101120000706000088888850202020050707060051
:1011300000F80810204080F8030707060100E0804F
:1011400080808080E00505050600018040201008B1
:10115000030707060100E02020202020E00503030C
:10116000060004205088050101060000F802020272
:10117000060205804005050506000070087888789D
:101180000507070600008080B0C88888F0050505BF
:1011900006000070808088700507070600000808B8
:1011A00068988888780505050600007088F88070C2
:1011B0000507070600003048E040404040050606AD
:1011C0000600FF7088887808700507070600008011
:1011D00080B0C888888801070706020080008080E8
:1011E0008080800308080601FF200020202020A026
:1011F00040040707060000808090A0C0A09003076D
:1012000007060100C04040404040E00505050600DB
:1012100000D0A8A8A8A8050505060000B0C88888C1
:101220008805050506000070888888700506060692
:1012300000FFF08888F080800506060600FF7888A9
:1012400088780808050505060000B0C8808080057C
:10125000050506000070807008F00407070600000E
:101260004040E04040403005050506000088888881
:101270009868050505060000888888502005050542
:101280000600008888A8A8500505050600008850BB
:101290002050880506060600FF88888878087005B3
:1012A0000505060000F8102040F8030707060100B6
:1012B00020404080404020010707060200808080D7
:1012C0008080808003070706010080404020404066
:1012D000800502020600026890000000060000532C
:1012E00044207072696E74696E672062797465203B
:1012F000004E6F74205344207072696E74696E677B
:101300000A0053442063617264206F6B0A006F709F
:10131000656E526F6F74206661696C65640A007651
:101320006F6C756D652E696E6974206661696C6598
:10133000640A00534420696E6974206661696C0A0E
:101340000020746F6F206C6F6E6720657874727503
:1013500073696F6E2070726576656E7465640A00DD
:1013600056652D6A65726B0056652D6A65726B0055
:1013700056652D6A65726B00567A2D6A65726B0030
:10138000567A2D6A65726B0056792D6A65726B000C
:1013900056792D6A65726B0056792D6A65726B00FD
:1013A00056782D6A65726B0056782D6A65726B00EF
:1013B00056782D6A65726B004D6F74696F6E0045CB
:1013C00073746570732F6D6D004573746570732F42
:1013D0006D6D005A73746570732F6D6D005A737460
:1013E0006570732F6D6D005973746570732F6D6D1B
:1013F000005973746570732F6D6D00587374657048
:10140000732F6D6D005873746570732F6D6D004D83
:101410006F74696F6E0053746570732F6D6D004A41
:1014200065726B00416363656C65726174696F6EB0
:101430000056656C6F6369747900436F6E74726FE8
:101440006C0046696C616D656E74204F666600467F
:10145000696C616D656E74204F6E200046696C6129
:101460006D656E74204F66660046696C616D656ED1
:1014700074204F6E200046696C2E204469612E0056
:1014800046696C2E204469612E004F6666004F6EDF
:1014900020004520696E206D6D3300436F6E7472BD
:1014A0006F6C0043616E6E6F7420656E74657220A0
:1014B0007375626469723A2000022E2E004D6169D4
:1014C0006E004D31303420532575004739322045A8
:1014D000257500473932205A25752E2575004D3562
:1014E0003030004E4F202000596573202000526597
:1014F00073756D65207072696E74203F0025753AB2
:101500002530327500253032753A25303275002588
:10151000756420253032753A25303275005A00093D
:1015200020000000000000000000000000007FFF1D
:10153000E00000000000000000000000007000E07B
:1015400000000000000000000000000061F86000E2
:10155000000000000000000000000041F820000032
:101560000000000000000000000040F0200000002B
:1015700000000000000000000040602000000000AB
:1015800000000000000000005801A07F8000000063
:10159000000000004104005C63A0FFC000000000E8
:1015A0000000002082005EF7A0FFC00000000000E5
:1015B00000002082005EF7A0FFC0000000000000D5
:1015C000004104005C63A07F800000000000000078
:1015D0008208005801A07F80000000000000010484
:1015E0001000406020FFC000000000000001041057
:1015F0000040F020FFC00000000000000082080052
:1016000041F820FFC000000000000000410400611C
:10161000F8603F00000000000000000000007000C3
:10162000E01E0000000000000001FFFF807FFFE0DF
:101630000C0000000000000001FFFF80000000001F
:1016400000000000000000000000007FFFE000003C
:10165000000000000000000000007000E00000003A
:10166000000000000000000000630C6000000000AB
:101670000000000000000000470E200000000000F5
:10168000000000000000004F0F20000000000000DC
:101690000000000000005F0FA0000000000000003C
:1016A00000000000005E07A07F8000000000000036
:1016B00000410400406020FFC00000000000000066
:1016C00020820040F020FFC0000000000000002049
:1016D000820040F020FFC000000000000000410434
:1016E000004060207F8000000000000000820800B1
:1016F0005E07A07F80000000000000010410005F72
:101700000FA0FFC0000000000000010410004F0FF8
:1017100020FFC000000000000000820800470E20EB
:10172000FFC000000000000000410400630C603FA7
:1017300000000000000000000000007000E01E003B
:1017400000000000000001FFFF807FFFE00C0000B0
:10175000000000000001FFFF8000000000060900FB
:10176000FE000000000001090008FE000005080856
:1017700006000040F0C88888987810050808060020
:1017800000C0F88888888888F805050506000120CB
:1017900030F830200508080600002070F8202020CE
:1017A00020E00509090600FF2070A8A8B888887005
:1017B000200509090600FFE080C0B0A828302828CD
:1017C0000509090600FFF8A88888888888A8F80510
:1017D0000A0A0600FE205050505088A8A8887003BE
:1017E000030306000340A0407772697465206669B0
:1017F0006C65206E616D653A2000290A00206279CF
:101800007465733B206372632000706F7765726F3D
:1018100066662053746F726564202800200D0A628A
:10182000797465733B20637263206572726F7220F6
:1018300000200D0A62797465733B20637263206532
:1018400072726F722000726561642066696C652037
:101850006E616D653A2000726561642066696C6531
:10186000206469723A2000290A0020627974657345
:101870003B206372632000706F7765726F6666202D
:1018800073746F7265642073657474696E67732016
:10189000726574726965766564202800202863612A
:1018A0006C63756C6174656429210A0020213D20F8
:1018B00000454550524F4D20435243206D69736D92
:1018C00061746368202D202873746F726564292009
:1018D00000290A002062797465733B2063726320DB
:1018E000002073746F7265642073657474696E6729
:1018F0007320726574726965766564202800204DD6
:1019000061726C696E3D563437290A00284545508E
:10191000524F4D3D00454550524F4D2076657273F4
:10192000696F6E206D69736D617463682000486132
:101930007264636F6465642044656661756C7420CD
:1019400053657474696E6773204C6F616465640AD3
:101950000088130000881300003200000088130084
:10196000000000C8430000C8430000C84300003422
:10197000429A99A0429A99A1420000C8430000AA45
:10198000435072656865617420504C4120456E6417
:10199000005072656865617420504C412042656456
:1019A000005072656865617420504C41005072654A
:1019B00070617265005072656865617420414253C0
:1019C00020456E6400507265686561742041425321
:1019D000204265640050726568656174204142531D
:1019E0000050726570617265004261636B004E6504
:1019F000787420636F726E657200507265686561FD
:101A00007420504C4100436F6F6C646F776E0050D0
:101A10007265686561742041425300446973616274
:101A20006C65207374657070657273004D38340096
:101A30004C6576656C20636F726E657273004175DC
:101A4000746F20686F6D6500473238004D6F7665A2
:101A50002061786973004D61696E004D6F76652075
:101A600058004D6F76652059004D6F7665205A00FD
:101A70004578747275646572004D6F766520302EFE
:101A8000316D6D004D6F766520316D6D004D6F7657
:101A9000652031306D6D004D6F766520617869731A
:101AA000004578747275646572004D6F7665205AD2
:101AB000004D6F76652059004D6F766520580024E3
:101AC000F4D43050C38E20C2A24017828B70111202
:101AD0007A910D816CD90AA861E108C7586607613F
:101AE0005143061E4B5D05C145A7041A4111040967
:101AF0003D9803713931034036DB0265339102D4DE
:101B0000305402802E1D02632CEE01752AC501B0EF
:101B100028A001102781018F2564012B244B01E0AF
:101B2000223401AC211F018D200D01801FFC008497
:101B30001EED00971DDF00B81CD200E61BC600207A
:101B40001BBC00641AB200B219A8000A19A0006AEE
:101B5000189900D117910040178B00B516840031F9
:101B6000167E00B31579003A157300C7146F00583C
:101B7000146A00EE1366008813630025135E00C725
:101B8000125B006C12570015125400C11151007005
:101B9000114F0021114B00D61049008D104700460F
:101BA00010440002104200C00F4000800F3E00426F
:101BB0000F3C00060F3B00CB0E3800930E37005C45
:101BC0000E3500270E3400F30D3200C10D310090A8
:101BD0000D3000600D2E00320D2D00050D2C00D9AA
:101BE0000C2B00AE0C2900850C29005C0C2700355D
:101BF0000C27000E0C2600E80B2400C40B2400A0C8
:101C00000B23007D0B23005A0B2100390B210018F8
:101C10000B2000F80A1F00D90A1E00BB0A1E009DF7
:101C20000A1D00800A1D00630A1C00470A1B002CC5
:101C30000A1B00110A1A00F7091A00DD091900C46D
:101C4000091900AB091900920917007B09180063F4
:101C50000917004C09160036091600200916000A5B
:101C6000091500F5081500E0081400CC081400B8A8
:101C7000081400A4081400900813007D0812006BDB
:101C800008130058081200460812003408110023F7
:101C90000811001208110001081100F0071000E0FF
:101CA000071000D0071000C0071000B0070F00A1F8
:101CB00007100091070E0083070F0074070F0065DF
:101CC000070E0057070E0049070E003B070D002EB8
:101CD000070E0020070D0013070D0006070D00F981
:101CE000060C00ED060D00E0060C00D4060C00C842
:101CF000060C00BC060C00B0060C00A4060B0099F4
:101D0000060C008D060B0082060B0077060B006C9C
:101D1000060B0061060A0057060B004C060A00423B
:101D2000060A0038060A002E060A0024060A001ACF
:101D3000060A001006090007060A00FD050900F45E
:101D4000050900EB050900E2050900D9050900D0E5
:101D5000050900C7050900BE050900B5050800AD65
:101D6000050800A50509009C050800940508008CDD
:101D7000050800840508007C050800740508006C4F
:101D8000050700650508005D050700560508004EBB
:101D90000507004705070040050800380507003122
:101DA0000507002A050700230507001C0506001685
:101DB0000507000F0507000805060002050700FBE0
:101DC000040600F5040700EE040600E8040600E23D
:101DD000040700DB040600D5040600CF040600C992
:101DE000040600C3040600BD040600B7040600B1E3
:101DF000040500AC040600A6040600A00405009B30
:101E000004060095040500900406008A0405008578
:101E1000040500800406007A0405007504050070BE
:101E20000405006B04050066040500610405005C00
:101E300004050057040500520405004D0405004840
:101E4000040500430405003E0404003A040500357F
:101E5000040500300404002C0405002704040023BA
:101E60000405001E0404001A0404001604050011F1
:101E70000404000D04040009040500040404000027
:101E8000040400FC030400F8030400F4030400F05D
:101E9000030400EC030400E8030400E4030400E08E
:101EA000030400DC030400D8030400D4030400D0BE
:101EB000030400CC030400C8030300C5030300248B
:101EC000F404D9201BC40C5C0E9804C4095F02659D
:101ED000077101F405F900FB04B30048048700C151
:101EE0000369005803550003034500BE023A00840D
:101EF00002310053022A002902250004022000E4D6
:101F0000011C00C8011900AF0117009801140084DA
:101F1000011300710110006101100051010E004316
:101F2000010D0036010B002B010B0020010B0015E9
:101F30000109000C01090003010800FB000800F37F
:101F4000000800EB000700E4000600DE000600D8F1
:101F5000000600D2000600CC000500C7000500C244
:101F6000000500BD000400B9000400B5000400B184
:101F7000000400AD000400A9000400A5000300A2B5
:101F80000003009F0004009B0003009800030095DD
:101F900000020093000300900003008D0002008BFC
:101FA0000003008800020086000200840003008114
:101FB0000002007F0002007D0002007B0002007929
:101FC0000002007700010076000200740002007237
:101FD000000100710002006F0002006D0001006C42
:101FE0000002006A0001006900020067000100664B
:101FF0000001006500010064000200620001006150
:10200000000100600001005F0002005D0001005C53
:102010000001005B0001005A000100590001005856
:102020000001005700010056000100550001005456
:102030000001005300000053000100520001005154
:10204000000100500001004F0001004E0000004E52
:102050000001004D0001004C0001004B0000004B4E
:102060000001004A0001004900010048000000484A
:102070000001004700010046000000460001004545
:10208000000000450001004400010043000000433F
:102090000001004200000042000100410000004138
:1020A000000100400001003F0000003F0001003E31
:1020B0000000003E0001003D0000003D0001003C2A
:1020C0000000003C0000003C0001003B0000003B21
:1020D0000001003A0000003A000100390000003918
:1020E000000100380000003800000038000100370F
:1020F0000000003700010036000000360000003606
:1021000000010035000000350000003500010034FA
:1021100000000034000000340001003300000033F0
:1021200000000033000100320000003200000032E5
:1021300000010031000000310000003100010030DA
:1021400000000030000000300001002F0000002FD0
:102150000000002F0000002F0001002E0000002EC4
:102160000000002E0001002D0000002D0000002DB9
:102170000000002D0001002C0000002C0000002CAD
:102180000000002C0001002B0000002B0000002BA1
:102190000000002B0001002A0000002A0000002A95
:1021A0000000002A00010029000000290000002989
:1021B000000000290000002900010028000000287C
:1021C000000000280000002800000028000100276F
:1021D0000000002700000027000000270000002763
:1021E0000001002600000026000000260000002656
:1021F0000000002600010025000000250000002549
:10220000000000250000002500000025000100243A
:10221000000000240000002400000024000000242E
:102220000001002300000023000000230000002321
:102230000000002300000023000000230001002212
:102240000000002200000022000000220000002206
:1022500000000022000100210000002100000021F8
:1022600000000021000000210000002100000021EA
:1022700000010020000000200000002000000020DD
:1022800000000020000000200000002000000020CE
:102290000001001F0000001F0000001F0000001FC1
:1022A0000000001F0000001F0000001F0001001EB2
:1022B0000000001E0000001E0000001E0000004D77
:1022C000383420582059205A20450025732C005AB4
:1022D00025752C45256C752C50256C752C54257551
:1022E0002C4225752C004132304D20726561647995
:1022F0002E004572723A4E6F2046696C616D656EB4
:1023000074007C3C3E5E2B3D3F2F5B5D3B2C2A22C4
:102310005C006175746F25692E67004D3234004D85
:1023200032332025730057726974696E6720746FA9
:102330002066696C653A20006F70656E2066616981
:102340006C65642C2046696C653A20006F70656E80
:10235000206661696C65642C2046696C653A2000D2
:1023600046696C652073656C65637465640A00205A
:1023700053697A653A200046696C65206F70656E16
:1023800065643A20006F70656E206661696C6564F3
:102390002C2046696C653A20002066696C653A20FD
:1023A00000646F696E67006672657368004E6F77D0
:1023B0002000454E4420535542524F5554494E45F6
:1023C0000A002220706F73002220706172656E74A3
:1023D0003A2200535542524F5554494E45204341ED
:1023E0004C4C207461726765743A22004B494C4C26
:1023F00045442E2000747279696E6720746F2063E3
:10240000616C6C207375622D67636F64652066690B
:102410006C6573207769746820746F6F206D616ECE
:1024200079206C6576656C732E204D4158206C6563
:1024300076656C2069733A004572726F723A004398
:10244000616E6E6F74206F70656E20737562646963
:102450007220006D69782070657263656E7400008B
:102460000074656D706C6174650074656D706C618D
:1024700074650066696C616D656E744C0066696CAC
:10248000616D656E7452004D6978657200507269B5
:102490006E742070617573656400005072696E74AB
:1024A0002061626F72746564004E6F205344206334
:1024B000617264005072696E742066726F6D205391
:1024C000440053746F70207072696E7400526573AB
:1024D000756D65207072696E740041626F7574204D
:1024E0005072696E74657200506175736520707208
:1024F000696E74004D6978657200436F6E74726F17
:102500006C00507265706172650054756E650049AB
:102510006E666F2073637265656E00466C6F770040
:10252000466C6F770046616E207370656564004687
:10253000616E207370656564004265640042656485
:10254000004E6F7A7A6C65004E6F7A7A6C65005334
:1025500070656564005370656564004D61696E0067
:1025600070012C0190012701B0012201C0011D0161
:10257000F00118011002130130020E01600209017E
:1025800090020401C002FF000003FA004003F500BE
:102590008003F000D003EB002004E6007004E100AB
:1025A000E004DC004005D700C005D2004006CD00A5
:1025B000D006C8008007C3003008BE00F008B9008C
:1025C000C009B400B00AAF00B00BAA00D00CA5003F
:1025D000000EA000500F9B00C010960050129100FA
:1025E00000148C00C0158700B0178200B0197D0060
:1025F000D01B7800001E730040206E0090226900FE
:10260000F024640040275F0090295A00E02B550019
:10261000102E500020304B0010324600E0334100B5
:1026200090353C001037370070383200A0392D004B
:10263000B03A2800A03B2300603C1E00103D19006A
:10264000903D1400103E0F00703E0A00C03E050091
:10265000003F0000403FFBFF803FF6FFC03FF1FF1F
:102660006265640A002C2073797374656D2073743D
:102670006F7070656421204865617465725F4944BC
:102680003A20004572723A204D494E54454D502033
:10269000424544004572723A204D494E54454D50D2
:1026A000004D494E54454D502074726967676572FC
:1026B0006564004572723A204D415854454D502092
:1026C000424544004572723A204D415854454D50A0
:1026D000004D415854454D502074726967676572CA
:1026E000656400202F002042403A0020403A004517
:1026F00072726F722077726974696E6720746F20CE
:10270000454550524F4D210A00290A002062797434
:1027100065733B20637263200053657474696E6750
:10272000732053746F726564202800526573656E60
:10273000643A20006F6B00627573793A207061759E
:1027400073656420666F7220696E7075740A00622A
:102750007573793A2070617573656420666F7220B5
:10276000757365720A00627573793A2070726F63CF
:10277000657373696E670A004B494C4C45442E20C3
:10278000004B494C4C20636175736564206279206D
:10279000746F6F206D75636820696E61637469760C
:1027A000652074696D65202D2063757272656E7485
:1027B00020636F6D6D616E643A2000506C656173CB
:1027C00065207265736574005052494E544552201D
:1027D00048414C544544005072696E7465722068DB
:1027E000616C7465642E206B696C6C2829206361B0
:1027F0006C6C6564210A000000000000000000000D
:1028000000000000004842000048420000804000F4
:102810000000005761726E696E673A20486F6D69FB
:102820006E672042756D702044697669736F7220FF
:102830003C20310A000202040000A0400000A04039
:102840000000004000007A4300007A4300007A4311
:10285000FFFFFF656E7175657565696E6720220003
:102860006563686F3A005654726176206D696E0038
:102870005654726176206D696E00565472617620EE
:102880006D696E00566D696E00566D696E00566D0D
:10289000696E00566D6178204500566D617820455F
:1028A00000566D6178204500566D6178205A0056BB
:1028B0006D6178205A00566D6178205A00566D611E
:1028C00078205900566D6178205900566D61782046
:1028D0005900566D6178205800566D617820580077
:1028E000566D61782058004D6F74696F6E00416DB0
:1028F0006178204500416D6178204500416D617827
:10290000205A00416D6178205A00416D617820594C
:1029100000416D6178205900416D61782058004177
:102920006D6178205800412D74726176656C0041AC
:102930002D74726176656C00412D726574726163ED
:102940007400412D72657472616374004163636544
:102950006C00416363656C004D6F74696F6E004D70
:1029600061782054656D703A20313530004D696EC4
:102970002054656D703A203500544265643A4550E4
:10298000434F53203130304B004D61782054656DFA
:10299000703A20323735004D696E2054656D703ABB
:1029A00020350054303A204550434F5320313030C9
:1029B0004B005053553A2047656E6572696300506D
:1029C000726F746F636F6C3A20312E300042617504
:1029D000643A2032353030303000475432353630AA
:1029E0002056332E30004578747275646572733AE0
:1029F000203100687474703A2F2F6D61726C696EAB
:102A000066772E6F7267004132304D0032303137B9
:102A10002D31322D32352031323A303000312E31E5
:102A20002E38004D61726C696E00546865726D6974
:102A300073746F727300426F61726420496E666FC7
:102A4000005072696E74657220496E666F004D6148
:102A5000696E0000006D69782070657263656E7440
:102A600000001CE1FBE011241FBECFEFD1E2DEBF6E
:102A7000CDBF00E00CBF15E0A0E0B2E0E4E1FDED69
:102A800001E00BBF02C007900D92A831B107D9F742
:102A900026E1A8E1B5E001C01D92AE3CB207E1F726
:102AA00015E1C2E3D5E100E006C021970109802FBE
:102AB000FE010E94B9EDC133D10780E00807A9F7F4
:102AC0000E94CBD50C9479EE0C9400002F923F928B
:102AD0004F925F926F927F928F929F92AF92BF922E
:102AE000CF92DF92EF92FF920F931F93CF93DF93DA
:102AF000CDB7DEB7C557D1090FB6F894DEBF0FBE0C
:102B0000CDBF81E090E0909351138093501380915A
:102B1000CD128D3409F4D1C3843511F40C94112BEA
:102B2000873411F00C945F2B8091CB129091CC12D2
:102B30008430910509F4ECC154F497FF02C00C9461
:102B4000792B20913802823091053CF521C08A35DD
:102B5000910509F42FC32CF44C9709F41FC20C946F
:102B6000792B8B35910509F429C38C35910511F02A
:102B70000C94792B0E949AB6F5E82F2EF2E03F2EA6
:102B8000AEECEA2EA8E0FA2E00E0D12C10E040C313
:102B900021110C94802B0C94792B222311F40C948A
:102BA000792B11E0029709F010E00E94613319823D
:102BB0001A821B821C821D821E821F82188682E559
:102BC0000E945533882309F454C10E94F3326B01EB
:102BD0007C012091CE083091CF084091D0085091CF
:102BE000D1082BAF3CAF4DAF5EAF8090D208909034
:102BF000D308A090D408B090D5088091BE089091D9
:102C0000BF08A091C008B091C10823968CAF9DAFBA
:102C1000AEAFBFAF23972091C2083091C308409157
:102C2000C4085091C50827962CAF3DAF4EAF5FAF9B
:102C3000279720E030E0A901C701B6010E949BE67A
:102C4000882309F42CC12BAD3CAD4DAD5EAD239670
:102C50006CAD7DAD8EAD9FAD23970E949BE681113B
:102C60000DC0A501940127966CAD7DAD8EAD9FADD5
:102C700027970E949BE6882309F411C120E030E0E9
:102C8000A901C701B6010E949BE6881F8827881FFB
:102C900018130BC080E090E0A0E8BFE367968CAF0C
:102CA0009DAFAEAFBFAF67970AC020E030E040E80D
:102CB0005FEB67962CAF3DAF4EAF5FAF67972BAD25
:102CC0003CAD4DAD5EAD23966CAD7DAD8EAD9FAD93
:102CD00023970E94B1EA2F966CAF7DAF8EAF9FAF66
:102CE0002F97A501940127966CAD7DAD8EAD9FAD5C
:102CF00027970E94B1EA63966CAF7DAF8EAF9FAF0E
:102D000063972F962CAD3DAD4EAD5FAD2F97CA01A9
:102D1000B9010E9400E72B013C0163962CAD3DAD4B
:102D20004EAD5FAD6397CA01B9010E9400E79B01F8
:102D3000AC01C301B2010E94B2EA0E941DED2B96C4
:102D40006CAF7DAF8EAF9FAF2B9720E030E040E0BF
:102D50005FE30E9400E72B013C01A7019601C70138
:102D6000B6010E9400E76B017C01A3019201C3013F
:102D7000B2010E9400E79B01AC01C701B6010E94AD
:102D8000B1EA0E941DED9B01AC0167966CAD7DAD73
:102D90008EAD9FAD67970E9400E76B017C01239683
:102DA0002CAD3DAD4EAD5FAD23976BAD7CAD8DAD24
:102DB0009EAD0E94B2EA20E030E040E05FE30E9476
:102DC00000E72B013C0163966CAD7DAD8EAD9FADF0
:102DD000639790582B962CAD3DAD4EAD5FAD2B97C4
:102DE0000E948EEB9B01AC01C701B6010E9400E777
:102DF0009B01AC01C301B2010E94B2EA2BAD3CAD14
:102E00004DAD5EAD0E94B1EA69837A838B839C836A
:102E100027962CAD3DAD4EAD5FAD2797C501B401F2
:102E20000E94B2EA20E030E040E05FE30E9400E769
:102E30002B013C012B962CAD3DAD4EAD5FAD2B97DC
:102E40002F966CAD7DAD8EAD9FAD2F970E948EEB12
:102E50009B01AC01C701B6010E9400E79B01AC01D8
:102E6000C301B2010E94B2EAA50194010E94B1EA35
:102E700012C089E40E945533882331F00E94F33256
:102E800069837A838B839C838AE40E9455338823E9
:102E900031F00E94F3326D837E838F83988720E028
:102EA00030E0A90169817A818B819C810E949BE637
:102EB00081110BC020E030E0A9016D817E818F81FE
:102EC00098850E949BE6882349F0612FCE010196E8
:102ED0000E94DF560E9445340C94792BE8E3F4E21B
:102EE00084918F010F5F1F4F882321F00E9450347F
:102EF000F801F6CFE8EFF1E084918F010F5F1F4FEB
:102F0000882311F40C94792B0E945034F801F4CFEB
:102F100080E50E945533882329F00E94B3326B016B
:102F20007C0103C0C12CD12C760183E50E9455336E
:102F3000882361F00E94F33220E030E04AE754E455
:102F40000E9400E70E94FBEB6B017C010E949AB695
:102F500080914202811105C060E08EE092E00E9403
:102F600037500E9445348091591390915A13A09183
:102F70005B13B0915C13C80ED91EEA1EFB1E0E94A3
:102F80000744DC01CB018C199D09AE09BF09B7FDCF
:102F900002C00C94792B0E9428BEF1CF0E949AB6F1
:102FA0008091190290911A02A0911B02B0911C020B
:102FB00080931F0590932005A0932105B0932205CF
:102FC000809117029091180290931E0580931D0521
:102FD00084E690E090931802809317020E94453493
:102FE00081E08093D01388E50E942633E82E89E59E
:102FF0000E942633082F8AE50E942633F82EE1101E
:1030000005C0011105C011E0182705C0011102C05B
:1030100010E001C0182F80E1EEECF8E0AEEBB8E074
:1030200001900D928A95E1F7111105C0E11003C0DE
:10303000002309F492C01092C6081092C70810929B
:10304000C8081092C90820E030E0A9016091D608B4
:103050007091D7088091D8089091D9080E949BE67A
:1030600087FF68C08091190290911A02A0911B02FB
:10307000B0911C028BAF9CAFADAFBEAFEBE0F8E2FE
:1030800045905590659074904092190250921A02A2
:1030900060921B0270921C021092D6081092D70800
:1030A0001092D8081092D9080E94B33185E595E5B1
:1030B000A5E0B3E48093190290931A02A0931B0237
:1030C000B0931C020E94B3318090C6089090C7084C
:1030D000A090C808B090C908A50194016091D608D5
:1030E0007091D7088091D8089091D9080E94D8ECA7
:1030F000181694F44092190250921A0260921B0220
:1031000070921C028092D6089092D708A092D8089C
:10311000B092D9080E94B3310E949AB62BAD3CAD53
:103120004DAD5EAD2093190230931A0240931B02FD
:1031300050931C02111105C0E11003C0011107C01A
:103140000CC080E090E00E941BC51123B9F381E020
:1031500090E00E941BC5111102C0FF2021F082E007
:1031600090E00E941BC50E943F328091CF13809354
:10317000D01380911F0590912005A0912105B09159
:1031800022058093190290931A02A0931B02B09318
:103190001C0280911D0590911E059093180280934A
:1031A00017020E94453483E080931D020E9460381C
:1031B0000C94792B10921C050C94792B81E0809350
:1031C0001C050C94792B0E94F3322B013C01F70172
:1031D00020813181428153810E94B1EA4B015C011F
:1031E0002DEB37E346E855EB0E94D8EC87FD18C07D
:1031F0002DEB37E346E855E3C501B4010E949BE699
:10320000181674F01F5FB4E0EB0EF11C1430A9F037
:10321000D1018D911D010E945533882399F3D3CF9D
:10322000133019F0DD24D39401C001E0D7014D9291
:103230005D926D927C921397E5CFDD2019F00E948C
:103240003F3237C00023A9F1C090DA08D090DB08E4
:10325000E090DC08F090DD0820911F0930912009F2
:103260004091210950912209C701B6010E9400E74F
:103270000E94E3EC6093C9137093CA138093CB133D
:103280009093CC13C701B6010E94F6EB2FB7F894C8
:103290006093501270935112809352129093531274
:1032A0002FBF1092B9131092BA131092BB13109241
:1032B000BC130E9460380C94792B8091CB129091B2
:1032C000CC128137910509F4D3C50CF0C6C08B34FC
:1032D000910509F4E5C40CF057C08831910509F453
:1032E00081C274F58231910509F4C8C684F497FF50
:1032F00002C00C94792B823091050CF48BC141975C
:1033000011F00C94792B0E94A1310C94792B85310A
:10331000910509F44CC23CF4449711F00C94792BBC
:10332000E4E5F2E001C28631910509F444C2479711
:1033300011F00C94792BE091C912F091CA1245C298
:103340008C31910509F46BC264F48A31910509F45A
:1033500054C20CF060C21092FF130E94DF550C940F
:10336000792B8F31910509F4B5C32CF44E9709F4EC
:1033700060C20C94792B8032910509F468C38A9756
:1033800009F44EC40C94792B8836910509F494C441
:103390000CF044C08235910509F467C634F58D34CC
:1033A000910509F485C40CF47FC48135910511F0B1
:1033B0000C94792B0E9436B30E949AB60E948EC05C
:1033C0001092AF081092AE0868EE73E080E090E0D3
:1033D0000E94474F0E949AB60E94C73160E082E780
:1033E00093E00E9437500C94792B8435910509F4B1
:1033F00045C60CF43EC68535910509F476C68C3574
:10340000910511F00C94792B95E8C92E92E0D92EF4
:1034100023E1E22E29E0F22E10E082C68C369105DF
:1034200009F422C53CF48A36910509F4E7C50CF489
:1034300067C509C68E36910509F492C40CF4A4C57B
:103440008F36910509F49FC48037910511F00C94D3
:10345000792B8FE193E00E94F1C58D3C910511F429
:103460000C94AF240CF05CC08139910509F4E2C7DB
:103470004CF58637910509F42DC7A4F483379105DF
:1034800009F4D4C60CF4CCC68537910511F00C9420
:10349000792B60E08091C9129091CA120E94555018
:1034A0000C94792B8837910509F4B7C70CF451C7F0
:1034B0008937910509F4B8C78C38910509F404C51A
:1034C0000C94792B8E3B910509F47CC584F4833AE6
:1034D000910511F40C949422843A910511F40C9402
:1034E000E1228B39910511F00C94792B26C5893C8A
:1034F000910511F40C9407243CF4883C910511F4D7
:103500000C94C1230C94792B8B3C910511F40C94F1
:1035100028248C3C910511F40C9445240C94792BAF
:103520008336E1E09E0711F40C94BE2AA4F5823E96
:10353000910511F40C94E9259CF48C3D910511F44E
:103540000C9495258D3D910511F40C94A225833D95
:10355000910511F00C94792BE0E6F8E20C941A2511
:103560008D3221E0920711F40C943C263CF48C320D
:10357000914011F40C9413260C94792B8F3251E066
:10358000950711F40C9457278033914011F40C9453
:10359000DA260C94792B843FB1E09B0711F40C944C
:1035A000B52ADCF48839F1E09F0781F14CF48039C9
:1035B000914011F00C94792B0E949AB60C94792BBF
:1035C000893941E09407F1F08A39914011F00C9467
:1035D000792B0E94DF330C94792B863FA1E09A0768
:1035E00011F40C94BB2A14F40C94B82A803AE3E04A
:1035F0009E0709F46BC2873E934011F40C94FD2A98
:103600000C94792B06E113E00C94A72A07E313E04E
:103610000C94982AA090C912B090CA1280E50E941A
:103620005533882359F00E94B3326B017C0111E0BD
:10363000672B682B692B31F410E004C010E0C12C1B
:10364000D12C760183E50E9455338823F1F00E9446
:10365000F33220E030E04AE754E40E9400E70E94A1
:10366000FBEB6B017C01111112C0672B682B692BDE
:1036700071F4A114B10459F0D5018C91882339F06B
:1036800061E0C5010E94555007C0112391F360E02D
:1036900082E392E00E94375083E090E090935113D0
:1036A0008093501381E0809386080E949AB60E940E
:1036B0004534C114D104E104F104E9F080915913B7
:1036C00090915A13A0915B13B0915C13C80ED91E50
:1036D000EA1EFB1E0E940744DC01CB018C199D09E8
:1036E000AE09BF09B7FF1CC0809186088823C1F0CE
:1036F0000E9428BEEFCF80918608882319F00E948F
:1037000028BEF9CF8091EF139091F01360E00297FB
:1037100019F486E292E002C087E192E00E943750FD
:10372000109286080C94792B84918F010F5F1F4FA4
:10373000882321F00E945034F801F6CF10928516AC
:103740001092841640E050E0BA0188E394E10E94B0
:103750005B978BE1E8E3F4E1DE01159601900D92B1
:103760008A95E1F780913614909137149C838B836E
:103770008FEE92E09A83898340E050E0BE016F5F54
:103780007F4F84E095E00E94BA9ECE0101960E9490
:10379000E9C5E5E4F2E084918F010F5F1F4F8823B4
:1037A00011F40C94792B0E945034F801F4CF0E944C
:1037B000C8530C94792B1092FF13109200140C94A0
:1037C000792B803209F41082319680818111F9CFF2
:1037D00040E061E08091C9129091CA120E94F7A066
:1037E0000C94792B80910014882319F081E0809348
:1037F000FF130E949F550C94792B8091001488230D
:1038000011F40C94792B83E50E94553381110C94AB
:10381000102C0C94792B0E94F9550C94792B40E0D4
:1038200060E08091C9129091CA120E94F7A00C9496
:10383000792B80910014882311F40C94792B82ED5C
:1038400095E10E94E59982ED95E10E94A99B109275
:10385000FE131092FD13E090C912F090CA128091ED
:103860000014882311F40C94792B0E941FC71D8229
:1038700018861C821B828FEE92E09A83898384E3F0
:1038800094E19093541480935314F70180818F3204
:1038900009F068C06FE270E0C7010E9407EE8C017A
:1038A0000F5F1F4F9E012F5F3F4F4901011511050B
:1038B00009F45EC06FE270E0C8010E9407EE6C017F
:1038C000009709F456C00817190708F052C05C01A8
:1038D000A01AB10AA501B801CE0180960E9430EE6F
:1038E000E0E2F0E0EC0FFD1FEA0DFB1D10828E01FF
:1038F000005E1F4FD8018D918D01882319F00E9421
:103900005034F8CF8AE00E94503460915314709183
:1039100054146115710511F06C5F7F4F21E0AE0109
:10392000405E5F4FCE0105960E94999D811112C0A5
:10393000BE01605E7F4F8BE892E00E94BF698EE21D
:103940000E9450348AE00E945034C4010E94E9C5AC
:103950000C94792B909254148092531486010F5F2B
:103960001F4FA4CF85E594E1909354148093531492
:10397000870160915314709154146115710511F011
:103980006C5F7F4F18A21BA222E0A801CE01809697
:103990000E94999D811102C0F12C14C0CE01809625
:1039A0000E948DC68823C1F361E0CE0180960E94FB
:1039B000C999009789F325EEFC0120831BA20E9480
:1039C0001B97F82ECE0180960E94D033FF2009F17C
:1039D000E5E6F2E084917F012FEFE21AF20A8823F4
:1039E00021F00E945034F701F5CFD8018D918D015F
:1039F000882319F00E945034F8CF8AE00E94503496
:103A00001092301410923114109232141092331418
:103A100018C0E3E7F2E084917F01BFEFEB1AFB0AE5
:103A2000882321F00E945034F701F5CFF8018191ED
:103A30008F01882319F00E945034F8CF8EE20E9443
:103A40005034CE0101960E94E9C50C94792B8091E7
:103A5000FF1381110E949AB680910014882311F4FB
:103A60000C94792B80E50E945533882319F00E942D
:103A7000E43203C080E50E942633182F482F61E00E
:103A80008091C9129091CA120E94F7A083E50E940A
:103A90005533882381F00E94C332AB01BC014093AF
:103AA000301450933114609332147093331482EDB8
:103AB00095E10E945B9780910014882319F081E0C2
:103AC0008093FF1311110C94792B93CE0E949631A1
:103AD0000C94792B0E9419C8ECE3CE2ED12CE12C4A
:103AE000F12CA70196010E9476EA762E672ECA0174
:103AF000B901A70196010E9476EA6B017C01CA0117
:103B0000B90128E130E040E050E00E9476EA4B0144
:103B10005C01C9016DE671E00E9476ED8E010F5FD8
:103B20001F4F6115710599F06F927F92DF92CF92CE
:103B30009F928F929F938F937F936F9387EC92E0E6
:103B40009F938F931F930F930E9434E612C00097A8
:103B5000B1F06F927F92DF92CF929F928F929F935C
:103B60008F9387EB92E09F938F931F930F930E9405
:103B700034E60FB6F894DEBF0FBECDBF36C0811459
:103B80009104A104B10479F06F927F92DF92CF92F9
:103B90009F928F928BEA92E09F938F931F930F9344
:103BA0000E9434E6E6CFC114D104E104F10469F0C7
:103BB0006F927F92DF92CF9283EA92E09F938F93EE
:103BC0001F930F930E9434E6D4CF6F927F928FE9B8
:103BD00092E09F938F931F930F930E9434E60F9070
:103BE0000F900F900F900F900F9060E0C8010E940F
:103BF0005550E0E6F8E284917F01BFEFEB1AFB0A33
:103C0000882321F00E945034F701F5CFB8018BEDE5
:103C100092E00E94BF698AE00E9450340C94792B94
:103C200083E50E945533882311F40C94792B0E946C
:103C3000D332E82E80E50E945533882341F00E945C
:103C4000C3328B0177FF02C00C94792B02C006E0CF
:103C500010E0902FE8E3F6E08BE28E0F24919217AC
:103C600029F031968E13FACF0C94202CE8E3F4E27D
:103C700084918F010F5F1F4F882321F00E945034E1
:103C8000F801F6CFE8EEF2E084918F010F5F1F4F4D
:103C9000882311F40C94792B0E945034F801F4CF4E
:103CA0000E949F550C94792B0E94DF550C94792B20
:103CB0000E942AC70C94792B88E690E00E945C371A
:103CC00081110C94792B8091E90883FF02C00C9438
:103CD000792B83E50E945533882309F43DC00E9467
:103CE000F3320E94F6EB7093B3086093B2080E941F
:103CF000F33220E030E04AEA52E40E949BE61816D4
:103D00003CF00E942AC760E08EEF92E00E9437509C
:103D10000E94F3322091590930915A0940915B0970
:103D200050915C090E94D8EC1816B4F487E593E032
:103D30009F938F938091641290E001969F938F934D
:103D400087EF92E09F938F931F920E9485550FB645
:103D5000F894DEBF0FBECDBF0E94B3DF0C94792B69
:103D60008EE40E945533882311F40C94792B0E9421
:103D7000C3326093E1087093E2088093E308909364
:103D8000E4080C94792B83E50E942633882359F0AC
:103D900083E50E945533882319F00E94D33201C075
:103DA00080E08093E908E0E6F8E284918F010F5FFC
:103DB0001F4F882321F00E945034F801F6CFE8E12C
:103DC000F3E084918F010F5F1F4F882321F00E9441
:103DD0005034F801F6CF8091E9088823A1F15AE028
:103DE000C52E53E0D52EE12CF12C20E08091E9087E
:103DF00090E00E2C02C0959587950A94E2F780FF1B
:103E000017C0BB24B394B20E222319F08CE20E9497
:103E10005034F60125913491F901849189010F5FA5
:103E20001F4F882321F00E9450349801F5CF2B2D8D
:103E3000FFEFEF1AFF0A32E0C30ED11C45E0E41693
:103E4000F104A1F60CC0E4E1F3E084918F010F5F6F
:103E50001F4F882321F00E945034F801F6CF8AE0EA
:103E60000E9450340C94792B109223020C94792BDD
:103E700083E50E945533882369F00E94D3328D3345
:103E800020F480933D020C94792B8CE380933D02C7
:103E90000C94792BE0E6F8E284918F010F5F1F4FBD
:103EA000882321F00E945034F801F6CF40913D0262
:103EB00050E060E070E088E293E00E94FA968AE0C9
:103EC0000E9450340C94792B8091E90883FF02C042
:103ED0000C94792B83E50E945533882311F40C94BC
:103EE000792B0E94F3320E94F6EB6739710514F0CA
:103EF00066E970E07093B1086093B0080C94792B78
:103F000089E690E00E945C37811111C0EFE2F3E096
:103F100084918F010F5F1F4F882321F00E9450343E
:103F2000F801F6CF0E94AAB28AE00E9450341092A3
:103F30005113109250130C94F13083E50E945533C5
:103F4000882311F40C94792B0E94D332182F8D33CF
:103F500008F01CE3109356130E9407446B017C0188
:103F6000212F30E0A8EEB3E00E94A2EAC60ED71ED1
:103F7000E81EF91EC0925213D0925313E0925413CC
:103F8000F09255130C94792B8DE690E00E945C37EB
:103F900081110C94792B8091E90883FF02C00C9465
:103FA000792B83E50E94553324968FAF2497811196
:103FB0000C94362C82E50E94553381110C94362CDA
:103FC0000C94792B8091E90883FF02C00C94792B23
:103FD00060E085E693E00E94375083E50E94553308
:103FE00024968FAF249781110C94BE2D82E50E94F8
:103FF000553381110C94BE2D0C94792B80E50E94D1
:104000005533811108C083E50E945533811109C0E1
:104010003FEF20E00AC00E94D33281110C94792B2B
:10402000F2CF0E94C332362F272F832F922F8F3F3C
:10403000910519F010F08FEF90E09093AF08809306
:10404000AE080C94792B80E50E945533811106C08F
:104050001092AF081092AE080C94792B0E94C332D4
:10406000672B11F00C94792BF3CF10921B050C9455
:10407000792B81E080931B050C94792B83E50E94BA
:1040800055338823A1F00E94F33220E030E04AE764
:1040900054E40E9400E70E94FBEB60933E027093A1
:1040A0003F0280934002909341020C94792B88E563
:1040B0000E94263381110C941A2F89E50E94263321
:1040C00081110C941A2F8AE50E94263381110C94D9
:1040D0001A2F85E40E94263381110C941A2F0E9416
:1040E0009AB60E948EC00C94792B83E50E942633E9
:1040F000882311F40C94792B0E94F33220E030E0F5
:104100004AE754E40E9400E70E94FBEB60935D13D2
:1041100070935E1380935F13909360130C94792BCC
:10412000D6018D916D010E942633882309F46DC05C
:10413000133009F063C00E94F3324B015C0120E0B0
:1041400030E040EA51E40E949BE687FF4EC0A501A3
:10415000940160911F09709120098091210990912B
:1041600022090E948EEB2B013C019B01AC01609166
:104170000F097091100980911109909112090E9404
:1041800000E760930F0970931009809311099093D1
:104190001209A301920160919E1670919F16809161
:1041A000A0169091A1160E9400E760939E1670934E
:1041B0009F168093A0169093A1166091F6087091B7
:1041C000F7088091F8089091F9080E949FE6A301F2
:1041D00092010E9400E70E94FBEB6093F608709347
:1041E000F7088093F8089093F90880921F0990923D
:1041F0002009A0922109B092220907C00E94F3323F
:10420000F70160837183828393831F5FF4E0EF0E75
:10421000F11C143009F084CF0E94146B0C94792B9C
:104220000E949AB60E9460380C94792BE3E3F4E084
:1042300084918F010F5F1F4F882321F00E9450341B
:10424000F801F6CF60E083E294E00E94B03761E0CD
:104250008CE194E00E94B03761E081E194E00E943B
:10426000B03761E081E094E00E94B03760E088EF11
:1042700093E00E94B03761E08EEE93E00E94B03789
:1042800060E084EE93E00E94B03760E08CED93E054
:104290000E94B03760E08EEC93E00E94B03760E09F
:1042A00080EC93E00E94B03760E081EB93E00E94E5
:1042B000B03761E083EA93E00E94B03761E08DE8B7
:1042C00093E00E94B03760E08CE793E00E94B03743
:1042D0000C94792B85E40E945533882319F00E94B1
:1042E000E43203C085E40E942633882361F0E0E6CF
:1042F000F8E284918F010F5F1F4F882321F00E9405
:104300005034F801F6CF81E40E945533882319F028
:104310000E94E43203C081E40E942633882361F0C6
:10432000E3EFF4E084918F010F5F1F4F882321F0AA
:104330000E945034F801F6CF0091C9121091CA12B0
:10434000D8018D918D01882309F489CD0E945034C4
:10435000F7CFEFE0F5E084918F010F5F1F4F8823C7
:1043600021F00E945034F801F6CFE7E0F5E08491A7
:104370008F010F5F1F4F882321F00E945034F801F6
:10438000F6CF029B03C003E013E002C008E013E095
:10439000F80181918F01882319F00E945034F8CFE1
:1043A0008AE00E945034EFEFF4E084918F010F5FB8
:1043B0001F4F882321F00E945034F801F6CF069B4E
:1043C00003C003E013E002C008E013E0D8018D91C0
:1043D0008D01882319F00E945034F8CF8AE00E94A2
:1043E0005034E7EFF4E084918F010F5F1F4F882373
:1043F00021F00E945034F801F6CF379B03C003E050
:1044000013E002C008E013E0F80181918F018823D6
:1044100009F425CD0E945034F7CF81E08093D0136A
:104420008093CF130C94792B1092D0131092CF134A
:104430000C94792B83E50E945533882319F00E9450
:10444000C33202C060E070E08B0111270230110519
:10445000D4F0E8E3F4E284918F010F5F1F4F8823CB
:1044600021F00E945034F801F6CFE9E2F5E08491A2
:104470008F010F5F1F4F882311F40C94792B0E943A
:104480005034F801F4CF88E40E9455338823A9F012
:104490000E94C3326A3A71053CF06530F1E07F0753
:1044A0002CF064E071E002C06AEA70E0F801EE0FFF
:1044B000FF1FE85AF74F7183608386E40E945533EB
:1044C0008823A9F00E94C332F801EE0FFF1FE45ABF
:1044D000F74F718360836F3F710519F014F06FEF30
:1044E00070E077FF02C060E070E07183608382E477
:1044F0000E945533882311F40C94792B0E94C33207
:104500006530710534F0683871052CF067E870E0AB
:1045100002C065E070E0000F111FF801EC5AF74F80
:10452000718360830C94792B83E50E945533882333
:1045300049F00E94C3328B016230710514F00C9473
:10454000792B02C000E010E080E50E9455338823FB
:1045500059F00E94F3326B017C0120E030E0A901A8
:104560000E949BE687FF04C060E070E0CB011CC0A6
:104570002DEB37E346E855EBC701B6010E94D8ECB6
:1045800087FD0AC02DEB37E346E855E3C701B601C6
:104590000E949BE6181644F7A701960160E070E0C0
:1045A00080E89FE30E948EEB000F111F000F111F88
:1045B000F801E256FA4F60837183828393830C94EF
:1045C000792B83E50E945533882349F00E94C3323A
:1045D0008B016031710514F00C94792B02C000E05E
:1045E00010E0C0909E05D0909F05E090A005F0904F
:1045F000A1052DEB37E346E855EBC701B6010E9454
:10460000D8EC87FF09C0A701960160E070E080E860
:104610009FE30E948EEB0DC02DEB37E346E855E398
:10462000C701B6010E949BE618166CF360E070E0CB
:10463000CB0120E030E0A9010E94B2EA4B015C010D
:10464000C090A205D090A305E090A405F090A50528
:104650002DEB37E346E855EBC701B6010E94D8ECD5
:1046600087FF0BC0A701960160E070E080E89FE340
:104670000E948EEB9B01AC010DC02DEB37E346E8A9
:1046800055E3C701B6010E949BE618165CF320E0D3
:1046900030E0A901C501B4010E94B2EA4B015C01FE
:1046A00020E030E040E85FE30E94B1EA6B017C016A
:1046B0002DEB37E346E855EB0E94D8EC87FF03C0AB
:1046C000EBE4F5E00EC02DEB37E346E855E3C70118
:1046D000B6010E949BE618169CF332C00E9450342B
:1046E000F70184917F012FEFE21AF20A8111F6CFD0
:1046F000A501940160919E0570919F058091A00590
:104700009091A1050E9400E760939E0570939F051C
:104710008093A0059093A105A50194016091A20545
:104720007091A3058091A4059091A5050E9400E7D2
:104730006093A2057093A3058093A4059093A505AB
:10474000E3E0000F111FEA95E1F7F801EA55FA4F8F
:1047500080919E0590919F05A091A005B091A10523
:1047600080839183A283B3838091A2059091A30556
:10477000A091A405B091A50584839583A683B783F2
:10478000B8C788EC90E00E945C378111B2C784E41E
:104790000E9426338823C1F10E94F33211E020E009
:1047A00030E0A9010E949BE6811101C010E0109346
:1047B0002809112349F10E94F332E091641234E098
:1047C000E39FF0011124EC5DF64F608371838283D7
:1047D000938320E030E0A9016091240970912509BC
:1047E00080912609909127090E949BE681110CC0B7
:1047F00080E090E0A0EEBFE3809324099093250928
:10480000A0932609B09327090E948A5B72C762EAC7
:10481000E62E66E1F62E05E812E074E0D72ED00E03
:10482000D8018D918D010E942633882349F00E9482
:10483000F3320E94FBEBF7016083718382839383E1
:10484000F4E0EF0EF11CD012EBCF0E94E76951C7E4
:1048500042E9E42E46E1F42E05E812E054E0D52EBC
:10486000D00ED8018D918D010E942633882339F016
:104870000E94F332F7016083718382839383F4E0B3
:10488000EF0EF11CD012EDCF34C783E50E94263322
:104890008823D9F00E94F332AB01BC014093BA16D1
:1048A0005093BB166093BC167093BD164093B2161E
:1048B0005093B3166093B4167093B51688ED95E0D7
:1048C0000E9489698AE00E94503480E50E94263364
:1048D000882399F00E94F332AB01BC014093BA16D1
:1048E0005093BB166093BC167093BD168BEB95E08E
:1048F0000E9489698AE00E94503482E50E94263332
:10490000882399F00E94F332AB01BC014093B616A4
:104910005093B7166093B8167093B9168CE995E06A
:104920000E9489698AE00E94503484E50E942633FF
:10493000882309F4DEC60E94F332AB01BC01409328
:10494000B2165093B3166093B4167093B5168EE7F3
:1049500095E00E9489698AE00E945034CAC683E5C6
:104960000E942633882351F00E94F33260938E1602
:1049700070938F16809390169093911684E50E9401
:104980002633882351F00E94F33260938A16709385
:104990008B1680938C1690938D1682E40E9426339A
:1049A000882351F00E94B3326093E5087093E608C3
:1049B0008093E7089093E80888E50E9426338823CF
:1049C00051F00E94F33260930309709304098093BD
:1049D00005099093060989E50E942633882351F042
:1049E0000E94F332609307097093080980930909C4
:1049F00090930A098AE50E942633882351F00E9489
:104A0000F33260930B0970930C0980930D09909316
:104A10000E0985E40E942633882309F46AC60E94A1
:104A2000F33260930F0970931009809311099093EA
:104A300012095FC684918F010F5F1F4F882321F0F9
:104A40000E945034F801F6CF83E50E942633882374
:104A500021F00E94E43280931602E8E2F6E08491AD
:104A60008F010F5F1F4F882321F00E945034F801FF
:104A7000F6CF80911602811103C0E4E2F6E002C095
:104A8000E0E2F6E084918F010F5F1F4F882321F051
:104A90000E945034F801F6CFE8E1F6E084918F01EE
:104AA0000F5F1F4F882321F00E945034F801F6CF8A
:104AB00040E050E0BA0186E196E00E94896940E05A
:104AC00050E0BA0183E196E00E94896940E050E03D
:104AD000BA0180E196E00E948969E8E0F6E08491FD
:104AE0008F010F5F1F4F882321F00E945034F8017F
:104AF000F6CF40E050E06AE773E486E096E00E947B
:104B0000896940E050E06AE773E483E096E00E9440
:104B1000896940E050E06AE773E480E096E00E9433
:104B200089698AE00E945034E4C583E50E945533C8
:104B3000882309F4DEC50E94C33270931802609383
:104B40001702D7C58DED90E00E945C378111D1C569
:104B500083E50E945533882309F4CBC50091641284
:104B600010E00E94C332000F111FF801E85DFD4FF5
:104B7000718360838091641290E08C01000F111F9B
:104B8000000F111F98012C5D3D4F7901880F991F6F
:104B9000FC01E85DFD4F60817181072E000C880BE0
:104BA000990B0E94A1E62AE037ED43E25CE30E9404
:104BB00000E7F801EC5CFE4E208131814281538197
:104BC0000E9400E7D7016D937D938D939C9313977B
:104BD00090C580E50E942633882309F48AC50E9487
:104BE000C3326B017C0183E50E945533882321F099
:104BF0000E94C3328B0102C00FEF1FEFC801019664
:104C0000039708F076C5D7FC74C59C2DE8E3F6E061
:104C10008BE28E0F2491921709F46BC531968E1397
:104C2000F9CF0C94C93083E50E945533882319F0DD
:104C30000E94C33202C064E071E079A368A380E5FA
:104C40000E945533882339F00E94C3326938B3E19A
:104C50007B0730F402C068EE73E07A83698304C096
:104C600088E893E19A838983BE01605E7F4FCE011D
:104C700001960E9451553DC585E40E94553381112E
:104C800010C080E50E942633882391F00E94F33201
:104C900060934708709348088093490890934A08A6
:104CA00007C00E94D332882361F3E8E3F4E271C0C5
:104CB00089E40E942633882381F00E94F3322CEA93
:104CC00035EC47E25EE30E9400E760934F08709383
:104CD0005008809351089093520884E40E94263330
:104CE000882381F00E94F3322CEA35EC47E25EE340
:104CF0000E948EEB60934B0870934C0880934D0894
:104D000090934E08E0E6F8E284918F010F5F1F4F09
:104D1000882321F00E945034F801F6CF40914708D3
:104D2000509148086091490870914A088BE696E0D6
:104D30000E9489692CEA35EC47E25EE360914F08F6
:104D40007091500880915108909152080E948EEB0A
:104D5000AB01BC0187E696E00E946C692CEA35EC59
:104D600047E25EE360914B0870914C0880914D08DA
:104D700090914E080E9400E7AB01BC0183E696E0EB
:104D80000E946C698AE00E945034B3C40E9450347F
:104D9000F80184918F010F5F1F4F8111F7CF02E659
:104DA00013E0F80181918F01882309F458C80E940B
:104DB0005034F7CF80E50E942633882351F00E94BB
:104DC000F33260935C1270935D1280935E12909345
:104DD0005F1289E40E942633882381F00E94F33217
:104DE0002CEA35EC47E25EE30E9400E7609358123C
:104DF0007093591280935A1290935B1284E40E942C
:104E00002633882381F00E94F3322CEA35EC47E206
:104E10005EE30E948EEB6093541270935512809360
:104E2000561290935712E0E6F8E284918F010F5FDB
:104E30001F4F882321F00E945034F801F6CF409193
:104E40005C1250915D1260915E1270915F1287E763
:104E500096E00E9489692CEA35EC47E25EE36091B6
:104E600058127091591280915A1290915B120E94BF
:104E70008EEBAB01BC0183E796E00E946C692CEAE3
:104E800035EC47E25EE360915412709155128091C7
:104E90005612909157120E9400E7AB01BC018FE6B9
:104EA00096E00E946C698AE00E94503422C485E436
:104EB0000E945533882321F00E94C3327B0102C037
:104EC000E12CF12C83E40E945533882331F00E94B9
:104ED000C332A5966FAFA59704C025E0A5962FAF66
:104EE000A59785E50E945533882319F00E94E43286
:104EF00003C085E50E942633E0968FAFE097F7FC6C
:104F000007C0812C912C06E1A02E03E4B02E06C030
:104F1000812C912C1CE8A12E12E4B12E83E50E9475
:104F20005533882321F00E94F3324B015C01E114D8
:104F3000F10411F4109264120E9407442B013C0109
:104F400081E08E0D823018F403E713E00CC006E810
:104F500013E0D8018D918D01882311F40C942F1F3B
:104F60000E945034F6CFF80181918F01882319F007
:104F70000E945034F8CFEBAE8AE00E9450340E9479
:104F800036B3FBADF7FF04C08FE78093631207C011
:104F9000EE2DEE0CFF0BEE59FD4E8FE78083C50121
:104FA000B4010E94F6EB072E000C880B990B0E94AF
:104FB000A1E664966FAF649768967FAF689769962D
:104FC0008FAF69976A969FAF6A9781E080932302BB
:104FD000AB964CAE5DAE6EAE7FAEAB97E4964CAE8C
:104FE0005DAE6EAE7FAEE4976B961FAE6B9720E41E
:104FF0006C962FAF6C973CE16D963FAF6D9746E492
:105000006E964FAF6E976F961FAE6F97A0961FAEBE
:10501000A097A1961FAEA197A2961FAEA2976396E6
:105020001CAE1DAE1EAE1FAE63972F961CAE1DAEFE
:105030001EAE1FAE2F97C12CD12C7601AFE78A2E62
:10504000912CA12CB12C8FE790E0A0E0B0E0279646
:105050008CAF9DAFAEAFBFAF2797AF961CAE1DAE66
:105060001EAE1FAEAF9791E0A7969FAFA797299668
:105070001FAE1EAE299710E0212C312C00E0ABAD05
:105080008A2FAA0F990BFC01EE59FD4EE696FFAF51
:10509000EEAFE697880F991F880F991F9C01275A3A
:1050A000364FA4963FAF2EAFA497A5964FADA597C8
:1050B000042E000C550BA6965FAF4EAFA6978091BD
:1050C0002302882309F41CC10E94074423966CAF75
:1050D0007DAF8EAF9FAF239780916012882309F434
:1050E000EBC00E94C3B55BAD57FF09C010915D09CD
:1050F00020905E0930905F09009160090DC0A49670
:10510000AEADBFADA4971C9111962C90119712963D
:105110003C90129713960C91212F322D432D502F36
:105120006F966FAD6F97A0967FADA097A1968FAD4C
:10513000A197A2969FADA2970E949BE687FF0CC005
:105140006F961FAF6F97A0962FAEA097A1963FAE18
:10515000A197A2960FAFA297212F322D432D502F4A
:105160006B966FAD6B976C967FAD6C976D968FADB0
:105170006D976E969FAD6E970E94D8EC181664F4EA
:105180006B961FAF6B976C962FAE6C976D963FAE7C
:105190006D976E960FAF6E97A796BFADA797649663
:1051A0002FAD649768963FAD689769964FAD699744
:1051B0006A965FAD6A97612F722D832D902FBB2366
:1051C00009F45EC00E94D8EC18160CF075C0239646
:1051D0004CAD5DAD6EAD7FAD2397441955096609A1
:1051E0007709DB01CA0188589341A109B109B7FDCC
:1051F00063C027968CAD9DADAEADBFAD2797881926
:105200009909AA09BB09EBADB595A795979587951F
:10521000E7FF03C08093631205C0E696EEADFFADD5
:10522000E6978083AF964CAF5DAF6EAF7FAFAF9721
:105230006496FFAD64976F96FFAF6F9768962FAD3A
:105240006897A0962FAFA09769963FAD6997A196F2
:105250003FAFA1976A964FAD6A97A2964FAFA297BC
:1052600023968CAD9DADAEADBFAD2397AB968CAF05
:105270009DAFAEAFBFAFAB97A7961FAEA7971CC0B1
:105280000E949BE687FF18C023968CAD9DADAEAD06
:10529000BFAD2397AB962CAD3DAD4EAD5FADAB979B
:1052A000821B930BA40BB50BAC01BD0148585341B5
:1052B0006109710977FFDDC520E030E040EA51E483
:1052C00064966FAD649768967FAD689769968FAD69
:1052D00069976A969FAD6A970E94B2EA9B01AC01FA
:1052E000612F722D832D902F0E94D8EC18167CF41C
:1052F000E8E3F7E084918F010F5F1F4F811103C036
:105300000E9436B3F6C10E945034F801F3CF2396C1
:105310008CAD9DADAEADBFAD2397E4962CAD3DAD4C
:105320004EAD5FADE497821B930BA40BB50BB7FD9D
:1053300015C00E94AAB28AE00E94503423968CAD18
:105340009DADAEADBFAD23978053984FAF4FBF4FCC
:10535000E4968CAF9DAFAEAFBFAFE49723968CAD14
:105360009DADAEADBFAD2397880F991FAA1FBB1F80
:10537000AB962CAD3DAD4EAD5FADAB97821B930BA5
:10538000A40BB50B84199509A609B70981389F4468
:10539000A241B10568F0EAE1F7E084918F010F5F67
:1053A0001F4F882309F4ACCF0E945034F801F5CF89
:1053B00029964EAD5FAD2997A6968EAD9FADA69767
:1053C000841795070CF0B1C0EDEBF6E084918F01E6
:1053D0000F5F1F4F882321F00E945034F801F6CF51
:1053E0009BAD97FD03C004E015E002C002E113E0AD
:1053F000B8018BEA96E00E94BF69B701A60187EA6F
:1054000096E00E9489698AE00E945034B80185E9DB
:1054100096E00E94BF692F964CAD5DAD6EAD7FAD3D
:105420002F9781E996E00E9489698AE00E945034B2
:10543000B8018FE796E00E94BF6963964CAD5DAD01
:105440006EAD7FAD63978BE796E00E9489698AE035
:105450000E945034E096AFADE097AA2309F449C109
:10546000BBADB7FF31C0C0925C12D0925D12E0922A
:105470005E12F0925F122CEA35EC47E25EE32F9663
:105480006CAD7DAD8EAD9FAD2F970E9400E7609310
:1054900058127093591280935A1290935B122CEA0F
:1054A00035EC47E25EE363966CAD7DAD8EAD9FADAE
:1054B00063970E948EEB6093541270935512809301
:1054C00056129093571215C1C0924708D0924808BF
:1054D000E0924908F0924A082CEA35EC47E25EE394
:1054E0002F966CAD7DAD8EAD9FAD2F970E9400E7DE
:1054F00060934F087093500880935108909352081E
:105500002CEA35EC47E25EE363966CAD7DAD8EAD83
:105510009FAD63970E948EEB60934B0870934C088D
:1055200080934D0890934E08E4C00E946550C7CD0B
:10553000F80181918F01882319F00E945034F8CF2F
:105540008AE00E94503481E080932309D2C0D801C0
:105550008D918D01882319F00E945034F8CF8AE094
:105560000E94503410922309C4C00E944EB7C1C09B
:105570000E946B7FBEC00E943D7EBBC080E50E9442
:105580005533882331F00E94D3328093260611E0F0
:1055900001C010E083E50E945533882329F00E9462
:1055A000E4328093270601C01111AFD6E0E6F8E29D
:1055B00084918F010F5F1F4F882321F00E94503488
:1055C000F801F6CF8091270681110CC00FEA13E095
:1055D000F80181918F01882311F40C942F1F0E94F0
:1055E0005034F6CF6091260670E08CEA97E00E9476
:1055F000A6698AE00E9450347CC081E08093380222
:105600001092DE0883E50E945533882311F0DCD721
:1056100003C083E50E94263381116BC00E94B6C08F
:1056200068C0E091CB12F091CC12FE2E2FE02E1725
:1056300008F1FF2783E0EE0FFF1F8A95E1F7EA5597
:10564000FA4F80819181A281B38180939E059093CE
:105650009F05A093A005B093A10584819581A681A3
:10566000B7818093A2059093A305A093A405B0935E
:10567000A5053FC0E0E6F8E284918F010F5F1F4F60
:10568000882321F00E945034F801F6CF84E50E946F
:1056900050346F2D70E080E090E04AE00E94F636D2
:1056A00080E20E94503402E613E0D8018D918D0112
:1056B000882311F40C942F1F0E945034F6CFE0E69B
:1056C000F8E284918F010F5F1F4F882321F00E9421
:1056D0005034F801F6CF609157137091581389EB4D
:1056E00097E00E94BF6982E20E9450348AE00E94E3
:1056F000503410925113109250130E9497C071C5EC
:10570000E0D780911602882321F08EEB98E00E946A
:10571000ACC40E9445348091E90883FD52C0C0901A
:10572000CA08D090CB08E090CC08F090CD088090CB
:10573000DA089090DB08A090DC08B090DD08A501A5
:105740009401C701B6010E949BE6882309F439C081
:10575000A5019401C701B6010E94B1EA9F7720918B
:1057600024023091250240912602509127020E9486
:1057700000E720E030E048E453E40E94D8EC18163B
:1057800004F5C092DA08D092DB08E092DC08F092CF
:10579000DD08E0E6F8E284918F010F5F1F4F882358
:1057A00021F00E945034F801F6CFE9EDF1E0849148
:1057B0008F010F5F1F4F882321F00E945034F801A2
:1057C000F6CF6091170270911802072E000C880B1B
:1057D000990B0E94A1E62091190230911A02409182
:1057E0001B0250911C020E9400E72AE037ED43E2C1
:1057F0005CE30E9400E769837A838B839C83E12CBE
:105800008E010F5F1F4F2AEC38E046EC58E062EC47
:1058100078E08EEB98E00E943E6B0E943B3469CFAB
:10582000B2D6AB01BC014093301450933114609355
:1058300032147093331482ED95E10E945B9759CF37
:1058400061E0802F0E94CC426E2D802F0E949D42ED
:10585000F12CB701802F0E9408430930110509F08F
:1058600048CFF092AF08E092AE0843CFBCD60E947A
:10587000F6EB7093B3086093B208B5D620E030E041
:105880004AEA52E40E949BE6181644F00E942AC796
:1058900060E08BE493E00E94375002C00E949F5565
:1058A0006091B2087091B308072E000C880B990B19
:1058B0000E94A1E62091590930915A0940915B0953
:1058C00050915C090E94D8EC1816B4F487E593E077
:1058D0009F938F938091641290E001969F938F9392
:1058E00084E493E09F938F931F920E9485550FB697
:1058F000F894DEBF0FBECDBF0E94B3DF81E080937E
:10590000230223961CAE1DAE1EAE1FAE23972B9610
:105910001CAE1DAE1EAE1FAE2B971BAE2C961FAE3F
:105920002C979CE360969FAF6097ACE16496AFAF15
:105930006497B6E46896BFAF6897E12CF12C00E855
:105940001FEB812C912C54016091B2087091B30827
:10595000072E000C880B990B0E94A1E6762E672E6D
:10596000582E492E262F372F482F592FB701C801FF
:105970000E949BE6882321F12091590930915A0910
:1059800040915B0950915C09672D762D852D942DF2
:105990000E949BE6881F8827881F8BAF2496EFAD57
:1059A0002497EE2389F0882379F0809123028823BD
:1059B00009F49FCE60E082E393E00E94375099CED5
:1059C0007E2C6F2C502E412E0E9407446B017C01CF
:1059D000DC01CB012B962CAD3DAD4EAD5FAD2B97D1
:1059E000821B930BA40BB50BB7FD39C0D701C601C1
:1059F00088519C4FAF4FBF4F2B968CAF9DAFAEAF32
:105A0000BFAF2B970E94AAB2E0E4F3E084918F012C
:105A10000F5F1F4F882319F043D7F801F7CF811488
:105A20009104A104B104B9F0D501C401805F984D7F
:105A3000AF4FBF4FBC01CD016C197D098E099F0985
:105A400028EE33E040E050E00E9476EACA01B90156
:105A50000E94963702C08FE323D78AE021D70E94A5
:105A600028BE13D72090590930905A0900915B093C
:105A700010915C099101A801672D762D852D942D3B
:105A80000E94B1EA9F7781149104A104B10449F402
:105A900020E030E040E85FE30E949BE687FF0BC018
:105AA00008C020E030E040E450E40E94D8EC181632
:105AB00014F4460157019BAD992309F443C0239682
:105AC0002CAD3DAD4EAD5FAD2397211531054105A0
:105AD000510541F0D701C601821B930BA40BB50BF6
