:100000000C945B110C948C110C948C110C948C112D
:100010000C948C110C948C110C948C110C948C11EC
:100020000C948C110C948C110C948C110C948C11DC
:100030000C948C110C948C110C948C110C948C11CC
:100040000C948C110C9417980C948C110C948C11AA
:100050000C948C110C948C110C9448870C945E3980
:100060000C948C110C94DC360C948C110C948C1127
:100070000C948C110C948C110C948C110C948C118C
:100080000C948C110C948C110C948C110C948C117C
:100090000C948C110C948C110C948C110C948C116C
:1000A0000C948C110C948C110C948C110C948C115C
:1000B0000C948C110C948C110C948C110C948C114C
:1000C0000C948C110C948C110C948C110C948C113C
:1000D0000C948C110C948C110C948C110C948C112C
:1000E0000C948C114B374E373D37413747378537A6
:1000F000523756375C37603764376A376E37723736
:10010000853778377C3780377A387F3884388E382F
:1001100098381139A238AA38B238BC38C638D03825
:10012000DF38E9381139F338FD380739084AD73B49
:100130003BCE016E84BCBFFDC12F3D6C74319ABDB6
:1001400056833DDA3D00C77F11BED9E4BB4C3E91DA
:100150006BAAAABE000000803F05A84CCDB2D44EC9
:10016000B93836A9020C50B9918688083CA6AAAACB
:100170002ABE000000803F004E414E494E4954596E
:10018000494E46CDCCCC3D0AD7233C17B7D1387762
:10019000CC2B329595E6241FB14F0A000020410078
:1001A00000C84200401C4620BCBE4CCA1B0E5AAEC2
:1001B000C59D74434F4D4D554E49434154494F4E93
:1001C0000044525952554E004552524F5253004925
:1001D0004E464F004543484F0020746F6F206C6FB0
:1001E0006E6720657874727573696F6E20707265C2
:1001F00076656E7465640A0047322F47332062616A
:100200006420706172616D65746572730A00536C6D
:100210006565702E2E2E00526573756D696E6720B0
:100220007072696E74004131302072656164792E9C
:1002300000436C69636B20746F20726573756D6524
:100240002E2E2E004E6F206D6F76652E00456E644B
:100250002066696C65206C6973740A004265676981
:100260006E2066696C65206C6973740A0025697379
:100270000025696D20256973002569682025696D51
:100280002025697300256964202569682025696D2A
:10029000202569730025697920256964202569680E
:1002A0002025696D20256973005072696E74207471
:1002B000696D653A200050726F74656374656420DF
:1002C00050696E0A004525692025730041313020B0
:1002D00072656164792E00D401CF01C801C101B3F8
:1002E000016F66660044454255473A004B494C4C05
:1002F00045442E20004D3131332053006F6B0048B0
:10030000656174696E6720646F6E652E0020573AD0
:1003100000452569202573004131302072656164F4
:10032000792E0042656420646F6E652E0020573A76
:10033000004265642048656174696E672E00413132
:1003400030204F66662E00454D455247454E435975
:100350005F50415253455200434153455F4C49471A
:1003600048545F4252494748544E45535300544FF6
:1003700047474C455F4C494748545300534F4654F8
:10038000574152455F504F574552004255494C44E2
:100390005F50455243454E54004C4556454C494EDE
:1003A000475F44415441005A5F50524F424500411B
:1003B00055544F4C4556454C005052494E545F4A97
:1003C0004F420050524F4752455353004155544FEE
:1003D0005245504F52545F54454D5000564F4C5566
:1003E0004D455452494300454550524F4D005345E9
:1003F0005249414C5F584F4E5F584F464600464960
:10040000524D574152455F4E414D453A4D61726CD8
:10041000696E20312E312E38202847697468756244
:100420002920534F555243455F434F44455F555232
:100430004C3A68747470733A2F2F676974687562E8
:100440002E636F6D2F4D61726C696E4669726D77A8
:100450006172652F4D61726C696E2050524F544F1E
:10046000434F4C5F56455253494F4E3A312E302040
:100470004D414348494E455F545950453A4131300A
:100480002045585452554445525F434F554E543AB7
:100490003120555549443A63656465326132662DB1
:1004A000343161322D343734382D396231322D6395
:1004B00035356336326633363766660A002F2F20AD
:1004C000007A5F6D696E3A2000795F6D696E3A203F
:1004D00000785F6D696E3A20005265706F727469C2
:1004E0006E6720656E6473746F70207374617475C9
:1004F000730A004D31343520533C696E6465783E93
:10050000206F7574206F662072616E6765202830D9
:100510002D31290A0053657474696E672054726125
:1005200076656C20416363656C65726174696F6E9A
:100530003A200053657474696E6720526574726165
:10054000637420416363656C65726174696F6E3AB0
:10055000200053657474696E67205072696E742050
:10056000416363656C65726174696F6E3A20005314
:10057000657474696E67205072696E7420616E6470
:100580002054726176656C20416363656C657261AD
:1005900074696F6E3A2000205A00205900580020DC
:1005A000204D61783A2000205A0020590058002040
:1005B000204D696E3A20004F6E20004F6666005352
:1005C0006F667420656E6473746F70733A200000F8
:1005D0000125272318FF1F211D1CFF19171B1EFFB4
:1005E000FF0C0409FFFFFF2E2C0CFFFF04400AFF45
:1005F00041FFFFFFFFFFFF20643A0020693A00201F
:10060000703A0020643A0020693A0020703A004BAA
:1006100064200023646566696E6520204445464178
:10062000554C545F004B69200023646566696E6514
:10063000202044454641554C545F004B7020002318
:10064000646566696E65202044454641554C545F9B
:1006500000504944204175746F74756E6520666959
:100660006E69736865642120507574207468652014
:100670006C617374204B702C204B6920616E642078
:100680004B6420636F6E7374616E74732066726F57
:100690006D2062656C6F7720696E746F20436F6E9A
:1006A00066696775726174696F6E2E680A005049D9
:1006B00044204175746F74756E65206661696C6560
:1006C00064212074696D656F75740A005049442077
:1006D0004175746F74756E65206661696C6564211F
:1006E0002054656D706572617475726520746F6FEA
:1006F00020686967680A00204B643A2000204B6933
:100700003A2000204B703A20000A20436C6173733A
:10071000696320504944200A002054753A20002083
:100720004B753A2000206D61783A2000206D696E8B
:100730003A200020643A200020626961733A200068
:1007400043617365206C696768743A200041637483
:100750006976652045787472756465723A20005533
:100760006E6B6E6F776E20636F6D6D616E643A2095
:1007700022004C696E65204E756D6265722069734A
:10078000206E6F74204C617374204C696E65204E2E
:10079000756D6265722B312C204C617374204C692D
:1007A0006E653A20004B494C4C45442E2000535472
:1007B0004F505045442E20005072696E746572206F
:1007C00073746F707065642064756520746F206544
:1007D00072726F72732E2046697820746865206586
:1007E00072726F7220616E6420757365204D3939A5
:1007F0003920746F20726573746172742E202854CE
:10080000656D7065726174757265206973207265BB
:100810007365742E20536574206974206166746555
:10082000722072657374617274696E67290A004E72
:100830006F20436865636B73756D207769746820FA
:100840006C696E65206E756D6265722C204C6173EB
:1008500074204C696E653A2000636865636B73753C
:100860006D206D69736D617463682C204C617374C5
:10087000204C696E653A20004D313130004D3331E6
:100880000047323820585900534420726561642073
:100890006572726F720A00446F6E65207072696EC5
:1008A00074696E672066696C650A0020496E76611E
:1008B0006C6964206578747275646572200046699D
:1008C0006C652064656C657465643A0044656C65AC
:1008D00074696F6E206661696C65642C2046696C72
:1008E000653A20006F70656E206661696C65642CE6
:1008F0002046696C653A2000205A3A0020593A0097
:1009000020436F756E7420583A0020453A00205AF3
:100910003A0020593A00583A003A004361703A00D0
:100920004B494C4C45442E2000202D20496E7661C9
:100930006C6964206578747275646572206E756D7B
:1009400062657220210A002D2D2D2D2D2D007C4D4C
:1009500061726C696E7C002D2D2D2D2D2D0068741B
:1009600074703A2F2F6D61726C696E66772E6F729C
:100970006700687474703A2F2F6D61726C696E66CF
:10098000772E6F72670020312E312E38007265632A
:100990006F766572792564002020506C616E6E65FB
:1009A0007242756666657242797465733A200020FA
:1009B00046726565204D656D6F72793A2000436F10
:1009C0006D70696C65643A20417567203231203260
:1009D0003031380A00207C20417574686F723A20EB
:1009E000286E6F6E652C2064656661756C7420637B
:1009F0006F6E666967290A00323031372D31322D2A
:100A000032352031323A303000204C617374205539
:100A10007064617465643A2000312E312E380A000A
:100A20004D61726C696E0020536F667477617265F8
:100A30002052657365740A00205761746368646F9F
:100A4000672052657365740A002042726F776E20CA
:100A50006F75742052657365740A0020457874655B
:100A6000726E616C2052657365740A00506F776511
:100A70007255700A0073746172740A006572726F45
:100A8000722077726974696E6720746F2066696C72
:100A9000650A00456E6473746F70732025632025AA
:100AA0006320256320256300205A3A0020593A002C
:100AB00020583A00656E6473746F707320686974AF
:100AC0003A200047323820580047636F203A200010
:100AD0004732382059004732382058004D313039DC
:100AE00020543020532575004D3139302053257561
:100AF00000446F6E6520736176696E672066696C6D
:100B0000652E0A004D323900436172642072656DB2
:100B10006F766564004361726420696E73657274F8
:100B200065640000002100240027002A002D003009
:100B300000330001010000040107010A0100002246
:100B400000250028002B002E003100340002010097
:100B500000050108010B01000020002300260029E8
:100B6000002C002F003200000100000301060109E3
:100B70000105050505070508080808020202020A22
:100B80000A08080404040401010101010101010330
:100B900003030303030303040707070C0C0C0C0CEB
:100BA0000C0C0C0202020206060606060606060BDE
:100BB0000B0B0B0B0B0B0B01021020200808102055
:100BC00040102040800201020108040201010204D9
:100BD0000810204080804020100804020180040298
:100BE00001804020100804020108040201010204EF
:100BF0000810204080010204081020408000000AF4
:100C00000B02090C0D0E0807030401000000000090
:100C100000000000000000000000000000000000D4
:100C20000000000000000000001211100000000091
:100C300000000000000000000000000000000000B4
:100C4000000000290A002062797465733B206372FA
:100C500063200053657474696E67732053746F72F8
:100C6000656420280077726974652066696C652068
:100C70006E616D653A2000290A00206279746573FF
:100C80003B206372632000706F7765726F66662029
:100C900053746F726564202800200D0A62797465B0
:100CA000733B20637263206572726F722000200DA7
:100CB0000A62797465733B20637263206572726F98
:100CC000722000726561642066696C65206E616DDA
:100CD000653A2000726561642066696C652064690C
:100CE000723A2000290A002062797465733B206300
:100CF00072632000706F7765726F66662073746F21
:100D00007265642073657474696E677320726574AC
:100D1000726965766564202800202863616C6375BC
:100D20006C6174656429210A0020213D200045453D
:100D300050524F4D20435243206D69736D6174636F
:100D400068202D202873746F726564292000290A99
:100D5000002062797465733B206372632000207306
:100D6000746F7265642073657474696E6773207242
:100D70006574726965766564202800204D61726C27
:100D8000696E3D563437290A0028454550524F4D6B
:100D90003D00454550524F4D2076657273696F6E28
:100DA000206D69736D6174636820007C3C3E5E2B2E
:100DB0003D3F2F5B5D3B2C2A225C004572726F72B7
:100DC0002077726974696E6720746F2045455052B0
:100DD0004F4D210A004D31303420532575004739DD
:100DE000322045257500473932205A25752E257544
:100DF000004D353030004E4F2020005965732020C3
:100E000000526573756D65207072696E74203F00C5
:100E100025753A2530327500253032753A25303245
:100E200075002D2D2D005344005A005900580050D4
:100E300072696E7420706175736564000050726928
:100E40006E742061626F72746564004E6F2053444B
:100E50002063617264005072696E742066726F6DF7
:100E60002053440053746F70207072696E74005286
:100E70006573756D65207072696E740041626F757F
:100E800074205072696E74657200506175736520CC
:100E90007072696E7400436F6E74726F6C00507282
:100EA00065706172650054756E6500496E666F20ED
:100EB00073637265656E0053746570732F6D6D009A
:100EC0004A65726B00416363656C65726174696F3A
:100ED0006E0056656C6F6369747900436F6E74724F
:100EE0006F6C0046696C616D656E74204F666600BC
:100EF00046696C616D656E74204F6E200046696CAA
:100F0000616D656E74204F66660046696C616D6543
:100F10006E74204F6E200046696C2E204469612E4D
:100F20000046696C2E204469612E004F6666004FB2
:100F30006E20004520696E206D6D3300436F6E7426
:100F4000726F6C0043616E6E6F7420656E746572B3
:100F5000207375626469723A2000052E2E004D617F
:100F6000696E004D61782054656D703A20313530DE
:100F7000004D696E2054656D703A2035005442650D
:100F8000643A4550434F53203130304B004D617827
:100F90002054656D703A20323735004D696E20540B
:100FA000656D703A20350054303A204550434F5318
:100FB000203130304B005053553A2047656E6572F2
:100FC00069630050726F746F636F6C3A20312E301A
:100FD00000426175643A2032353030303000475479
:100FE000323536302056332E3000457874727564B1
:100FF0006572733A203100687474703A2F2F6D61F6
:10100000726C696E66772E6F726700413130003204
:101010003031372D31322D32352031323A303000F7
:10102000312E312E38004D61726C696E0054686546
:10103000726D6973746F727300426F6172642049DC
:101040006E666F005072696E74657220496E666FCD
:10105000004D61696E0020746F6F206C6F6E6720A9
:10106000657874727573696F6E2070726576656EDF
:101070007465640A00496E697469616C697A6520F7
:10108000454550524F4D00436F6E74726F6C005265
:101090006573746F7265206661696C736166650063
:1010A0004C6F61642073657474696E677300496E78
:1010B000697469616C697A6520454550524F4D00ED
:1010C00053746F72652073657474696E677300463C
:1010D000696C616D656E74004D6F74696F6E00545C
:1010E000656D7065726174757265004D61696E0041
:1010F000507265686561742041425320636F6E666B
:10110000005072656865617420504C4120636F6EB9
:1011100066005049442D44005049442D4400504934
:10112000442D49005049442D49005049442D500058
:101130005049442D50002002204661637400200273
:101140002046616374002002204D61780020022057
:101150004D6178002002204D6178002002204D6909
:101160006E002002204D696E002002204D696E0045
:101170004F6666004F6E20004175746F74656D7028
:101180000046616E2073706565640046616E207371
:10119000706565640042656400426564004E6F7A64
:1011A0007A6C65004E6F7A7A6C6500436F6E74726C
:1011B0006F6C0053746F72652073657474696E6729
:1011C000730042656400426564004E6F7A7A6C6514
:1011D000004E6F7A7A6C650046616E2073706565AB
:1011E000640046616E2073706565640054656D70BF
:1011F0006572617475726500466C6F7700466C6F3E
:10120000770046616E2073706565640046616E20EC
:1012100073706565640042656400426564004E6FEA
:101220007A7A6C65004E6F7A7A6C650053706565EA
:1012300064005370656564004D61696E00507265AD
:101240006865617420504C4120456E6400507265A1
:101250006865617420504C4120426564005072659D
:101260006865617420504C41005072657061726510
:1012700000507265686561742041425320456E6478
:101280000050726568656174204142532042656474
:101290000050726568656174204142530050726568
:1012A00070617265004261636B004E657874206303
:1012B0006F726E6572005072656865617420504C83
:1012C0004100436F6F6C646F776E005072656865A4
:1012D0006174204142530044697361626C652073FC
:1012E00074657070657273004D3834004C657665B6
:1012F0006C20636F726E657273004175746F206845
:101300006F6D6500473238004D6F766520617869F2
:1013100073004D61696E006265640A002C20737968
:101320007374656D2073746F7070656421204865F7
:10133000617465725F49443A200070012C0190018C
:101340002701B0012201C0011D01F00118011002A6
:10135000130130020E016002090190020401C00273
:10136000FF000003FA004003F5008003F000D00303
:10137000EB002004E6007004E100E004DC0040051E
:10138000D700C005D2004006CD00D006C8008007B7
:10139000C3003008BE00F008B900C009B400B00AAC
:1013A000AF00B00BAA00D00CA500000EA000500F9B
:1013B0009B00C01096005012910000148C00C015C4
:1013C0008700B0178200B0197D00D01B7800001E86
:1013D000730040206E0090226900F02464004027D2
:1013E0005F0090295A00E02B5500102E500020304D
:1013F0004B0010324600E033410090353C0010377E
:10140000370070383200A0392D00B03A2800A03BD8
:101410002300603C1E00103D1900903D1400103E5A
:101420000F00703E0A00C03E0500003F0000403F34
:10143000FBFF803FF6FFC03FF1FF4572723A204D3F
:10144000494E54454D5020424544004572723A2061
:101450004D494E54454D50004D494E54454D502038
:10146000747269676765726564004572723A204DEF
:10147000415854454D5020424544004572723A202F
:101480004D415854454D50004D415854454D502004
:1014900074726967676572656400202F002042409E
:1014A0003A0020403A00000000000102040400005D
:1014B000001C1C0C040404020100000000000408CD
:1014C000100000000000001C1F11111F000000068A
:1014D000191803130C00040E1F041C000000000E5A
:1014E0001315110E00001C10181705060500040A3C
:1014F0000A0A0A11110E0C12120C00000000001F43
:101500001511151F0000627573793A2070617573AB
:10151000656420666F7220696E7075740A0062756A
:1015200073793A2070617573656420666F722075F7
:101530007365720A00627573793A2070726F636521
:101540007373696E670A004B494C4C45442E20006A
:101550004B494C4C2063617573656420627920743B
:101560006F6F206D75636820696E6163746976655D
:101570002074696D65202D2063757272656E74200C
:10158000636F6D6D616E643A2000506C65617365C8
:10159000207265736574005052494E54455220487C
:1015A000414C544544005072696E74657220686104
:1015B0006C7465642E206B696C6C28292063616CE7
:1015C0006C6564210A0000000000000000000000BB
:1015D0000000000048420000484200008040000037
:1015E00000005761726E696E673A20486F6D696ED0
:1015F000672042756D702044697669736F72203C74
:1016000020310A000202040000A0400000A04000B7
:1016100000004000005C4300005C4300008243FF88
:10162000FFFF5654726176206D696E0056547261E8
:1016300076206D696E005654726176206D696E0079
:10164000566D696E00566D696E00566D696E005676
:101650006D6178204500566D6178204500566D61BA
:1016600078204500566D6178205A00566D617820CB
:101670005A00566D6178205A00566D6178205900E5
:10168000566D6178205900566D6178205900566D6D
:101690006178205800566D6178205800566D617849
:1016A0002058004D6F74696F6E00416D6178204560
:1016B00000416D6178204500416D6178205A0041FC
:1016C0006D6178205A00416D6178205900416D614B
:1016D00078205900416D6178205800416D61782073
:1016E0005800412D74726176656C00412D747261F1
:1016F00076656C00412D7265747261637400412DD2
:101700007265747261637400416363656C00416368
:1017100063656C004D6F74696F6E0056652D6A6568
:10172000726B0056652D6A65726B0056652D6A6591
:10173000726B00567A2D6A65726B00567A2D6A6557
:10174000726B0056792D6A65726B0056792D6A6549
:10175000726B0056792D6A65726B0056782D6A653A
:10176000726B0056782D6A65726B0056782D6A652B
:10177000726B004D6F74696F6E00457374657073A2
:101780002F6D6D004573746570732F6D6D005A7306
:10179000746570732F6D6D005A73746570732F6D5F
:1017A0006D005973746570732F6D6D005973746596
:1017B00070732F6D6D005873746570732F6D6D00AD
:1017C0005873746570732F6D6D004D6F74696F6E13
:1017D0000024F4D43050C38E20C2A24017828B70F4
:1017E00011127A910D816CD90AA861E108C7586677
:1017F00007615143061E4B5D05C145A7041A4111FF
:1018000004093D9803713931034036DB0265339199
:1018100002D4305402802E1D02632CEE01752AC5BD
:1018200001B028A001102781018F2564012B244BD2
:1018300001E0223401AC211F018D200D01801FFC2D
:1018400000841EED00971DDF00B81CD200E61BC609
:1018500000201BBC00641AB200B219A8000A19A02B
:10186000006A189900D117910040178B00B51684B3
:101870000031167E00B31579003A157300C7146F56
:101880000058146A00EE1366008813630025135E87
:1018900000C7125B006C12570015125400C11151A1
:1018A0000070114F0021114B00D61049008D1047D8
:1018B000004610440002104200C00F4000800F3E5E
:1018C00000420F3C00060F3B00CB0E3800930E3752
:1018D000005C0E3500270E3400F30D3200C10D31CF
:1018E00000900D3000600D2E00320D2D00050D2CE6
:1018F00000D90C2B00AE0C2900850C29005C0C27AC
:1019000000350C27000E0C2600E80B2400C40B2425
:1019100000A00B23007D0B23005A0B2100390B2163
:1019200000180B2000F80A1F00D90A1E00BB0A1E6F
:10193000009D0A1D00800A1D00630A1C00470A1B47
:10194000002C0A1B00110A1A00F7091A00DD0919F8
:1019500000C4091900AB091900920917007B091886
:1019600000630917004C09160036091600200916F5
:10197000000A091500F5081500E0081400CC081449
:1019800000B8081400A4081400900813007D081281
:10199000006B0813005808120046081200340811A2
:1019A00000230811001208110001081100F00710AF
:1019B00000E0071000D0071000C0071000B0070FAC
:1019C00000A107100091070E0083070F0074070F96
:1019D0000065070E0057070E0049070E003B070D74
:1019E000002E070E0020070D0013070D0006070D3F
:1019F00000F9060C00ED060D00E0060C00D4060C04
:101A000000C8060C00BC060C00B0060C00A4060BB7
:101A10000099060C008D060B0082060B0077060B62
:101A2000006C060B0061060A0057060B004C060A04
:101A30000042060A0038060A002E060A0024060A9A
:101A4000001A060A001006090007060A00FD05092B
:101A500000F4050900EB050900E2050900D90509B4
:101A600000D0050900C7050900BE050900B5050835
:101A700000AD050800A50509009C050800940508AF
:101A8000008C050800840508007C05080074050822
:101A9000006C050700650508005D05070056050890
:101AA000004E0507004705070040050800380507F8
:101AB00000310507002A050700230507001C05065D
:101AC00000160507000F05070008050600020507B8
:101AD00000FB040600F5040700EE040600E8040617
:101AE00000E2040700DB040600D5040600CF04066C
:101AF00000C9040600C3040600BD040600B70406BE
:101B000000B1040500AC040600A6040600A004050C
:101B1000009B04060095040500900406008A040555
:101B20000085040500800406007A0405007504059C
:101B300000700405006B04050066040500610405DF
:101B4000005C04050057040500520405004D04051F
:101B50000048040500430405003E0404003A04055F
:101B60000035040500300404002C0405002704049B
:101B700000230405001E0404001A040400160405D2
:101B800000110404000D0404000904050004040409
:101B90000000040400FC030400F8030400F4030440
:101BA00000F0030400EC030400E8030400E4030471
:101BB00000E0030400DC030400D8030400D40304A1
:101BC00000D0030400CC030400C8030300C50303D2
:101BD0000024F404D9201BC40C5C0E9804C4095FD3
:101BE0000265077101F405F900FB04B3004804879E
:101BF00000C10369005803550003034500BE023AC3
:101C0000008402310053022A002902250004022028
:101C100000E4011C00C8011900AF0117009801146D
:101C20000084011300710110006101100051010EC8
:101C30000043010D0036010B002B010B0020010BAE
:101C400000150109000C01090003010800FB000850
:101C500000F3000800EB000700E4000600DE0006C9
:101C600000D8000600D2000600CC000500C7000521
:101C700000C2000500BD000400B9000400B5000466
:101C800000B1000400AD000400A9000400A5000399
:101C900000A20003009F0004009B000300980003C3
:101CA000009500020093000300900003008D0002E5
:101CB000008B0003008800020086000200840003FD
:101CC00000810002007F0002007D0002007B000214
:101CD0000079000200770001007600020074000223
:101CE0000072000100710002006F0002006D00012F
:101CF000006C0002006A0001006900020067000138
:101D0000006600010065000100640002006200013D
:101D10000061000100600001005F0002005D000141
:101D2000005C0001005B0001005A00010059000145
:101D30000058000100570001005600010055000145
:101D40000054000100530000005300010052000144
:101D50000051000100500001004F0001004E000042
:101D6000004E0001004D0001004C0001004B00003E
:101D7000004B0001004A000100490001004800003A
:101D80000048000100470001004600000046000135
:101D90000045000000450001004400010043000030
:101DA0000043000100420000004200010041000029
:101DB0000041000100400001003F0000003F000121
:101DC000003E0000003E0001003D0000003D00011B
:101DD000003C0000003C0000003C0001003B000013
:101DE000003B0001003A0000003A00010039000009
:101DF0000039000100380000003800000038000100
:101E000000370000003700010036000000360000F7
:101E100000360001003500000035000000350001EB
:101E200000340000003400000034000100330000E2
:101E300000330000003300010032000000320000D7
:101E400000320001003100000031000000310001CB
:101E5000003000000030000000300001002F0000C2
:101E6000002F0000002F0000002F0001002E0000B6
:101E7000002E0000002E0001002D0000002D0000AB
:101E8000002D0000002D0001002C0000002C00009F
:101E9000002C0000002C0001002B0000002B000093
:101EA000002B0000002B0001002A0000002A000087
:101EB000002A0000002A000100290000002900007B
:101EC000002900000029000000290001002800006E
:101ED0000028000000280000002800000028000161
:101EE0000027000000270000002700000027000056
:101EF0000027000100260000002600000026000048
:101F0000002600000026000100250000002500003A
:101F1000002500000025000000250000002500012C
:101F20000024000000240000002400000024000021
:101F30000024000100230000002300000023000013
:101F40000023000000230000002300000023000104
:101F500000220000002200000022000000220000F9
:101F600000220000002200010021000000210000EA
:101F700000210000002100000021000000210000DD
:101F800000210001002000000020000000200000CF
:101F900000200000002000000020000000200000C1
:101FA00000200001001F0000001F0000001F0000B3
:101FB000001F0000001F0000001F0000001F0001A4
:101FC000001E0000001E0000001E0000001E000099
:101FD000004D383420582059205A20450025732CB4
:101FE000005A25752C45256C752C50256C752C5484
:101FF00025752C4225752C004131302072656164B5
:10200000792E004572723A4E6F2046696C616D659B
:102010006E74005344207072696E74696E6720623A
:1020200079746520004E6F74205344207072696E7D
:1020300074696E670A0053442063617264206F6B99
:102040000A006F70656E526F6F74206661696C650F
:10205000640A00766F6C756D652E696E6974206612
:1020600061696C65640A00534420696E6974206676
:1020700061696C0A006175746F25692E67004D32C5
:1020800034004D32332025730057726974696E67CE
:1020900020746F2066696C653A20006F70656E2051
:1020A0006661696C65642C2046696C653A20006F36
:1020B00070656E206661696C65642C2046696C658C
:1020C0003A200046696C652073656C6563746564CD
:1020D0000A002053697A653A200046696C65206FD2
:1020E00070656E65643A20006F70656E2066616988
:1020F0006C65642C2046696C653A20002066696C2A
:10210000653A2000646F696E6700667265736800E7
:102110004E6F772000454E4420535542524F555440
:10212000494E450A002220706F73002220706172B0
:10213000656E743A2200535542524F5554494E45EC
:102140002043414C4C207461726765743A22004B05
:10215000494C4C45442E2000747279696E67207496
:102160006F2063616C6C207375622D67636F6465AB
:102170002066696C6573207769746820746F6F20BE
:102180006D616E79206C6576656C732E204D4158BB
:10219000206C6576656C2069733A004572726F72C7
:1021A0003A0043616E6E6F74206F70656E207375B8
:1021B000626469722000656E7175657565696E6728
:1021C0002022006563686F3A004D6F7665205800E5
:1021D0004D6F76652059004D6F7665205A00457821
:1021E000747275646572004D6F766520302E316DA6
:1021F0006D004D6F766520316D6D004D6F766520F9
:1022000031306D6D004D6F766520617869730045E2
:1022100078747275646572004D6F7665205A004D52
:102220006F76652059004D6F7665205800457874AB
:102230007275646572004D6F7665205A004D6F7639
:10224000652059004D6F76652058005072657061A9
:10225000726500526573656E643A20006F6B0048CA
:10226000617264636F6465642044656661756C7453
:102270002053657474696E6773204C6F6164656484
:102280000A00881300008813000032000000881341
:1022900000000000C8430000C8430000C84300001D
:1022A00034429A99A0429A99A1420000C843000082
:1022B000BA425AC587C311241FBECFEFD1E2DEBF99
:1022C000CDBF00E00CBF14E0A0E0B2E0E4ECF9EA1E
:1022D00001E00BBF02C007900D92A030B107D9F703
:1022E00023E1A0E0B4E001C01D92A532B207E1F7FE
:1022F00011E1CAE5D1E100E006C021970109802F74
:10230000FE010E9411D4C935D10780E00807A9F762
:102310000E9443BC0C94D1D40C9400002F923F92A5
:102320004F925F926F927F928F929F92AF92BF92E5
:10233000CF92DF92EF92FF920F931F93CF93DF9391
:10234000CDB7DEB7C557D1090FB6F894DEBF0FBEC3
:10235000CDBF81E090E09093BF078093BE0780914E
:102360009A128D3409F4F7C6843511F40C94F227CF
:10237000873411F00C94342880919812909199121E
:102380008430910509F412C554F497FF02C00C94EF
:102390004E2820912102823091053CF521C08A35DA
:1023A000910509F455C62CF44C9709F445C50C94D5
:1023B0004E288B35910509F44FC68C35910511F0E7
:1023C0000C944E280E94258A41E7242E42E0342EA8
:1023D00058E8E52E54E0F52E00E0D12C10E066C65A
:1023E00021110C9455280C944E28222311F40C949E
:1023F0004E2811E0029709F010E00E94F02F82E5CC
:102400000E94E42F882309F42AC10E94822F6B01C5
:102410007C01409088045090890460908A047090F8
:102420008B0480918C0490918D04A0918E04B091C6
:102430008F048CA39DA3AEA3BFA32091CF0730919F
:10244000D0074091D1075091D20728A739A74AA7B2
:102450005BA78091D3079091D407A091D507B09145
:10246000D6078CA79DA7AEA7BFA720E030E0A901A3
:10247000C701B6010E94F3CC882309F47DC4A301EF
:10248000920168A579A58AA59BA50E94F3CC81112C
:102490000DC02CA13DA14EA15FA16CA57DA58EA56F
:1024A0009FA50E94F3CC882309F466C420E030E0A5
:1024B000A901C701B6010E94F3CC881F8827881F95
:1024C000181309C020E030E040E85FE32CAF3DAFD7
:1024D0004EAF5FAF08C080E090E0A0E8BFEB8CAFEC
:1024E0009DAFAEAFBFAFA301920168A579A58AA544
:1024F0009BA50E9409D16CAB7DAB8EAB9FAB2CA191
:102500003DA14EA15FA16CA57DA58EA59FA50E94B2
:1025100009D168AF79AF8AAF9BAF2CA93DA94EA96D
:102520005FA9CA01B9010E9458CD4B015C0128ADD9
:1025300039AD4AAD5BADCA01B9010E9458CD9B01CE
:10254000AC01C501B4010E940AD10E9475D368ABE9
:1025500079AB8AAB9BAB20E030E040E05FE30E94C8
:1025600058CD4B015C01A7019601C701B6010E943D
:1025700058CD6B017C01A5019401C501B4010E94F5
:1025800058CD9B01AC01C701B6010E9409D10E9440
:1025900075D39B01AC016CAD7DAD8EAD9FAD0E943E
:1025A00058CD4B015C0128A539A54AA55BA5C301FF
:1025B000B2010E940AD120E030E040E05FE30E94D7
:1025C00058CD6B017C0168AD79AD8AAD9BAD90585B
:1025D00028A939A94AA95BA90E94E6D19B01AC01AF
:1025E000C501B4010E9458CD9B01AC01C701B601E1
:1025F0000E940AD1A30192010E9409D16B017C01C2
:102600002CA53DA54EA55FA56CA17DA18EA19FA186
:102610000E940AD120E030E040E05FE30E9458CD04
:102620002B013C0128A939A94AA95BA96CA97DA95C
:102630008EA99FA90E94E6D19B01AC01C501B401FE
:102640000E9458CD9B01AC01C301B2010E940AD186
:102650002CA13DA14EA15FA10E9409D114C089E423
:102660000E94E42F882329F00E94822F6B017C01B5
:1026700003C0C12CD12C76018AE40E94E42F882368
:10268000D9F00E94822F6CA77DA78EA79FA720E07C
:1026900030E0A901C701B6010E94F3CC81111AC034
:1026A00020E030E0A9016CA57DA58EA59FA50E9424
:1026B000F3CC81110FC060C320E030E0A901C70155
:1026C000B6010E94F3CC882309F456C31CA61DA6AC
:1026D0001EA61FA6A701960150582CA33DA34EA3EA
:1026E0005FA38CA59DA5AEA5BFA5B05888A799A747
:1026F000AAA7BBA7CA01B9010E9458CD4B015C0132
:1027000028A539A54AA55BA5CA01B9010E9458CDE3
:102710009B01AC01C501B4010E940AD10E9475D38E
:1027200060966CAF7DAF8EAF9FAF609720918804AD
:102730003091890440918A0450918B0428AB39ABC5
:102740004AAB5BABA701960168A979A98AA99BA9A5
:102750000E940AD16CAF7DAF8EAF9FAF80918C0489
:1027600090918D04A0918E04B0918F0488AF99AFA1
:10277000AAAFBBAF2CA53DA54EA55FA5BC01CD0161
:102780000E940AD124966CAF7DAF8EAF9FAF249785
:102790002091CF073091D0074091D1075091D207B7
:1027A00028962CAF3DAF4EAF5FAF28972CAD3DAD17
:1027B0004EAD5FAD28966CAD7DAD8EAD9FAD2897CB
:1027C0000E9409D16B017C018091D3079091D407BD
:1027D000A091D507B091D6072C968CAF9DAFAEAF28
:1027E000BFAF2C9724962CAD3DAD4EAD5FAD249779
:1027F000BC01CD010E9409D14B015C0120919004E4
:1028000030919104409192045091930468962CAFBA
:102810003DAF4EAF5FAF68976091D7077091D80713
:102820008091D9079091DA070E9409D16CAB7DABFA
:102830008EAB9FAB8091DB079091DC07A091DD0709
:10284000B091DE0764968CAF9DAFAEAFBFAF64971B
:1028500020919404309195044091960450919704EE
:102860006C962CAF3DAF4EAF5FAF6C97A701960152
:102870006CA17DA18EA19FA10E9458CD2B013C018E
:10288000A501940168A579A58AA59BA50E9458CDAC
:102890009B01AC01C301B2010E940AD12B013C0192
:1028A000A50194016CA17DA18EA19FA10E9458CD8C
:1028B0004B015C01A701960168A579A58AA59BA596
:1028C0000E9458CD9B01AC01C501B4010E9409D101
:1028D000A30192010E947DD16B017C0120E030E0D8
:1028E000A9010E94F3CC87FF0AC02BED3FE049EC21
:1028F00050E4C701B6010E940AD16B017C0111238B
:1029000051F02BED3FE049EC50E4C701B6010E94C5
:1029100009D16B017C0120E030E0A901C701B601BB
:102920000E94F3CC811124C028962CAD3DAD4EAD54
:102930005FAD289768A979A98AA99BA90E94F3CCC1
:10294000811116C02C962CAD3DAD4EAD5FAD2C97D0
:1029500068AD79AD8AAD9BAD0E94F3CC811108C002
:102960007BEDC72E7FE0D72E79ECE72E70E4F72EB3
:1029700060962CAD3DAD4EAD5FAD6097C701B60121
:102980000E9458CD9B01AC010E9458CD4B015C01C7
:102990002CA93DA94EA95FA9CA01B9010E9458CD31
:1029A0009B01AC01C501B4010E940AD10E9475D3FC
:1029B0004B015C012FE632E143E85AE30E94F3CC7D
:1029C00087FDD6C1C501B4010E947FD20E9453D2B7
:1029D0001B01672B19F422242394312CB10180E0D0
:1029E00090E00E94F7CC4B015C019B01AC01C70158
:1029F000B6010E94E6D168AB79AB8AAB9BABA5016F
:102A000094016CA97DA98EA99FA90E94E6D1609628
:102A10006CAF7DAF8EAF9FAF60976C962CAD3DAD28
:102A20004EAD5FAD6C9764966CAD7DAD8EAD9FADD8
:102A300064970E9409D1A50194010E94E6D1649691
:102A40006CAF7DAF8EAF9FAF649728A939A94AA913
:102A50005BA9CA01B9010E9458CD20E030E040E0F6
:102A60005FE30E9458CD9B01AC0160E070E080E81C
:102A70009FE30E9409D128966CAF7DAF8EAF9FAFC8
:102A8000289768968CAD9DADAEADBFAD6897898730
:102A90009A87AB87BC876C962CAD3DAD4EAD5FADD4
:102AA0006C972D873E874F87588B60911F027091DE
:102AB0002002072E000C880B990B0E94F9CC209164
:102AC00000023091010240910202509103020E94E3
:102AD00058CD2AE037ED43E25CE30E9458CD68A36D
:102AE00079A38AA39BA30E9452399B01AC0128536E
:102AF0003F4F4F4F5F4F2C962CAF3DAF4EAF5FAF68
:102B00002C974CA05DA06EA07FA041E050E059AF93
:102B100048AF59E15CABA8ADB9ADA215B30509F456
:102B200016C10E9470890E945239DC01CB012C969B
:102B30002CAD3DAD4EAD5FAD2C97821B930BA40B1E
:102B4000B50BB7FD10C00E9452399B01AC01285350
:102B50003F4F4F4F5F4F2C962CAF3DAF4EAF5FAF07
:102B60002C970E947C8E3CA931503CAB332309F456
:102B700041C028962CAD3DAD4EAD5FAD289768A500
:102B800079A58AA59BA50E9458CD6B017C0128A937
:102B900039A94AA95BA9B201C3010E9458CDA70176
:102BA00096010E940AD16B017C0128962CAD3DADA7
:102BB0004EAD5FAD2897B201C3010E9458CD4B01C5
:102BC0005C0128A939A94AA95BA968A579A58AA5A4
:102BD0009BA50E9458CD9B01AC01C501B4010E9488
:102BE00009D12B013C01C601D70188A799A7AAA743
:102BF000BBA751C048AD59ADBA0180E090E00E943A
:102C0000F7CC28A939A94AA95BA90E9458CD4B0144
:102C10005C010E94E3D16B017C01C501B4010E94FB
:102C20006BD34B015C01A70196016CA17DA18EA124
:102C30009FA10E9458CD2B013C01A50194016CA5D8
:102C40007DA58EA59FA50E9458CD9B01AC01C30117
:102C5000B2010E940AD12B013C01A50194016CA193
:102C60007DA18EA19FA10E9458CD4B015C01A701BF
:102C700096016CA57DA58EA59FA50E9458CD9B01B0
:102C8000AC01C501B4010E9409D168A779A78AA740
:102C90009BA759E15CAB9201A3016CAD7DAD8EADFC
:102CA0009FAD0E940AD169837A838B839C8328A578
:102CB00039A54AA55BA524966CAD7DAD8EAD9FADC3
:102CC00024970E940AD16D837E838F8398876096B4
:102CD0002CAD3DAD4EAD5FAD609769857A858B8536
:102CE0009C850E940AD169877A878B879C87649626
:102CF0002CAD3DAD4EAD5FAD64976D857E858F8506
:102D000098890E940AD16D877E878F87988B8091E2
:102D10007002882321F0CE0101960E94E78CE0909A
:102D200047078E01005E1F4F9E01235F3F4FAE019C
:102D3000475F5F4FBE016B5F7F4FCE0101960E94E0
:102D40002A7488AD99AD019699AF88AFE4CEE09032
:102D500047078E01005E1F4F2BED37E047ED57E030
:102D600063ED77E08FEC97E00E942A740E94CA30EE
:102D70000E94D4300C944E28EBE9F1E284918F014B
:102D80000F5F1F4F882321F00E94DF30F801F6CF3C
:102D9000E8EFF1E084918F010F5F1F4F882311F45A
:102DA0000C944E280E94DF30F801F4CF80E50E9499
:102DB000E42F882329F00E94422F6B017C0103C07D
:102DC000C12CD12C760183E50E94E42F882361F089
:102DD0000E94822F20E030E04AE754E40E9458CD60
:102DE0000E9453D26B017C010E94258A809133029C
:102DF000811105C060E08EE092E00E94383E0E94A2
:102E0000D4308091C7079091C807A091C907B091AD
:102E1000CA07C80ED91EEA1EFB1E0E945239DC01E9
:102E2000CB018C199D09AE09BF09B7FD02C00C94F6
:102E30004E280E947C8EF1CF0E94258A809100024C
:102E400090910102A0910202B091030280930704C5
:102E500090930804A0930904B0930A0480911F0280
:102E600090912002909306048093050484E690E0FC
:102E70009093200280931F020E94D43081E08093BF
:102E8000B60F88E50E94B52FE82E89E50E94B52F80
:102E9000082F8AE50E94B52FF82EE11005C0011118
:102EA00005C011E0182705C0011102C010E001C0E3
:102EB000182F80E1E8E8F4E0AFECB7E001900D9264
:102EC0008A95E1F7111105C0E11003C0002309F450
:102ED00092C01092D7071092D8071092D90710927B
:102EE000DA0720E030E0A90160919004709191042C
:102EF00080919204909193040E94F3CC87FF68C064
:102F0000209100023091010240910202509103028F
:102F10002CA33DA34EA35FA3EAEDF5E145905590A8
:102F200065907490409200025092010260920202F9
:102F300070920302109290041092910410929204E5
:102F4000109293040E94382E85E595E5A5E0B3E440
:102F50008093000290930102A0930202B0930302B7
:102F60000E94382E8090D7079090D807A090D9075C
:102F7000B090DA07A50194016091900470919104DA
:102F800080919204909193040E9430D3181694F487
:102F9000409200025092010260920202709203027B
:102FA0008092900490929104A0929204B092930423
:102FB0000E94382E0E94258A8CA19DA1AEA1BFA19E
:102FC0008093000290930102A0930202B093030247
:102FD000111105C0E11003C0011107C00CC080E051
:102FE00090E00E94568D1123B9F381E090E00E9499
:102FF000568D111102C0FF2021F082E090E00E9466
:10300000568D0E94C52E8091B50F8093B60F80918A
:10301000070490910804A0910904B0910A048093D8
:10302000000290930102A0930202B09303028091E8
:103030000504909106049093200280931F020E9441
:10304000D43083E0809332020E941D360C944E28C7
:10305000109204040C944E2881E0809304040C9494
:103060004E280E94822F2B013C01F70120813181E3
:10307000428153810E9409D14B015C012DEB37E362
:1030800046E855EB0E9430D387FD18C02DEB37E39F
:1030900046E855E3C501B4010E94F3CC181674F05C
:1030A0001F5FB4E0EB0EF11C1430A9F0D1018D913B
:1030B0001D010E94E42F882399F3D3CF133019F018
:1030C000DD24D39401C001E0D7014D925D926D9251
:1030D0007C921397E5CFDD2019F00E94C52E37C0F2
:1030E0000023A9F1C0909404D0909504E090960438
:1030F000F0909704209137083091380840913908B2
:1031000050913A08C701B6010E9458CD0E943BD3A6
:103110006093AF0F7093B00F8093B10F9093B20F85
:10312000C701B6010E944ED22FB7F8946093620790
:103130007093630780936407909365072FBF109285
:103140009F0F1092A00F1092A10F1092A20F0E9439
:103150001D360C944E2880919812909199128037C8
:10316000910509F4A5C40CF0A8C08A32910509F4B0
:103170007BC30CF056C08731910509F446C24CF56B
:103180008231910509F4B9C5BCF497FF02C00C94D3
:103190004E28823091050CF461C1419711F00C94D6
:1031A0004E2860E084E492E00E94383E42981798EE
:1031B00015982E980C944E288531910509F41BC260
:1031C0000CF01DC2449711F00C944E28ECE5F2E08F
:1031D000CFC18B31910509F44DC23CF48931910581
:1031E00009F434C20CF427C237C28E31910509F4B8
:1031F00045C274F44C9711F00C944E2840E060E006
:1032000080919612909197120E94BFA70C944E281D
:103210008F31910509F482C2809709F433C20C946E
:103220004E288C35910509F4BAC534F581359105E0
:1032300009F43FC58CF48C34910509F455C38D34E1
:10324000910509F455C38B34910511F00C944E2867
:103250000E9423A40C944E288335910509F448C597
:103260000CF442C58435910509F447C585359105AF
:1032700009F47AC50C944E288B36910509F407C5DC
:1032800064F48936910509F463C40CF0DBC4883614
:10329000910509F431C30C944E288D36910509F43B
:1032A0009BC40CF401C48E36910509F479C38F36A2
:1032B000910509F488C30C944E28833D910511F4BF
:1032C0000C9429220CF05EC08C38910509F424C4BA
:1032D00044F58537910509F443C674F482379105A6
:1032E00009F4E6C50CF4ECC38337910511F00C9496
:1032F0004E28EEEFF3E0E2C58737910509F478C672
:103300000CF437C68837910509F4D6C6893791057C
:1033100011F00C944E281092B60F1092B50F0C9429
:103320004E28883C910509F444C774F48B39910503
:1033300009F42BC48E3B910509F46AC481399105C7
:1033400011F00C944E28BEC68B3C910509F48FC732
:103350007CF4893C910511F00C944E286FEFE62E19
:1033600067E0F62E01E712E074E0D72ED00E67C7B3
:103370008C3C910509F498C78D3C910509F4FEC772
:103380000C944E288039E1E09E0711F40C947A27C2
:103390009CF58C3221E0920711F40C9424238CF4D8
:1033A0008D3D910511F40C94B322823E910511F4E8
:1033B0000C94FA228C3D910511F00C944E280C943B
:1033C000A6228F3241E0940711F40C9468243CF457
:1033D0008D32914011F40C944D230C944E2880337F
:1033E000B1E09B0711F40C94EB238336914011F468
:1033F0000C94A3270C944E28843FF1E09F0711F40E
:103400000C949A2794F4893931E0930719F18A3999
:1034100041E0940709F450C38839914011F00C94AD
:103420004E2807E113E00C947D27863FA1E09A0720
:1034300011F40C94A02714F40C949D27803AE3E037
:103440009E0709F45EC1873E934011F40C94E02777
:103450000C944E2806EF12E00C948C27A090961244
:10346000B090971280E50E94E42F882359F00E94C3
:10347000422F6B017C0111E0672B682B692B31F423
:1034800010E004C010E0C12CD12C760183E50E942D
:10349000E42F8823F1F00E94822F20E030E04AE7F9
:1034A00054E40E9458CD0E9453D26B017C0111114B
:1034B00012C0672B682B692B71F4A114B10459F069
:1034C000D5018C91882339F061E0C5010E94563EF8
:1034D00007C0112391F360E081E392E00E94383E3F
:1034E00083E090E09093BF078093BE0781E08093D4
:1034F00099060E94258A0E94D430C114D104E104A7
:10350000F104E9F08091C7079091C807A091C9071D
:10351000B091CA07C80ED91EEA1EFB1E0E9452397E
:10352000DC01CB018C199D09AE09BF09B7FF1CC096
:10353000809199068823C1F00E947C8EEFCF809104
:103540009906882319F00E947C8EF9CF8091D50FBF
:103550009091D60F60E0029719F486E292E002C0E3
:1035600087E192E00E94383E109299060C944E2812
:1035700084918F010F5F1F4F882321F00E94DF305D
:10358000F801F6CF10926B1210926A1240E050E0F0
:10359000BA018EE190E10E946F4F8BE1EEE1F0E124
:1035A000DE01159601900D928A95E1F780911C102D
:1035B00090911D109C838B838FEC92E09A8389837A
:1035C00040E050E0BE016F5F7F4F8DEF93E00E94BF
:1035D00080A5CE0101960E94248EEDE4F2E0849154
:1035E0008F010F5F1F4F882311F40C944E280E9407
:1035F000DF30F801F4CF0E944DA20C944E281092B7
:10360000E50F1092E60F0C944E28E0919612F0917F
:1036100097128081882329F0803209F41082319634
:10362000F8CF40E061E080919612909197120E944D
:10363000BFA70C944E288091E60F882319F081E0F3
:103640008093E50F0E9423A40C944E281092E50F5E
:103650000E9462A40C944E288091E60F882311F4F6
:103660000C944E2883E50E94E42F81110C94E928E4
:103670000C944E280E947CA40C944E280E94E630A4
:103680000C944E288091E50F81110E94258A80912B
:10369000E60F882311F40C944E2880E50E94E42F55
:1036A000882319F00E94732F03C080E50E94B52F74
:1036B000182F482F61E080919612909197120E94E6
:1036C000BFA783E50E94E42F882381F00E94522F38
:1036D000AB01BC0140931610509317106093181063
:1036E0007093191088EB91E10E946F4F8091E60F63
:1036F000882319F081E08093E50F11110C944E2876
:10370000A1CF809196129091971221E02093E40F1F
:1037100040E060E00E94BFA70C944E280E941EACBF
:103720003CE3C32ED12CE12CF12CA70196010E9481
:10373000CED0762E672ECA01B901A70196010E944C
:10374000CED06B017C01CA01B90128E130E040E034
:1037500050E00E94CED04B015C01C9016DE671E0E2
:103760000E94CED38E010F5F1F4F6115710599F036
:103770006F927F92DF92CF929F928F929F938F93BF
:103780007F936F9385E992E09F938F931F930F939D
:103790000E948CCC12C00097B1F06F927F92DF92A2
:1037A000CF929F928F929F938F9385E892E09F9301
:1037B0008F931F930F930E948CCC0FB6F894DEBFAB
:1037C0000FBECDBF36C081149104A104B10479F0BD
:1037D0006F927F92DF92CF929F928F9289E792E0D1
:1037E0009F938F931F930F930E948CCCE6CFC114AD
:1037F000D104E104F10469F06F927F92DF92CF92DD
:1038000081E792E09F938F931F930F930E948CCC3C
:10381000D4CF6F927F928DE692E09F938F931F9308
:103820000F930E948CCC0F900F900F900F900F90E1
:103830000F9060E0C8010E94563EE3ECF1E28491F3
:103840007F019FEFE91AF90A882321F00E94DF30F7
:10385000F701F5CFB80189EA92E00E94AB728AE0E5
:103860000E94DF300C944E2883E50E94E42F8823C9
:1038700011F40C944E280E94622FE82E80E50E94DD
:10388000E42F882341F00E94522F8B0177FF02C062
:103890000C944E2802C006E010E0902FEFECF5E00B
:1038A00088E28E0F2491921729F031968E13FACF69
:1038B0000C94F928EBE9F1E284918F010F5F1F4F1F
:1038C000882321F00E94DF30F801F6CFE6EBF2E02A
:1038D00084918F010F5F1F4F882311F40C944E28A1
:1038E0000E94DF30F801F4CF0E9462A40C944E28AD
:1038F0000E9434AB0C944E2888E690E00E94173565
:1039000081110C944E288091040783FF02C00C940F
:103910004E2883E50E94E42F882309F43DC00E94CD
:10392000822F0E944ED270934B0D60934A0D0E94DD
:10393000822F20E030E04AEA52E40E94F3CC1816CD
:103940003CF00E9434AB60E08CEC92E00E94383E88
:103950000E94822F2091BC063091BD064091BE0688
:103960005091BF060E9430D31816B4F487E393E059
:103970009F938F938091760790E001969F938F930A
:1039800085EC92E09F938F931F920E9408A40FB63C
:10399000F894DEBF0FBECDBF0E94C9C20C944E2862
:1039A0008EE40E94E42F882311F40C944E280E9488
:1039B000522F6093570D7093580D8093590D90932B
:1039C0005A0D0C944E2883E50E94B52F882359F098
:1039D00083E50E94E42F882319F00E94622F01C022
:1039E00080E080930407E3ECF1E284918F010F5FA4
:1039F0001F4F882321F00E94DF30F801F6CFE5EE5B
:103A0000F2E084918F010F5F1F4F882321F00E9405
:103A1000DF30F801F6CF809104078823A1F127ED6C
:103A2000C22E22E0D22EE12CF12C20E0809104075E
:103A300090E00E2C02C0959587950A94E2F780FFDE
:103A400017C0BB24B394B20E222319F08CE20E945B
:103A5000DF30F60125913491F901849189010F5FDE
:103A60001F4F882321F00E94DF309801F5CF2B2DC6
:103A7000FFEFEF1AFF0A32E0C30ED11C45E0E41657
:103A8000F104A1F60CC0E1EEF2E084918F010F5F2A
:103A90001F4F882321F00E94DF30F801F6CF8AE023
:103AA0000E94DF300C944E2810920C020C944E2889
:103AB0008CEE92E00E942C8E0E946E300C944E2868
:103AC00083E50E94E42F882369F00E94622F8D33E2
:103AD00020F4809326020C944E288CE380932602D7
:103AE0000C944E28E3ECF1E284918F010F5F1F4F9D
:103AF000882321F00E94DF30F801F6CF40912602A2
:103B000050E060E070E085EF92E00E943B728AE056
:103B10000E94DF300C944E288091040783FF02C07E
:103B20000C944E2883E50E94E42F882311F40C9412
:103B30004E280E94822F0E944ED26739710514F0E0
:103B400066E970E07093490D6093480D0C944E281F
:103B500089E690E00E941735811111C0ECEFF2E088
:103B600084918F010F5F1F4F882321F00E94DF3067
:103B7000F801F6CF0E9436868AE00E94DF3010926C
:103B8000BF071092BE070C94932D83E50E94E42F8B
:103B9000882311F40C944E280E94622F182F8D3325
:103BA00008F01CE31093C4070E9452396B017C019A
:103BB000212F30E0A8EEB3E00E94FAD0C60ED71E47
:103BC000E81EF91EC092C007D092C107E092C2075A
:103BD000F092C3070C944E288DE690E00E941735B2
:103BE00081110C944E288091040783FF02C00C942D
:103BF0004E2883E50E94E42F8CA781110C940F2995
:103C000082E50E94E42F81110C940F290C944E2818
:103C10008091040783FF02C00C944E2860E081E38A
:103C200093E00E94383E83E50E94E42F8CA7811127
:103C30000C94762A82E50E94E42F81110C94762A56
:103C40000C944E2880E50E94E42F811108C083E582
:103C50000E94E42F811109C03FEF20E00AC00E94BA
:103C6000622F81110C944E28F2CF0E94522F362FD2
:103C7000272F832F922F8F3F910519F010F08FEF90
:103C800090E09093470D8093460D0C944E2880E56C
:103C90000E94E42F811106C01092470D1092460D2C
:103CA0000C944E280E94522F672B11F00C944E2832
:103CB000F3CF0E94C2860E94258A0E94A1B610926C
:103CC000470D1092460D68EE73E080E090E00E9490
:103CD000953D0E94258A0E944D2E60E08EE393E080
:103CE0000E94383E0C944E28109203040C944E28E7
:103CF00081E0809303040C944E2883E50E94E42F16
:103D00008823A1F00E94822F20E030E04AE754E4AB
:103D10000E9458CD0E9453D26093270270932802CC
:103D20008093290290932A020C944E2888E50E94E1
:103D3000B52F81110C94B32B89E50E94B52F811109
:103D40000C94B32B8AE50E94B52F81110C94B32BF0
:103D500085E40E94B52F81110C94B32B0E94258A13
:103D60000E94A1B60C944E2883E50E94B52F8823AB
:103D700011F40C944E280E94822F20E030E04AE794
:103D800054E40E9458CD0E9453D26093CB077093A5
:103D9000CC078093CD079093CE070C944E2811E763
:103DA000C12E12E0D12E0BE2E02E08E0F02E10E042
:103DB000D6018D916D010E94B52F882309F46DC045
:103DC000133009F063C00E94822F4B015C0120E098
:103DD00030E040EA51E40E94F3CC87FF4EC0A501D9
:103DE000940160913708709138088091390890915A
:103DF0003A080E94E6D12B013C019B01AC01609185
:103E00002708709128088091290890912A080E941B
:103E100058CD6093270870932808809329089093C1
:103E20002A08A30192016091FB077091FC07809121
:103E3000FD079091FE070E9458CD6093FB07709399
:103E4000FC078093FD079093FE0760911107709126
:103E5000120780911307909114070E94F7CCA301D9
:103E600092010E9458CD0E9453D260931107709323
:103E7000120780931307909314078092370890924B
:103E80003808A0923908B0923A0807C00E94822FE1
:103E9000F70160837183828393831F5FF4E0EF0EE9
:103EA000F11C143009F084CF0E9400740C944E2849
:103EB0000E94258A0E941D360C944E2884918F0101
:103EC0000F5F1F4F882321F00E94DF30F801F6CFEB
:103ED00060E08EEE93E00E946D3561E087EE93E046
:103EE0000E946D3561E08CED93E00E946D3561E0DC
:103EF0008CEC93E00E946D3560E083EC93E00E94CF
:103F00006D3561E089EB93E00E946D3560E08FEAEA
:103F100093E00E946D3560E087EA93E00E946D3582
:103F200060E089E993E00E946D3560E08BE893E002
:103F30000E946D3560E08CE793E00E946D3561E092
:103F40008EE693E00E946D3561E088E593E00E9483
:103F50006D3560E087E493E00E946D350C944E2847
:103F600060E080919612909197120E94563E0C94B8
:103F70004E2885E40E94E42F882319F00E94732FB5
:103F800003C085E40E94B52F882361F0E3ECF1E2E1
:103F900084918F010F5F1F4F882321F00E94DF3033
:103FA000F801F6CF81E40E94E42F882319F00E94E3
:103FB000732F03C081E40E94B52F882361F0EDEBDD
:103FC000F4E084918F010F5F1F4F882321F00E943E
:103FD000DF30F801F6CF0091961210919712D801B8
:103FE0008D918D01882309F45ACD0E94DF30F7CFDF
:103FF000E9EDF4E084918F010F5F1F4F882321F0DA
:104000000E94DF30F801F6CFE1EDF4E084918F01FA
:104010000F5F1F4F882321F00E94DF30F801F6CF99
:10402000029B03C003EE12E002C008EE12E0F801AA
:1040300081918F01882319F00E94DF30F8CF8AE048
:104040000E94DF30E9ECF4E084918F010F5F1F4F95
:10405000882321F00E94DF30F801F6CF069B03C0D1
:1040600003EE12E002C008EE12E0D8018D918D013E
:10407000882319F00E94DF30F8CF8AE00E94DF30F9
:10408000E1ECF4E084918F010F5F1F4F882321F052
:104090000E94DF30F801F6CF379B03C003EE12E039
:1040A00002C008EE12E0F80181918F01882309F423
:1040B000F6CC0E94DF30F7CF81E08093B60F80937B
:1040C000B50FECC783E50E94E42F882319F00E9406
:1040D000522F02C060E070E08B0111270230110501
:1040E000CCF0EBE9F1E284918F010F5F1F4F882341
:1040F00021F00E94DF30F801F6CFE3EFF4E0849185
:104100008F010F5F1F4F882309F4C8C70E94DF305B
:10411000F801F5CF88E40E94E42F8823A9F00E94DB
:10412000522F6A3A71053CF06530F1E07F072CF0C0
:1041300064E071E002C06AEA70E0F801EE0FFF1F70
:10414000E15DF84F7183608386E40E94E42F882349
:10415000A9F00E94522FF801EE0FFF1FED5CF84FFF
:10416000718360836F3F710519F014F06FEF70E099
:1041700077FF02C060E070E07183608382E40E9498
:10418000E42F882309F48AC70E94522F65307105F5
:1041900034F0683871052CF067E870E002C065E023
:1041A00070E0000F111FF801E55DF84F7183608327
:1041B00075C788EC90E00E94173581116FC784E4C1
:1041C0000E94B52F8823C1F10E94822F11E020E0C8
:1041D00030E0A9010E94F3CC811101C010E01093DE
:1041E000F606112349F10E94822FE091760724E020
:1041F000E29FF0011124EE50F94F608371838283B6
:10420000938320E030E0A9016091F2067091F306FB
:104210008091F4069091F5060E94F3CC81110CC0B8
:1042200080E090E0A0EEBFE38093F2069093F30667
:10423000A093F406B093F5060E9470652FC7D801CD
:104240008D918D010E94B52F882349F00E94822F05
:104250000E9453D2F7016083718382839383F4E0D9
:10426000EF0EF11CD012EBCF0E94D37217C74FEEA6
:10427000E42E47E0F42E01E712E054E0D52ED00EF4
:10428000D8018D918D010E94B52F882339F00E94AD
:10429000822FF7016083718382839383F4E0EF0EB2
:1042A000F11CD012EDCFFAC683E50E94B52F88230A
:1042B000D9F00E94822FAB01BC01409317085093A4
:1042C00018086093190870931A0840930F085093C8
:1042D000100860931108709312088FE695E00E9411
:1042E00075728AE00E94DF3080E50E94B52F882336
:1042F00099F00E94822FAB01BC01409317085093A4
:1043000018086093190870931A0882E595E00E94D6
:1043100075728AE00E94DF3082E50E94B52F882303
:1043200099F00E94822FAB01BC0140931308509377
:104330001408609315087093160883E395E00E94B3
:1043400075728AE00E94DF3084E50E94B52F8823D1
:1043500009F4A4C60E94822FAB01BC0140930F0850
:1043600050931008609311087093120885E195E04E
:104370000E9475728AE00E94DF3090C683E50E9439
:10438000B52F882351F00E94822F6093EB07709322
:10439000EC078093ED079093EE0784E50E94B52F1C
:1043A000882351F00E94822F6093E7077093E807FB
:1043B0008093E9079093EA0782E40E94B52F88234F
:1043C00051F00E94422F6093000770930107809381
:1043D00002079093030788E50E94B52F882351F0C8
:1043E0000E94822F60931B0870931C0880931D0805
:1043F00090931E0889E50E94B52F882351F00E94F2
:10440000822F60931F087093200880932108909357
:1044100022088AE50E94B52F882351F00E94822F3E
:1044200060932308709324088093250890932608AE
:1044300085E40E94B52F882309F430C60E94822F9C
:1044400060932708709328088093290890932A087E
:1044500025C6E3ECF1E284918F010F5F1F4F8823A3
:1044600021F00E94DF30F801F6CF83E50E94B52FDE
:10447000882321F00E94732F80937002EFEBF5E008
:1044800084918F010F5F1F4F882321F00E94DF303E
:10449000F801F6CF80917002811103C0EBEBF5E0DB
:1044A00002C0E7EBF5E084918F010F5F1F4F882377
:1044B00021F00E94DF30F801F6CFEFEAF5E08491B9
:1044C0008F010F5F1F4F882321F00E94DF30F8011A
:1044D000F6CF40E050E0BA018DEA95E00E94757297
:1044E00040E050E0BA018AEA95E00E94757240E02F
:1044F00050E0BA0187EA95E00E947572EFE9F5E0B5
:1045000084918F010F5F1F4F882321F00E94DF30BD
:10451000F801F6CF40E050E06CE573E48DE995E0FA
:104520000E94757240E050E06CE573E48AE995E022
:104530000E94757240E050E062E873E487E995E01C
:104540000E9475728AE00E94DF30A8C583E50E9450
:10455000E42F882309F4A2C50E94522F70932002F1
:1045600060931F029BC58DED90E00E94173581116D
:1045700095C583E50E94E42F882309F48FC5009137
:10458000760710E00E94522F000F111FF801E35E22
:10459000FD4F718360838091760790E08C01000F5E
:1045A000111F000F111F9801275E3D4F7901880FE1
:1045B000991FFC01E35EFD4F60817181072E000CA5
:1045C000880B990B0E94F9CC2AE037ED43E25CE3BB
:1045D0000E9458CDF801ED5BF84F20813181428176
:1045E00053810E9458CDD7016D937D938D939C93F9
:1045F000139754C580E50E94B52F882309F44EC552
:104600000E94522F6B017C0183E50E94E42F8823D6
:1046100021F00E94522F8B0102C00FEF1FEFC80143
:104620000196039708F03AC5D7FC38C59C2DEFECEE
:10463000F5E088E28E0F2491921709F42FC5319688
:104640008E13F9CF0C946B2D83E50E94E42F882301
:1046500019F00E94522F02C064E071E079A368A3B0
:1046600080E50E94E42F882339F00E94522F693898
:10467000B3E17B0730F402C068EE73E07A836983AC
:1046800004C088E893E19A838983BE01605E7F4F0E
:10469000CE0101960E94D4A301C585E40E94E42FB7
:1046A000811110C080E50E94B52F882391F00E94EF
:1046B000822F60931E0770931F07809320079093AB
:1046C000210707C00E94622F882361F3EBE9F1E222
:1046D00071C089E40E94B52F882381F00E94822F47
:1046E0002CEA35EC47E25EE30E9458CD6093260742
:1046F00070932707809328079093290784E40E94EA
:10470000B52F882381F00E94822F2CEA35EC47E2F6
:104710005EE30E94E6D160932207709323078093A3
:10472000240790932507E3ECF1E284918F010F5F5A
:104730001F4F882321F00E94DF30F801F6CF40910F
:104740001E0750911F0760912007709121078FEF7E
:1047500095E00E9475722CEA35EC47E25EE36091C9
:1047600026077091270780912807909129070E94BA
:10477000E6D1AB01BC018BEF95E00E9458722CEAA8
:1047800035EC47E25EE36091220770912307809148
:104790002407909125070E9458CDAB01BC0187EFFB
:1047A00095E00E9458728AE00E94DF3077C40E9430
:1047B000DF30F80184918F010F5F1F4F8111F7CF18
:1047C00002E413E0F80181918F01882309F467C99D
:1047D0000E94DF30F7CF80E50E94B52F882351F08B
:1047E0000E94822F60936E0770936F07809370070B
:1047F0009093710789E40E94B52F882381F00E946D
:10480000822F2CEA35EC47E25EE30E9458CD60939C
:104810006A0770936B0780936C0790936D0784E42D
:104820000E94B52F882381F00E94822F2CEA35EC5C
:1048300047E25EE30E94E6D16093660770936707E4
:104840008093680790936907E3ECF1E284918F010C
:104850000F5F1F4F882321F00E94DF30F801F6CF51
:1048600040916E0750916F076091700770917107CA
:104870008BE096E00E9475722CEA35EC47E25EE32D
:1048800060916A0770916B0780916C0790916D073A
:104890000E94E6D1AB01BC0187E096E00E9458720D
:1048A0002CEA35EC47E25EE360916607709167079A
:1048B00080916807909169070E9458CDAB01BC01B7
:1048C00083E096E00E9458728AE00E94DF30E6C3DF
:1048D00085E40E94E42F882321F00E94522F7B015F
:1048E00002C0E12CF12C83E40E94E42F882331F0F4
:1048F0000E94522FA3966FAFA39704C025E0A39602
:104900002FAFA39785E50E94E42F882319F00E941A
:10491000732F03C085E50E94B52FAE968FAFAE977B
:10492000F7FC07C0812C912C06E1A02E03E4B02EE9
:1049300006C0812C912C1CE8A12E12E4B12E83E537
:104940000E94E42F882321F00E94822F4B015C01FA
:10495000E114F10411F4109276070E9452392B01F0
:104960003C0181E08E0D823018F403E513E00BC0AA
:1049700006E613E0D8018D918D01882309F48FC8D4
:104980000E94DF30F7CFF80181918F01882319F061
:104990000E94DF30F8CFECA28AE00E94DF300E9454
:1049A000C286FCA1F7FF04C08FE78093750707C09C
:1049B000EE2DEE0CFF0BEC58F84F8FE78083C5010E
:1049C000B4010E944ED2072E000C880B990B0E9456
:1049D000F9CC6CAF21967FAF219725968FAF2597A5
:1049E00029969FAF299781E080930C02A9964CAE3F
:1049F0005DAE6EAE7FAEA997E2964CAE5DAE6EAE8A
:104A00007FAEE29765961FAE659720E469962FAF5B
:104A100069973CE12D963FAF2D9746E461964FAFE5
:104A200061976D961FAE6D976E961FAE6E976F96DF
:104A30001FAE6F97A0961FAEA09718AE19AE1AAE14
:104A40001BAE1CAA1DAA1EAA1FAAC12CD12C76011E
:104A5000AFE78A2E912CA12CB12C8FE790E0A0E03B
:104A6000B0E08CA79DA7AEA7BFA7AD961CAE1DAEAC
:104A70001EAE1FAEAD9791E0A5969FAFA59719AA60
:104A800018AA10E0212C312C00E0ACA18A2FAA0F2B
:104A9000990BFC01EC58F84FE496FFAFEEAFE497AA
:104AA000880F991F880F991F9C012454394FA29693
:104AB0003FAF2EAFA297A3964FADA397042E000C45
:104AC000550BA4965FAF4EAFA49780910C0288233C
:104AD00009F40CC10E94523968A779A78AA79BA73D
:104AE00080917207882309F4DFC00E944E895CA17F
:104AF00057FF09C01091C0062090C1063090C20631
:104B00000091C3060DC0A296AEADBFADA2971C9199
:104B100011962C90119712963C90129713960C9127
:104B2000212F322D432D502F6D966FAD6D976E96C0
:104B30007FAD6E976F968FAD6F97A0969FADA09744
:104B40000E94F3CC87FF0CC06D961FAF6D976E96D9
:104B50002FAE6E976F963FAE6F97A0960FAFA09750
:104B6000212F322D432D502F65966FAD6597699695
:104B70007FAD69972D968FAD2D9761969FAD61970B
:104B80000E9430D3181664F465961FAF6597699636
:104B90002FAE69972D963FAE2D9761960FAF619717
:104BA000A596BFADA5972CAD21963FAD2197259633
:104BB0004FAD259729965FAD2997612F722D832DD3
:104BC000902FBB2309F456C00E9430D318160CF066
:104BD0006BC048A559A56AA57BA544195509660966
:104BE0007709DB01CA0188589341A109B109B7FDD2
:104BF0005BC08CA59DA5AEA5BFA588199909AA097A
:104C0000BB09ECA1B595A79597958795E7FF03C0DC
:104C10008093750705C0E496EEADFFADE497808301
:104C2000AD964CAF5DAF6EAF7FAFAD97FCAD6D96FF
:104C3000FFAF6D9721962FAD21976E962FAF6E9790
:104C400025963FAD25976F963FAF6F9729964FAD4D
:104C50002997A0964FAFA09788A599A5AAA5BBA50F
:104C6000A9968CAF9DAFAEAFBFAFA997A5961FAE6B
:104C7000A5971AC00E94F3CC87FF16C088A599A5F6
:104C8000AAA5BBA5A9962CAD3DAD4EAD5FADA9972C
:104C9000821B930BA40BB50BAC01BD0148585341CB
:104CA0006109710977FF7DC520E030E040EA51E4F9
:104CB0006CAD21967FAD219725968FAD25972996CE
:104CC0009FAD29970E940AD19B01AC01612F722DE3
:104CD000832D902F0E9430D318167CF4ECECF6E074
:104CE00084918F010F5F1F4F811103C00E94C28604
:104CF000D5C10E94DF30F801F3CF88A599A5AAA5F8
:104D0000BBA5E2962CAD3DAD4EAD5FADE297821BEB
:104D1000930BA40BB50BB7FD13C00E9436868AE037
:104D20000E94DF3088A599A5AAA5BBA58053984FFE
:104D3000AF4FBF4FE2968CAF9DAFAEAFBFAFE29724
:104D400088A599A5AAA5BBA5880F991FAA1FBB1F57
:104D5000A9962CAD3DAD4EAD5FADA997821B930BCF
:104D6000A40BB50B84199509A609B70981389F448E
:104D7000A241B10568F0EEEAF6E084918F010F5F81
:104D80001F4F882309F4B2CF0E94DF30F801F5CF1E
:104D900048A959A9A4968EAD9FADA49784179507ED
:104DA0000CF0A5C0E1E5F6E084918F010F5F1F4F85
:104DB000882321F00E94DF30F801F6CF9CA197FDF7
:104DC00003C00DEF13E002C002EF12E0B8018FE361
:104DD00096E00E94AB72B701A6018BE396E00E94B9
:104DE00075728AE00E94DF30B80189E296E00E9485
:104DF000AB724CA95DA96EA97FA985E296E00E94DD
:104E000075728AE00E94DF30B80183E196E00E946B
:104E1000AB7248AD59AD6AAD7BAD8FE096E00E94B4
:104E200075728AE00E94DF30AE96AFADAE97AA23CE
:104E300009F434C1BCA1B7FF2DC0C0926E07D09257
:104E40006F07E0927007F09271072CEA35EC47E2A9
:104E50005EE36CA97DA98EA99FA90E9458CD60939D
:104E60006A0770936B0780936C0790936D072CEA29
:104E700035EC47E25EE368AD79AD8AAD9BAD0E944B
:104E8000E6D16093660770936707809368079093F5
:104E9000690704C1C0921E07D0921F07E092200745
:104EA000F09221072CEA35EC47E25EE36CA97DA97C
:104EB0008EA99FA90E9458CD60932607709327075B
:104EC00080932807909329072CEA35EC47E25EE3AC
:104ED00068AD79AD8AAD9BAD0E94E6D160932207A3
:104EE000709323078093240790932507D7C00E94CF
:104EF000663EEBCD0E94258AD1C0F80181918F01D9
:104F0000882319F00E94DF30F8CF8AE00E94DF305A
:104F100081E08093F106C2C0D8018D918D01882374
:104F200019F00E94DF30F8CF8AE00E94DF30109243
:104F3000F106B4C00E94A641B1C00E945446AEC062
:104F40000E94DEBAABC080E50E94E42F882329F0DE
:104F5000B9D78093860411E001C010E083E50E9478
:104F6000E42F882321F0BFD78093870401C011115B
:104F70006ED6E3ECF1E284918F010F5F1F4F88231F
:104F800021F00E94DF30F801F6CF80918704811173
:104F90000CC00FE813E0F80181918F01882311F410
:104FA0000C944F1D0E94DF30F6CF6091860470E0B4
:104FB00080E497E00E9492728AE00E94DF306EC027
:104FC00081E0809321021092540D83E5FDD7882360
:104FD00011F089D702C083E5C8D781115FC00E9454
:104FE000CAB65CC0F0909812FF2029F1E3ECF1E220
:104FF00084918F010F5F1F4F882321F00E94DF30C3
:10500000F801F6CF84E50E94DF306F2D70E080E07C
:1050100090E04AE00E94B13480E20E94DF3002E476
:1050200013E0D8018D918D01882311F40C944F1D4C
:105030000E94DF30F6CF10924707E3ECF1E2849153
:105040008F010F5F1F4F882321F00E94DF30F8018E
:10505000F6CF6091470770E08DE497E00E9492726E
:105060008AE00E94DF301AC0E3ECF1E284918F0104
:105070000F5F1F4F882321F00E94DF30F801F6CF29
:105080006091C5077091C6078FE597E00E94AB72EB
:1050900082E20E94DF308AE00E94DF301092BF0778
:1050A0001092BE070E94ABB63EC59AD7809170029F
:1050B000882321F08FEC97E00E94E78C0E94D43087
:1050C0008091040783FD56C0C090DB07D090DC07B9
:1050D000E090DD07F090DE078090940490909504B6
:1050E000A0909604B0909704A5019401C701B60161
:1050F0000E94F3CC882309F43DC0A5019401C701A7
:10510000B6010E9409D19F77E091470724E0E29F12
:10511000F0011124E75EFD4F2081318142815381EE
:105120000E9458CD20E030E048E453E40E9430D3A0
:10513000181604F5C0929404D0929504E092960457
:10514000F0929704E3ECF1E284918F010F5F1F4F1F
:10515000882321F00E94DF30F801F6CFE9EDF1E07D
:1051600084918F010F5F1F4F882321F00E94DF3051
:10517000F801F6CF60911F0270912002072E000CFB
:10518000880B990B0E94F9CC20910002309101020A
:1051900040910202509103020E9458CD2AE037ED5F
:1051A00043E25CE30E9458CD69837A838B839C83BE
:1051B000E09047078E010F5F1F4F2BED37E047ED63
:1051C00057E063ED77E08FEC97E00E942A74E2D716
:1051D00065CF68D6AB01BC014093161050931710F1
:1051E000609318107093191088EB91E10E946F4F33
:1051F00055CF61E0802F0E9417386E2D802F0E94BE
:10520000D537F12CB701802F0E9453380930110592
:1052100009F044CFF092470DE092460D3FCF72D691
:105220000E944ED270934B0D60934A0D6BD620E0D6
:1052300030E04AEA52E40E94F3CC181644F00E948F
:1052400034AB60E088E193E00E94383E02C00E94E7
:1052500023A460914A0D70914B0D072E000C880B12
:10526000990B0E94F9CC2091BC063091BD0640916B
:10527000BE065091BF060E9430D31816B4F487E3DF
:1052800093E09F938F938091760790E001969F9390
:105290008F9381E193E09F938F931F920E9408A4C4
:1052A0000FB6F894DEBF0FBECDBF0E94C9C281E029
:1052B00080930C0218A619A61AA61BA618AA19AA4A
:1052C0001AAA1BAA1CA21CAA9CE398AFACE1ACAF23
:1052D000B6E42196BFAF2197E12CF12C00E81FEB3B
:1052E000812C912C540160914A0D70914B0D072E29
:1052F000000C880B990B0E94F9CC762E672E582E45
:10530000492E262F372F482F592FB701C8010E9449
:10531000F3CC882311F12091BC063091BD06409159
:10532000BE065091BF06672D762D852D942D0E94C7
:10533000F3CC881F8827881F8CA3ECA5EE2389F067
:10534000882379F080910C02882309F4A7CE60E0CD
:105350008FEF92E00E94383EA1CE7E2C6F2C502E13
:10536000412E0E9452396B017C01DC01CB0128A93E
:1053700039A94AA95BA9821B930BA40BB50BB7FDF6
:1053800037C0D701C60188519C4FAF4FBF4F88AB84
:1053900099ABAAABBBAB0E943686EDE0F3E08491FB
:1053A0008F010F5F1F4F882319F009D7F801F7CF3E
:1053B00081149104A104B104B9F0D501C401805F46
:1053C000984DAF4FBF4FBC01CD016C197D098E09BF
:1053D0009F0928EE33E040E050E00E94CED0CA01A1
:1053E000B9010E94533502C08FE3E9D68AE0E7D6BF
:1053F0000E947C8ED9D62090BC063090BD060091CC
:10540000BE061091BF069101A801672D762D852D4E
:10541000942D0E9409D19F7781149104A104B104B5
:1054200049F420E030E040E85FE30E94F3CC87FFDE
:105430000BC008C020E030E040E450E40E9430D3CC
:10544000181614F4460157019CA1992399F128A537
:1054500039A54AA55BA5211531054105510541F046
:10546000D701C601821B930BA40BB50BB7FD22C05D
:105470009101A8016CA978AD8CAD21969FAD2197C3
:105480000E9409D120E030E040EC5FE30E94F3CCC1
:1054900087FD58CFD701C601805A9541AF4FBF4F06
:1054A00088A799A7AAA7BBA72CAA38AE0CAF2196AC
:1054B0001FAF219780910C02882309F443CF8114F8
:1054C0009104A104B10429F4E72CF62C052D142D28
:1054D0000ACF90E1C91A97E2D90AE108F108C81881
:1054E000D908EA08FB08F7FE2DCFEECF0BD50E94B6
:1054F0004ED26739710514F066E970E07093490D7A
:105500006093480DFFD420E030E040EA50E40E9470
:1055100030D3181614F40E9423A481E080930C0267
:10552000809147078093760718A619A61AA61BA68E
:1055300018AA19AA1AAA1BAA1CA21CAAACE3A8AFF3
:10554000BCE1BCAFE6E42196EFAF2197C12CD12C92
:1055500080E8E82E9FEBF92E812C912C540160916C
:10556000480D7091490D072E000C880B990B0E9475
:10557000F9CC162F072F782E692E262F372F482F7C
:10558000592FB601C7010E94F3CC882311F1209155
:10559000C0063091C1064091C2065091C306612FEA
:1055A000702F872D962D0E94F3CC881F8827881F87
:1055B0008CA3FCA5FF2389F0882379F080910C024D
:1055C000882309F46BCD60E083E293E00E94383ECB
:1055D00065CD1C2D0D2D7E2C6F2C0E9452396B0138
:1055E0007C01DC01CB0128A939A94AA95BA9821B4E
:1055F000930BA40BB50BB7FD38C0D701C60188517A
:105600009C4FAF4FBF4F88AB99ABAAABBBAB0E94CF
:105610003686EDE2F3E084912F019FEF491A590A93
:10562000882319F0CCD5F201F6CF81149104A1049E
:10563000B104B9F0D501C401805F984DAF4FBF4FA1
:10564000BC01CD016C197D098E099F0928EE33E05C
:1056500040E050E00E94CED0CA01B9010E9453350B
:1056600002C08FE3ACD58AE0AAD50E947C8E9CD57F
:105670002090C0063090C1064090C2065090C306EC
:105680009101A201612F702F872D962D0E9409D1C3
:105690009F7781149104A104B10449F420E030E023
:1056A00040E85FE30E94F3CC87FF0BC008C020E016
:1056B00030E040E450E40E9430D3181614F4460160
:1056C0005701ACA1AA2399F128A539A54AA55BA544
:1056D000211531054105510541F0D701C601821B55
:1056E000930BA40BB50BB7FD22C09101A2016CA9CD
:1056F00078AD8CAD21969FAD21970E9409D120E015
:1057000030E040EC5FE30E94F3CC87FD57CFD70138
:10571000C601805A9541AF4FBF4F88A799A7AAA746
:10572000BBA72CAA38AE4CAE21965FAE21978091D4
:105730000C02882309F442CF81149104A104B1041E
:1057400029F4C12ED02EE72CF62C09CF90E1C91AEE
:1057500097E2D90AE108F108C818D908EA08FB0855
:10576000F7FE2CCFEECF0E94258A88E5FED3882352
:1057700019F0429A1092CA0489E5F7D3882319F0E8
:10578000179A1092CB048AE5F0D3882319F0159A62
:105790001092CC0485E4E9D3882309F47FCC2E9AB7
:1057A0007DCC48A959A9452B09F459C1AD964CACFB
:1057B0005DAC6EAC7FACAD97480E591E6A1E7B1E69
:1057C000AD962CAD3DAD4EAD5FADAD97281B390B01
:1057D0004A0B5B0BCA01B901A50194010E94BFD01D
:1057E000A30192010E94F5D38CA49DA4AEA4BFA4F2
:1057F000820E931EA41EB51E34E183169104A104EB
:10580000B1040CF14CEE84169104A104B1043CF4F3
:1058100050E885169104A104B10434F422C05BEE73
:10582000852E912CA12CB12C8CA69DA6AEA6BFA630
:105830008EEF90E0A0E0B0E088199909AA09BB09B1
:105840004C015D0112C024E130E040E050E02CA7A3
:105850003DA74EA75FA744E1842E912CA12CB12C2B
:1058600004C08CA69DA6AEA6BFA6E8E3F7E084918F
:105870009F012F5F3F4F882379F0E5962FAFE59783
:10588000E6963FAFE6979BD4E5962FADE597E69673
:105890003FADE697F901EBCF6CA57DA58EA59FA541
:1058A0000E945335E3E3F7E084919F012F5F3F4F60
:1058B000882379F0E5962FAFE597E6963FAFE69718
:1058C0007ED4E5962FADE597E6963FADE697F901D4
:1058D000EBCFC501B4010E94533565964FAD659776
:1058E00069965FAD69972D966FAD2D9761967FADE7
:1058F00061978CE297E00E9475726D964FAD6D973F
:105900006E965FAD6E976F966FAD6F97A0967FADF9
:10591000A09785E297E00E94757248A959A9433083
:1059200051050CF49CC0C501B4010E94F9CC20E0E3
:1059300030E040E850E40E9458CD6B017C01659650
:105940002FAD659769963FAD69972D964FAD2D9711
:1059500061965FAD61976D966FAD6D976E967FADF9
:105960006E976F968FAD6F97A0969FADA0970E9490
:1059700009D12BED3FE049E450E40E9458CD20E0EE
:1059800030E040E05FE30E9458CD9B01AC01C701CD
:10599000B6010E94E6D16B017C01C301B2010E94F5
:1059A000F9CC2FE632E143E85AE30E9458CD2B01AF
:1059B0003C01B701A6018FE197E00E947572B30127
:1059C000A20189E197E00E9475722AE939E949E16B
:1059D0005FE3C701B6010E9458CD6B017C019B01BA
:1059E000AC010E940AD1A30192010E94E6D16CABE6
:1059F0007DAB8EAB9FABA3019201C701B6010E94A4
:105A000058CD20E030E040E05EE30E9458CD68AF22
:105A100079AF8AAF9BAFE9E0F7E084913F015FEF98
:105A2000651A750A882319F0CAD3F301F6CFB701B6
:105A3000A60183E097E00E9475724CA95DA96EA94A
:105A40007FA98DEF96E00E94757248AD59AD6AADA1
:105A50007BAD87EF96E00E9475728AE0B0D38CA58B
:105A60009DA5AEA5BFA5880D991DAA1DBB1DECA1C6
:105A7000B595A79597958795E7FF03C08093750720
:105A800005C0E496EEADFFADE497808328A939A95F
:105A90002F5F3F4F39AB28AB3CAD65963FAF659765
:105AA00021964FAD219769964FAF699725965FADC7
:105AB00025972D965FAF2D9729968FAD29976196E3
:105AC0008FAF619748A459A46AA47BA491E0A596DE
:105AD0009FAFA597E9C80E94258ABC2C60E08C2D59
